S018000048657861706F645F4C6567426F6172642E73726563E4
S11300000C9483000C94A0000C94A0000C94A00009
S11300100C94A0000C94A0000C94A0000C94A000DC
S11300200C94A0000C94A0000C94A0000C94A000CC
S11300300C94A0000C94A0000C94A0000C94A000BC
S11300400C94A0000C94A0000C94A0000C94A000AC
S11300500C9416090C94A0000C94A0000C94A0001D
S11300600C94A0000C94C4080C94A0000C94A00060
S11300700C94A0000C9409060C94A0000C94A0000D
S11300800C94A0000C94A0000C94A0000C94A0006C
S11300900C94150A0C94A0000C94A0000C94A000DD
S11300A00C94A0000C94A0000C94A000D80146026B
S11300B0CF01C6011E02460246024602460246021D
S11300C04602460246024602E7014602460227026B
S11300D0B20190017F01B606BD06C406CD06D40662
S11300E0DD06AE06E606E707E707DA07CC07BB0737
S11300F0A107EC078C087F086E084C0844082C08FC
S1130100F5071E08C90511241FBECFEFDAE0DEBFD4
S1130110CDBF22E0A0E0B1E001C01D92AC33B20734
S1130120E1F710E0C3E8D0E004C02197FE010E948B
S11301306824C238D107C9F70E94CB030C94AA24BF
S11301400C940000CF93DF931F92CDB7DEB7FC0170
S11301508081823050F0FB01208130E08181A9014F
S1130160480F511D4631510524F00F90DF91CF9176
S1130170089587E08983255E3E4FAB014F5F5F4F53
S1130180BE016F5F7F4F8CE891E00E94ED060F90F7
S1130190DF91CF91089510920601109205018CE829
S11301A091E00C94C008EF92FF921F93CF93DF93DA
S11301B000D0CDB7DEB7E12CF12C10E003C0A89538
S11301C0103180F480E891E00E94060680FFF7CFAA
S11301D080E891E00E94F105E80EF91E1F5FA895E2
S11301E0103180F3F294E2948FE0E822EF24F822B5
S11301F0EF2484E1E80EF11CF0922E01E0922F012D
S11302006F2D85E090E00E94982460912F0186E094
S113021090E00E94982410922C018CE380932D018D
S113022060E083E090E00E94982460912D0184E0D6
S113023090E00E9498248FEF8983BE016F5F7F4F07
S11302408CE891E00E94AB08882379F0198287E05A
S11302508A8320E030E0AE014F5F5F4FBE016E5FE6
S11302607F4F8CE891E00E94ED060F900F90DF9194
S1130270CF911F91FF90EF900895CF92DF92EF926C
S1130280FF920F931F93CF93DF9300D0CDB7DEB7C8
S1130290DC012C912230A8F08B017C01DB01EC9174
S11302A04E2F50E045315105B8F0FE0131967F01E3
S11302B08FEF8983B7018CE891E00E94AB0881112C
S11302C010C00F900F90DF91CF911F910F91FF906D
S11302D0EF90DF90CF900895FA01EA5AFF4F0C9403
S11302E06824198287E08A8320E030E0A701BE01F8
S11302F06E5F7F4F8CE891E00E94ED06E2CFDB0158
S113030011968C9180932F0180911B0187FDCDCF95
S1130310DB0111966C9186E090E00E949824C5CF91
S1130320DB0111968C91119780932E0180911B0112
S113033087FD06C011966C9185E090E00E94982498
S1130340F7018081833008F4A1C0D80112968C9102
S113035080932F0180911B0187FDA7CFD8011296AE
S11303606C91D9CFDB0111968C9180932D018091F2
S11303701B0187FD9ACFDB0111966C9184E090E01C
S11303800E949824FE0131967F0192CFDB011196E1
S11303908C9180931E01FE0131967F0189CFDB0190
S11303A011968C9180931D01FE0131967F0180CFBF
S11303B080911B01982F9C77DB0111968C91837897
S11303C0892B80931B01FE0131967F0171CF6B0154
S11303D0FFEFCF1ADF0AB6018CE891E00E94AB0868
S11303E0811154C0D80111968C918E3F09F45DCFD0
S11303F0198287E08A8320E030E0CE0101967C01F7
S1130400AC01BE016E5F7F4F8CE891E00E94ED0667
S1130410D80111968C9180932901B6018CE891E062
S11304200E94BB0880911B0187FD42CFD801119621
S11304306C9180E090E00E9498243ACFDB01119601
S11304408C9180931F01FE0131967F0131CFFB0116
S1130450818180932C0180911B0187FD05C06181FE
S113046083E090E00E949824D7018C91833008F4B3
S11304701CCFD80112968C9180932D0180911B0181
S113048087FD13CFD80112966C9178CFCE010196D7
S11304907C010ECF1F93CF93DF931F92CDB7DEB7AE
S11304A061E081E090E00E94982463E082E090E0C3
S11304B00E9498248091880190918901A0918A01D9
S11304C0B0918B018093070190930801A0930901D7
S11304D0B0930A0185B1806E85B984B1806E84B908
S11304E082E380931D0110921E0110921F0187EE7A
S11304F094E0909389008093880090938B0080937C
S11305008A0090938D0080938C0080E880931B0177
S113051080E090E00E949024182F8093290181E0CC
S113052090E00E94902480932A0182E090E00E944F
S1130530902480932B0183E090E00E949024809388
S11305402C0184E090E00E94902480932D0185E0AA
S113055090E00E94902480932E0186E090E00E9417
S1130560902480932F0111501D3F18F081E0809357
S1130570290169E271E08CE891E00E946B0682E057
S1130580898342EA50E0BE016F5F7F4F8CE891E0BF
S11305900E94A30683E089834DE351E0BE016F5FAF
S11305A07F4F8CE891E00E94A30685E089834BECA1
S11305B050E0BE016F5F7F4F8CE891E00E94A3067C
S11305C088E0898343ED50E0BE016F5F7F4F8CE884
S11305D091E00E94A30681B3836781BB10921C0142
S11305E08CE391E00E943B0944E650E060E070E057
S11305F088E891E00E94FF0804B600FC4CC080919A
S11306001B01806480931B0180E891E00E94D60561
S11306108FEF9FE790931401809313019093160139
S1130620809315019093120180931101909310010E
S113063080930F019FE7909323018FEF8093240110
S113064090932101809322019093250180932601A8
S113065090932701809328018091880190918901CA
S1130660A0918A01B0918B0180930B0190930C01AE
S1130670A0930D01B0930E01109206011092050192
S1130680109204018BE392E00E9436240F90DF91D4
S1130690CF911F91089561E080E391E00E942214BC
S11306A0823009F468C050F48823E1F18130D1F438
S11306B0809303011092020184E10AC0833011F196
S11306C0843081F481E08093030184E1809302010A
S11306D0809301011092000180911B018F7B809314
S11306E01B0192CF81E0809303011092020184E107
S11306F0809301018093000180911B018F7B809383
S11307001B0182CF81E08093030184E18093020185
S1130710109201018093000180911B018F7B8093D3
S11307201B0172CF44E650E060E070E088E891E09D
S11307300E94FF0842E160E080E391E00E94271FED
S11307404EE061E080E391E00E94271F44E650E020
S113075060E070E088E891E00E94FF0840E050E02B
S1130760BA0180E391E00E94690E80911B018064CC
S113077080931B0149CF81E0809303011092020111
S11307801092010184E18093000180911B018F7B11
S113079080931B0139CF8BE392E00E94292404B695
S11307A003FEF4C1809120018F5F8093200188E8CB
S11307B091E00E94EA080E944A0284B7807E84BFC6
S11307C08091050190910601ADE7FA2ECBE7DDE0BB
S11307D0B0E2CB2EB6E0DB2E10E1E12EA895853FEA
S11307E0914060F01092060110920501809104017D
S11307F090E0019683709927809304018CE891E03E
S11308000E94500710921C01789929C1E0921C01A2
S113081098E180E1799903C090931C01892F7C9918
S113082003C0816080931C017D995DC184608093C5
S11308301C017E9903C0826080931C0180911B017E
S1130840806180931B0180912C0190912D01982748
S11308508927982790931A018093190180912E017A
S113086090912F01982789279827909318018093B6
S1130870170180E891E00E94F8059093120180939B
S1130880110180E891E00E94FF059093100180938C
S11308900F0180E891E00E94F1059C0190931401FE
S11308A08093130190911B0196FFDCC01C99DAC060
S11308B080E391E00E94830FAC0190931601809332
S11308C01501209113013091140190911B01609145
S11308D01701709118016217730708F0CFC0946074
S11308E06091190170911A014617570708F0CFC09B
S11308F0986090931B01309323012093240150931B
S11309002101409322018091110120911201209331
S113091025018093260180910F01209110012093DD
S11309202701809328014091030180900B0190904E
S11309300C01A0900D01B0900E01442309F4ABC04A
S113094040900701509008016090090170900A01DD
S1130950950184010419150926093709280139016B
S113096018EB41161BE051066104710408F093C0B2
S1130970809102012BEF829FC001112496958795E7
S113098096958795209101015BEF259F9001112495
S11309903695279536952795609100010BEF609F5A
S11309A0B0011124769567957695679570938900C3
S11309B06093880030938B0020938A0090938D007D
S11309C080938C008091880190918901A0918A0183
S11309D0B0918B0188169906AA06BB0608F08DC053
S11309E080910501909106010196909306018093F0
S11309F005018090880190908901A0908A01B090AF
S1130A008B0180920B0190920C01A0920D01B09287
S1130A100E01442309F4E2CE4091070150910801EC
S1130A206091090170910A01841A950AA60AB70A0D
S1130A3019EB81161BE09106A104B10408F4CECE93
S1130A4010920301A895853F914008F0CBCE8CE825
S1130A5091E00E94500710921C01789BD7CE98E039
S1130A6080E0D8CE40911501509116016091170194
S1130A70709118016217730708F431CF9B7F60915E
S1130A80190170911A014617570708F431CF977F5F
S1130A9090931B0130CF292F237030E02F5F3F4FFD
S1130AA0F29EB001F39E700D112420910501309146
S1130AB006016217730730F180911D011BEF819FBE
S1130AC0C0011124969587959695879520911E01CE
S1130AD05BEF259F90011124369527953695279530
S1130AE060911F015BCF7E9BA6CE8111A7CE809122
S1130AF01B018F7E80931B01A6CE809105019091EE
S1130B0006016CCE80910401813089F0823001F1BC
S1130B10833069F1109289001092880010928B0042
S1130B2010928A0010928D0010928C004BCF80910D
S1130B301C01882379F31092890010928800D092C6
S1130B408B00C0928A00D0938D00C0938C003ACF62
S1130B5093FFE0CFD0938900C093880010928B005C
S1130B6010928A0010928D0010928C002BCF92FF6D
S1130B70D1CFD0938900C093880010928B0010923B
S1130B808A00D0938D00C0938C001CCF109220015A
S1130B900ECE62E08BE392E00E941A248CE891E08E
S1130BA00E94670680E391E00C94A20CFC0187E4A8
S1130BB080937C008FEA80937A0080E880937E00A3
S1130BC081E080937D0086E080937B00168217820B
S1130BD08FEF9FEF918380839583848393838283B4
S1130BE00895FC0187818E7F878380819181089598
S1130BF0FC0187818D7F8783828193810895FC0125
S1130C0087818B7F8783848195810895FC01878107
S1130C10089578941F920F920FB60F9211242F9378
S1130C208F939F93809178002091790090E0922B8C
S1130C30209186012130F1F158F1233089F4909309
S1130C40850180938401809187018460809387016A
S1130C5087E480937C0080917B008F7D80937B0070
S1130C60909186019F5F8DEC989F812D112486952C
S1130C708695282F220F220F820F981B90938601AE
S1130C809F918F912F910F900FBE0F901F901895E9
S1130C90909381018093800180918701816080938A
S1130CA0870180E480937C0080917B008062809344
S1130CB07B00D6CF9093830180938201809187013A
S1130CC082608093870187EC80937C00C9CFFC010C
S1130CD015A616A60895FC011092C8001092CD0026
S1130CE01092CC0086E08093CA00A9ECB0E08C910D
S1130CF080618C938C91877F8C9352985A9A8C91B3
S1130D0080688C938C918F7D8C93DB018C91808394
S1130D108091880190918901A0918A01B0918B0101
S1130D20838F948FA58FB68F10A2178E12A211A253
S1130D3014A213A216A215A210A617A212A611A6F7
S1130D4014A613A608950F931F93DB01EC910E2FA5
S1130D5010E0F8013197E830F10520F080E01F91B0
S1130D600F910895E559FF4F0C946824FC0150A39A
S1130D70478F81E01F910F910895FC0154A343A371
S1130D8081E01F910F910895DC0196965C934E9338
S1130D90959781E01F910F910895FC0150A747A3F7
S1130DA081E01F910F910895DC0192965C934E931C
S1130DB0919781E01F910F910895DC019A965C93BD
S1130DC04E93999781E01F910F910895FC0154A7C8
S1130DD043A781E01F910F910895CF93DF93FC0106
S1130DE0DA01A9012C912E5F3081EB018881380F43
S1130DF0320F8091C9008F7E8093C9009091C90001
S1130E0098609093C9008AEA8093CE009091C800BC
S1130E1095FFFCCF8AEA8093CE009091C80095FF9D
S1130E20FCCF80818093CE008091C80085FFFCCFE9
S1130E302093CE008091C80085FFFCCFFB01808108
S1130E408093CE008091C80085FFFCCF8C918823CD
S1130E5089F090E0FA01E90FF11D80818093CE00C2
S1130E608091C80085FFFCCF8081380F9F5F8C91F3
S1130E70981780F330953093CE008091C80085FF99
S1130E80FCCF8091C90080618093C9008091C90022
S1130E90877F8093C90052985A9ADF91CF91089521
S1130EA09F92AF92BF92CF92DF92EF92FF920F93F5
S1130EB01F93CF93DF9300D0CDB7DEB78C0187E0CB
S1130EC0B82E780182E0E80EF11C96E0C92E25E0E8
S1130ED0922E34E0D32E43E0A42ED8019D968C911B
S1130EE09D979E969C919E97891B8F7709F485C048
S1130EF09E968C91F801E80FF11D27A5F80186A5AF
S1130F008F5F8F7786A78091880190918901A09146
S1130F108A01B0918B01838F948FA58FB68F318115
S1130F20832F90E08730910538F01182178A168A52
S1130F30118E128E108ED1CFFC01ED58FF4F0C9400
S1130F406824F801808D820F808F8789E80FF11D56
S1130F5022838F5FD80157968C93579790E002961F
S1130F6056962C9130E0821793070CF4B6CFD80133
S1130F701196CC92B2CFF801808D820F808F218F91
S1130F802130A9F38BEF820F823088F3283079F374
S1130F90273059F19182A1CFD80158968C91589756
S1130FA0820F58968C93589756962C935697119671
S1130FB0DC9293CFD8018C91281769F12E3F59F117
S1130FC0D80111961C92F801208F228F86CF2A3ADD
S1130FD081F1F801118281CF822F90E0F801208DF8
S1130FE0209530E082179307C9F0F8011182178A1F
S1130FF0168A118E128E108E70CF0F900F90DF9183
S1131000CF911F910F91FF90EF90DF90CF90BF9001
S1131010AF909F900895F801A182D5CF818D90E083
S1131020FC013197E830F10500F7E658FF4F0C94C6
S113103068243F5FD80111963C934FCFD8019B960B
S1131040ED91FC919C97309781F2198260E070E0F9
S1131050CE0101960995C9CFD8019996ED91FC91DD
S11310609A97309709F473C0198260E070E0CE015A
S113107001967C010995D8015A969C915A978C91B6
S1131080981709F457C0FFCFD8019196ED91FC91C0
S113109092973097D1F6A9CFD8019796ED91FC910C
S11310A09897309741F056968C9182508983B70176
S11310B0CE0101960995F801928D8081981395CF00
S11310C01A82B98220E030E0AE014E5F5F4FBE016C
S11310D06F5F7F4FC8010E94ED0687CFD8019596B8
S11310E0ED91FC919697309709F47FCF56968C91A9
S11310F082508983B701CE010196099576CFF80114
S1131100928D8081981371CF03A0F4A1E02D3097C4
S113111009F46BCFD801EACFD8015F96ED91FC9129
S11311209097309741F2198260E070E0CE01019609
S11311300995C1CF1A8287E0898320E030E0AE01AF
S11311404E5F5F4FB701C8010E94ED069CCFFE01C0
S113115031967F0190CFFC01DB019C9181E09F3FA0
S113116021F02081291380E00895228D9081291790
S1131170D9F380E0F9CFFB012081FC01208308959D
S1131180FC0115A616A608951F920F920FB60F9292
S113119011242F938F939F93EF93FF932091CE006D
S11311A08091B9018F5F8F779091BA01891741F0CF
S11311B0E091B901F0E0E457FE4F27A78093B9010D
S11311C0FF91EF919F918F912F910F900FBE0F90F0
S11311D01F901895FC0110821182128213828EEFE7
S11311E08093800080E89EE390938700809386003C
S11311F081E080936F0089E18093810008950F93CB
S11312001F93FC0180819181A281B38100811181AE
S113121022813381081B190B2A0B3B0B041715077A
S11312202607370798F31F910F9108951F920F9285
S11312300FB60F9211248F939F93AF93BF93809116
S1131240880190918901A0918A01B0918B01019646
S1131250A11DB11D8093880190938901A0938A01F7
S1131260B0938B01BF91AF919F918F910F900FBE5F
S11312700F901F9018952BB123602BB928E420936D
S1131280B8002FEF2093BB0024E02093BC00FC01A6
S1131290ED5BFF4F1082319710820895EF92FF9219
S11312A00F931F93CF93DF93EC017901DC01AD5BC6
S11312B0BF4F8C918111FDCF81E08C93FB01808124
S11312C0880F8983FA0180818A83F70180818823CA
S11312D041F190E0492F50E09A012E5F3F4F400FBB
S11312E0511FFA018081F901EC0FFD1F81839F5F7B
S11312F0F7013081931770F33E5FFE01EF5BFF4F00
S1131300308385EA8093BC008C918111FDCFCE5B44
S1131310DF4F8881DF91CF911F910F91FF90EF9064
S1131320089532E0EACFEF92FF920F931F93CF9389
S1131330DF93DC017901FC01ED5BFF4F908191119A
S1131340FDCF81E08083EB018881880F11968C9317
S11313501197EA01888112968C9312979D012F5B55
S11313603F4F82E0E901888385EA8093BC00908145
S11313709111FDCF82E08083EB018881880F816029
S113138011968C931197E7018881E901888385EA96
S11313908093BC0090819111FDCF9D012E5B3F4F46
S11313A0F9018081811114C0F7018081882381F0C3
S11313B090E0492F50E0FD01E40FF51F8181F80111
S11313C0E40FF51F80839F5FE7018881981788F3F6
S11313D0E9018881DF91CF911F910F91FF90EF90E8
S11313E00895CF93DF93DC01FC01ED5BFF4F908107
S11313F09111FDCF91E09083EB018881880F1196C4
S11314008C931197ED01CF5BDF4F988385EA80932E
S1131410BC0090819111FDCFAE5BBF4F9C9181E0E8
S1131420911180E0DF91CF9108951F920F920FB632
S11314300F9211242F933F938F939F93EF93FF93D6
S11314408091B900883219F1B8F0803509F44CC0A4
S1131450883509F473C0803409F056C020913C01EA
S113146080917D0130E090E0019728173907C4F599
S113147085EC8093BC0018C0803109F44FC08831DA
S113148009F040C080913C018F5F80933C019091B2
S11314903C0180917D01981790F010927E0110928A
S11314A07F0185E98093BC00FF91EF919F918F911B
S11314B03F912F910F900FBE0F901F901895E091C0
S11314C03C01F0E0E45CFE4F81818093BB0080919D
S11314D03C018F5F80933C0185E88093BC00E4CF9E
S11314E085E88093BC00E0CFE0913C01F0E080917E
S11314F0BB00E45CFE4F818380913C018F5F80934D
S11315003C01ACCF883051F085E98093BC008091D8
S1131510B90080937E0110927F01C6CF10923C01E6
S1131520E0913C01F0E0E45CFE4F81818093BB00DC
S113153010927E0185E88093BC00B6CFE0913C0117
S1131540F0E08091BB00E45CFE4F8183A6CF2F9234
S11315503F924F925F926F927F928F929F92AF923F
S1131560BF92CF92DF92EF92FF920F931F93CF938C
S1131570DF93CDB7DEB76A970FB6F894DEBF0FBE20
S1131580CDBF1C014C8B5D8B6E8B7F8B44244394AD
S1131590488649823C012FEF621A720A8E010D5F60
S11315A01F4F9E012F5F3F4FAE01485F5F4FB30156
S11315B08CE391E00E949309D1018C935B80B52D5B
S11315C0B870B88FE52DE074EB8B80E58C8349828D
S11315D09E012F5F3F4FAE014C5F5F4FB3018CE321
S11315E091E00E949309D1018C93FB8086E4898762
S11315F049829E012F5F3F4FAE01475F5F4FB301AA
S11316008CE391E00E949309F10180831B81F394A0
S1131610AF2DAA0FB0E020E03FE24AE350E00E9481
S11316206E244B015C01F4EF8F0EF1E09F1EA11CB0
S1131630B11CE8EECE2EE3E0DE2EE12CF12CC50148
S1131640B401A70196010E9446242B873C874D874D
S11316505E87C501B40120ED37E040E050E00E9410
S113166046242F87388B498B5A8BA12FB0E01196D3
S11316702B853C854D855E850E9479242F8538898C
S113168049895A89620F731F841F951FA701960108
S11316900E94462469017A0181E58D83F2E0BF2E20
S11316A0BB828E010F5F1F4F9E012D5F3F4FAE0126
S11316B04B5F5F4FB3018CE391E00E949309D1012A
S11316C08C9389819A819827892798279C013327AD
S11316D0F90102C0EE0FFF1F9A95E2F79F012F5FF9
S11316E03F4F3A8F298F80E78E8349820E5F1F4FC9
S11316F09E012F5F3F4FAE014A5F5F4FB3018CE302
S113170091E00E949309D1018C934B8081E78F83F0
S1131710BB82025011099E012D5F3F4FAE01495F0C
S11317205F4FB3018CE391E00E949309F101808340
S113173054FEC0C046015701F6E38F0EFBE09F1E26
S1131740A11CB11C288D222309F4A7C032EBC30EBF
S113175032E0D31EE11CF11CCC0CDD1CEE1CFF1C82
S11317608C0C9D1CAE1CBF1C5B89552301F1A98DFB
S1131770BA8D2B853C854D855E850E946E242F8510
S1131780388949895A89620F731F841F951F28EE6F
S113179033E040E050E00E944624DA01C9018C564F
S11317A09D4FAF4FBF4F880E991EAA1EBB1E57FEFA
S11317B0A2C07501640136E2C30E32E0D31EE11CFF
S11317C0F11C8C899D89AE89BF898C159D05AE0558
S11317D0BF0508F476C081E0840DA82FAA0FB0E0FD
S11317E020E03FE24AE350E00E946E244B015C019A
S11317F0A4EF8A0EA1E09A1EA11CB11C2C893D897C
S11318004E895F892C193D094E095F09A8EEB3E0A2
S11318100E946E246B017C01C501B40120ED37E008
S113182040E050E00E944624C20ED31EE41EF51E82
S1131830C501B40128EE33E040E050E00E944624A4
S1131840C701B6010E944624C901BB89B11155C024
S1131850009709F059C080E090E021E72A879A8335
S1131860898382E08B838E010F5F1F4F9E012D5F62
S11318703F4FAE01465F5F4FB3018CE391E00E949E
S11318804E09F10180832C893D894E895F89208727
S113189031874287538781E015C052FE65CF44E902
S11318A0C40E42E0D41EE11CF11C8C0C9D1CAE1C29
S11318B0BF1C5ACF78EE872E78E0972EA12CB12C3E
S11318C041CF80E06A960FB6F894DEBF0FBECDBF5D
S11318D0DF91CF911F910F91FF90EF90DF90CF9008
S11318E0BF90AF909F908F907F906F905F904F903C
S11318F03F902F90089581E0E5CF898D9A8D820FD6
S1131900931F009709F4A7CF0197A0E0B0E0AC01C2
S1131910BD01442720E030E0452B462B472B79F0CE
S1131920B695A795979587952F5F3F4FAC01BD015D
S11319304427452B462B472B99F7322F2227822BFE
S1131940932B8BCFFC0189E2818384EF91E0938315
S11319508283148208952F923F924F925F926F92E6
S11319607F928F929F92AF92BF92CF92DF92EF922B
S1131970FF920F931F93CF93DF93CDB7DEB7679793
S11319800FB6F894DEBF0FBECDBF1C0121E028873F
S113199029836C013FEFC31AD30A8E010D5F1F4FD9
S11319A09E012F5F3F4FAE01485F5F4FB6018CE34E
S11319B091E00E949309F1018083FB81FA87F07121
S11319C0FD8B2A8528702E8B3A8530743A8B80E5FE
S11319D08C8341E049839E012F5F3F4FAE014C5FF2
S11319E05F4FB6018CE391E00E949309F10180837B
S11319F0EB8086E48987F1E0F9839E012F5F3F4FF6
S1131A00AE01475F5F4FB6018CE391E00E949309FA
S1131A10F1018083FB81FE87E394AE2DAA0FB0E031
S1131A2020E03FE24AE350E00E946E244B015C0157
S1131A3024EF820E21E0921EA11CB11C18EEE12EAF
S1131A4013E0F12E00E010E0C501B401A8019701F4
S1131A500E94462429013A01C501B40120ED37E072
S1131A6040E050E00E94462449015A013E85A32FDC
S1131A70B0E01196A30192010E947924680D791DAA
S1131A808A1D9B1DA80197010E9446242E873F872B
S1131A90488B598B81E58D8352E0E52EEB828E01D4
S1131AA00F5F1F4F9E012D5F3F4FAE014B5F5F4F96
S1131AB0B6018CE391E00E949309F101808389814E
S1131AC09A819827892798279C013327A90102C066
S1131AD0440F551F9A95E2F7FA013196FC8BEB8B74
S1131AE080E78E83F1E0F9830E5F1F4F9E012F5F25
S1131AF03F4FAE014A5F5F4FB6018CE391E00E9415
S1131B009309F1018083FB81FF8B81E78F83EB8253
S1131B10025011099E012D5F3F4FAE01495F5F4F97
S1131B20B6018CE391E00E949309F10180838981DD
S1131B309A819827892798278C01112702C0000FC2
S1131B40111F9A95E2F70F5F1F4FFA89FF2321F0C7
S1131B502B893C89021B130B3D89332309F4B2C042
S1131B60CE84DF84E888F98844E8C40E4DE0D41EAE
S1131B70E11CF11C5E89552309F494C08E859F8570
S1131B80A889B9898E549D4FAF4FBF4F880F991FB5
S1131B90AA1FBB1FC80ED91EEA1EFB1E9A899923D1
S1131BA0D1F0AB89BC89A30192010E946E24680D17
S1131BB0791D8A1D9B1D28EE33E040E050E00E9411
S1131BC04624DA01C9018C569D4FAF4FBF4FC80E52
S1131BD0D91EEA1EFB1EEA85E7FF44C08F898F5F8A
S1131BE0A82FAA0FB0E020E03FE24AE350E00E94B1
S1131BF06E244B015C01F4EF8F0EF1E09F1EA11CDB
S1131C00B11C88EE482E83E0582E612C712CC5013E
S1131C10B401A30192010E944624D8010E946E24BB
S1131C206A877B878C879D87C501B40120ED37E0E7
S1131C3040E050E00E9446246A857B858C859D8522
S1131C40620F731F841F951FA30192010E944624F3
S1131C50DA01C9018A5D9D4FAF4FBF4FC80ED91E2F
S1131C60EA1EFB1EF101C086D186E286F386C70117
S1131C70B60167960FB6F894DEBF0FBECDBFDF91F5
S1131C80CF911F910F91FF90EF90DF90CF90BF9075
S1131C90AF909F908F907F906F905F904F903F9008
S1131CA02F9008958A8582FF79CF8E859F85A88994
S1131CB0B9898C569D4FAF4FBF4FC80ED91EEA1E2F
S1131CC0FB1E6CCF36E3C32E3BE0D32EE12CF12C6C
S1131CD051CF4F925F926F927F929F92AF92BF9239
S1131CE0CF92DF92EF92FF920F931F93CF93DF93E4
S1131CF0CDB7DEB768970FB6F894DEBF0FBECDBF81
S1131D007C012A013B0190E8C92ECC86DD24D394C2
S1131D10DB86D98257018FEFA81AB80A8E01055FB6
S1131D201F4F9E012F5F3F4FAE01445F5F4FB501D0
S1131D308CE391E00E944E09F701808399249A94E0
S1131D409E86DD86D9820E5F1F4F9E012F5F3F4F17
S1131D50AE01425F5F4FB5018CE391E00E944E09F2
S1131D60F7018083188A1F86D9820E5F1F4F9E0158
S1131D702F5F3F4FAE01405F5F4FB5018CE391E0B1
S1131D800E944E09F7018083878191E99A8B898BA0
S1131D90D9820E5F1F4F9E012F5F3F4FAE014E5EF3
S1131DA05F4FB5018CE391E00E944E09F7018083F7
S1131DB01C8ADB8AD9820E5F1F4F9E012F5F3F4F23
S1131DC0AE014C5E5F4FB5018CE391E00E944E0979
S1131DD0F70180839E8A1D8AD9820E5F1F4F9E0160
S1131DE02F5F3F4FAE014A5E5F4FB5018CE391E038
S1131DF00E944E09F7018083C88E1F8AD9820E5F24
S1131E001F4F9E012F5F3F4FAE01485E5F4FB501EC
S1131E108CE391E00E944E09F70180834114510440
S1131E206104710409F461C088EF8E8382E08D83BC
S1131E30065111099E012B5F3F4FAE014A5F5F4F70
S1131E40B5018CE391E00E949309F7018083A98195
S1131E50BA81BA27AB27BA27109731F0A3019201B0
S1131E600E946E242B013C0184E0D82ED88649823E
S1131E705A826B827C82DD828E010F5F1F4F9E012E
S1131E802B5F3F4FAE01485F5F4FB5018CE391E09C
S1131E900E944E09F70180831A86D98681E08D83DA
S1131EA0085F1F4F9E012B5F3F4FAE01465F5F4FA0
S1131EB0B5018CE391E00E944E09F7018083689696
S1131EC00FB6F894DEBF0FBECDBFDF91CF911F9147
S1131ED00F91FF90EF90DF90CF90BF90AF909F90C5
S1131EE07F906F905F904F9008951F8282E08D8362
S1131EF0D9828E010B5F1F4F9E012F5F3F4FAE01B2
S1131F00495F5F4FD5CFAF92BF92CF92DF92EF92EE
S1131F10FF920F931F93CF93DF9300D000D01F92B3
S1131F20CDB7DEB76C018EE18C8382E08B835601E2
S1131F308FEFA81AB80A8E010F5F1F4F9E012D5F05
S1131F403F4FAE014C5F5F4FB5018CE391E00E94BF
S1131F509309F6018083E980FA80FE24EF24FE24AD
S1131F608BE08D8381E08B8389830E5F1F4F9E01FD
S1131F702F5F3F4FAE014B5F5F4FB5018CE391E0A4
S1131F800E944E09F6018083C7010F900F900F90B5
S1131F900F900F90DF91CF911F910F91FF90EF90D1
S1131FA0DF90CF90BF90AF9008954F925F926F9261
S1131FB07F928F929F92AF92BF92CF92DF92EF92D5
S1131FC0FF920F931F93CF93DF93CDB7DEB7A997FB
S1131FD00FB6F894DEBF0FBECDBF7C014B015A0192
S1131FE090E8492E4E8A772473947D8A798267011A
S1131FF08FEFC81AD80A8E010B5E1F4F9E012F5F08
S11320003F4FAE014A5E5F4FB6018CE391E00E9400
S11320104E09F701808355245A94588E7F8A798219
S11320200E5F1F4F9E012F5F3F4FAE01485E5F4F13
S1132030B6018CE391E00E944E09F70180831A8E69
S1132040198E79820E5F1F4F9E012F5F3F4FAE01A5
S1132050465E5F4FB6018CE391E00E944E09F701A2
S113206080835C8E86E08B8F79820E5F1F4F9E018A
S11320702F5F3F4FAE01445E5F4FB6018CE391E0AA
S11320800E944E09F701808323E8622E6D8E7982C7
S1132090095111099E012F5F3F4FAE01435E5F4F0F
S11320A0B6018CE391E00E949309F70180838A8151
S11320B06F8E84608E8F7982045E1F4F9E012F5F26
S11320C03F4FAE01415E5F4FB6018CE391E00E9449
S11320D04E09F701808359A287E088A379820E5FB5
S11320E01F4F9E012F5F3F4FAE014F5D5F4FB60103
S11320F08CE391E00E944E09F701808381E88BA371
S11321007AA279820E5F1F4F9E012F5F3F4FAE016F
S11321104D5D5F4FB6018CE391E00E944E09F701DB
S113212080834DA27CA279820E5F1F4F9E012F5F98
S11321303F4FAE014B5D5F4FB6018CE391E00E94CF
S11321404E09F701808384E98FA38BE68EA37982FD
S11321500E5F1F4F9E012F5F3F4FAE01495D5F4FE2
S1132160B6018CE391E00E944E09F701808369A6D1
S113217018A679820E5F1F4F9E012F5F3F4FAE015D
S1132180475D5F4FB6018CE391E00E944E09F70171
S1132190808342E050E060E070E088E891E00E94D3
S11321A0FF088091880190918901A0918A01B091E2
S11321B08B01F7019683858383E8482E6C8A552426
S11321C0539479828E010E5F1F4F9E012F5F3F4F04
S11321D0AE014C5E5F4FB6018CE391E00E9493091F
S11321E0F70180838A81811115C0828193810097D0
S11321F019F3409188015091890160918A0170918D
S11322008B0125813681421B530B84179507A0F659
S113221080E0C2C04B825A8259828E010E5F1F4FEA
S11322209E012F5F3F4FAE014D5F5F4FB6018CE3C0
S113223091E00E944E09F701808382E98D835982DF
S11322400E5F1F4F9E012F5F3F4FAE014B5F5F4FED
S1132250B6018CE391E00E949309F70180838C819D
S1132260982F9F77F4019083881F8827881FF50192
S1132270808381E88E831C8259829E012F5F3F4FA9
S1132280AE014A5F5F4FB6018CE391E00E944E09B4
S1132290F7018083BB24BA94B88686E08F83598281
S11322A00D5F1F4F9E012F5F3F4FAE01485F5F4F91
S11322B0B6018CE391E00E944E09F70180834A86BF
S11322C059820E5F1F4F9E012F5F3F4FAE01465F45
S11322D05F4FB6018CE391E00E949309F70180837C
S11322E089854B868B7F898759829E012F5F3F4F5B
S11322F0AE01455F5F4FB6018CE391E00E944E0949
S1132300F7018083BD865C8659820D5F1F4F9E0155
S11323102F5F3F4FAE01435F5F4FB6018CE391E007
S11323200E944E09F70180831F865E8659820E5FE4
S11323301F4F9E012F5F3F4FAE01415F5F4FB601BC
S11323408CE391E00E944E09F7018083B98A188AD0
S113235059820E5F1F4F9E012F5F3F4FAE014F5EAC
S11323605F4FB6018CE391E00E944E09F701808330
S113237080E88B8B1A8A59820E5F1F4F9E012F5F54
S11323803F4FAE014D5E5F4FB6018CE391E00E947A
S11323904E09F701808381E0A9960FB6F894DEBF59
S11323A00FBECDBFDF91CF911F910F91FF90EF90A2
S11323B0DF90CF90BF90AF909F908F907F906F9061
S11323C05F904F9008952F923F924F925F926F9239
S11323D07F928F929F92AF92BF92CF92DF92EF92B1
S11323E0FF920F931F93CF93DF93CDB7DEB762971E
S11323F00FB6F894DEBF0FBECDBF9A8789877A8B5C
S1132400698B1A0180E58C8321E0298389859A856B
S113241001969C878B878E010D5F1F4F9E012F5F56
S11324203F4FAE014C5F5F4FBC018CE391E00E94D3
S11324309309E985FA8580838B818F5F880F90E00B
S1132440F1019183808386E48887F1E0F9839E011A
S11324502F5F3F4FAE01485F5F4F6B857C858CE3F8
S113246091E00E949309E985FA8580830B8110E04D
S11324700F5F1F4FF10115830483A081B0E020E0BA
S11324803FE24AE350E00E946E244B015C01F4EF0A
S11324908F0EF1E09F1EA11CB11C98EEC92E93E093
S11324A0D92EE12CF12CC501B401A70196010E949B
S11324B04624D8010E9479246D877E878F87988B64
S11324C020ED422E27E0522E612C712CC501B4015F
S11324D0A30192010E9446246D857E858F8598898B
S11324E0620F731F841F951FA70196010E94462443
S11324F0F101228733874487558781E58D83F2E094
S1132500FB838E010F5F1F4F9E012D5F3F4FAE0176
S11325104B5F5F4F6B857C858CE391E00E94930950
S1132520E985FA85808389819A8198278927982764
S11325308C01112702C0000F111F9A95E2F70F5F5B
S11325401F4FF10117830683A081B0E020E03FE232
S11325504AE350E00E946E244B015C01F4EF8F0EBD
S1132560F1E09F1EA11CB11CC501B401A701960195
S11325700E944624D8010E946E246D877E878F872F
S1132580988BC501B401A30192010E9446246D8574
S11325907E858F859889620F731F841F951FA701FD
S11325A096010E944624F10126873787408B518B80
S11325B080E78E83F1E0F9838E010D5F1F4F9E014A
S11325C02F5F3F4FAE014A5F5F4F6B857C858CE385
S11325D091E00E949309E985FA8580838B818F5F5E
S11325E0880F90E0F1019383828381E78F83F2E087
S11325F0FB83025011099E012D5F3F4FAE01495FDD
S11326005F4F6B857C858CE391E00E949309E9859B
S1132610FA85808389819A819827892798278C0154
S1132620112702C0000F111F9A95E2F70F5F1F4F89
S1132630F10111870087E989FA898381882339F0B8
S1132640F10186819781081B190B11870087F1011D
S1132650A281B0E020E03FE24AE350E00E946E2411
S11326606B017C01F4EFCF0EF1E0DF1EE11CF11CE5
S113267088EE882E83E0982EA12CB12CC701B601D8
S1132680A50194010E944624D8010E946E242B01C6
S11326903C01C701B60120ED37E040E050E00E9464
S11326A04624C301B201620F731F841F951FA50145
S11326B094010E944624F101228B338B448B558B69
S11326C062960FB6F894DEBF0FBECDBFDF91CF91F7
S11326D01F910F91FF90EF90DF90CF90BF90AF903C
S11326E09F908F907F906F905F904F903F902F902E
S11326F008959F92AF92BF92CF92DF92EF92FF9292
S11327000F931F93CF93DF93CDB7DEB728970FB600
S1132710F894DEBF0FBECDBF7C01188661606F8365
S113272081E0898367018FEFC81AD80A8E01095F97
S11327301F4F9E012F5F3F4FAE01485F5F4FB601B1
S11327408CE391E00E944E09F701808342E050E05F
S113275060E070E088E891E00E94FF0880918801C1
S113276090918901A0918A01B0918B01F701968320
S1132770858383E1A82EBB24B394AE8299249394D9
S1132780B9828E010E5F1F4F9E012F5F3F4FAE0136
S11327904A5F5F4FB6018CE391E00E949309F70111
S11327A080838A818770A9F482819381009729F3B9
S11327B0409188015091890160918A0170918B0147
S11327C025813681421B530B84179507B0F680E0B0
S11327D027C08BE08B839A8299828E010E5F1F4FF4
S11327E09E012F5F3F4FAE014D5F5F4FB6018CE3FB
S11327F091E00E944E09F70180831D821C82998218
S11328000E5F1F4F9E012F5F3F4FAE014B5F5F4F27
S1132810B6018CE391E00E944E09F701808381E0C8
S113282028960FB6F894DEBF0FBECDBFDF91CF91CF
S11328301F910F91FF90EF90DF90CF90BF90AF90DA
S11328409F9008952F923F924F925F926F927F9242
S11328508F929F92AF92BF92CF92DF92EF92FF92AC
S11328600F931F93CF93DF93CDB7DEB7C05ED1092B
S11328700FB6F894DEBF0FBECDBF6C01F62E5C011F
S11328808FEFA81AB80AB5018CE391E00E94F10910
S1132890882309F450C1F11050C1FE0137963F015D
S11328A0CE0101964C0188E8C753DF4F8883C95C89
S11328B0D040C853DF4F1882C85CD040FF24F39443
S11328C0F9828E0108531F4F9401AE0147535F4FA5
S11328D0B5018CE391E00E944E09F601808390E8F3
S11328E0592EC553DF4F5882CB5CD040C653DF4FBF
S11328F0F882CA5CD040F9820E5F1F4F9401AE018A
S113290045535F4FB5018CE391E00E944E09F601F7
S11329108083EE24EA94C353DF4FE882CD5CD04039
S1132920C453DF4FF882CC5CD040F9820E5F1F4F56
S11329309401AE0143535F4FB5018CE391E00E94D3
S11329404E09F6018083C153DF4F1882CF5CD0401B
S1132950C253DF4F1882CE5CD040F9820E5F1F4F06
S11329609401AE0141535F4FB5018CE391E00E94A5
S11329704E09F601808381E9C053DF4F8883C05D2F
S1132980D040F98283019401AE0140535F4FB501F9
S11329908CE391E00E949309F60180838F81878301
S11329A0CE52DF4F1882C25DD040CF52DF4FF88243
S11329B0C15DD040F9828E010F521F4F9401AE01C8
S11329C04E525F4FB5018CE391E00E944E09F6012F
S11329D08083CC52DF4FE882C45DD040CD52DF4FBC
S11329E01882C35DD040F9820E5F1F4F9401AE017F
S11329F04C525F4FB5018CE391E00E944E09F60101
S1132A008083CA52DF4F5882C65DD040CB52DF4F1D
S1132A101882C55DD040F9820E5F1F4F9401AE014C
S1132A204A525F4FB5018CE391E00E944E09F601D2
S1132A30808320E6522EC952DF4F5882C75DD040B2
S1132A40F98283019401AE0149525F4FB5018CE3D1
S1132A5091E00E949309F60180838F81C752DF4F72
S1132A605882C95DD0408261C852DF4F8883C85DF7
S1132A70D040F9828E0108521F4F9401AE01475293
S1132A805F4FB5018CE391E00E944E09F60180830B
S1132A9084E489878CE090E098878F8382E089833F
S1132AA083019401AE01475F5F4FB5018CE391E070
S1132AB00E944E09F6018083C552DF4FF882CB5D38
S1132AC0D040C652DF4FE882CA5DD040F9828E0101
S1132AD006521F4F9401AE0145525F4FB5018CE37E
S1132AE091E00E944E09F6018083AE0141525F4F8E
S1132AF0BE0160527F4FC6010E94D50F811155C09F
S1132B0082E0C052DF4F0FB6F894DEBF0FBECDBFD8
S1132B10DF91CF911F910F91FF90EF90DF90CF90B5
S1132B20BF90AF909F908F907F906F905F904F90E9
S1132B303F902F90089581E0E4CF39E8E32EC4520A
S1132B40DF4FE882CC5DD040FF24F394F9823E014C
S1132B5097E0690E711C8301FE0131964F019F01BC
S1132B60AE0144525F4FB5018CE391E00E9493099A
S1132B70F60180838F81C252DF4FE882CE5DD04060
S1132B808160C352DF4F8883CD5DD040F9820A5201
S1132B901F4F9401AE0142525F4FB5018CE391E0A7
S1132BA00E944E09F60180837ECE80EBC354DF4F32
S1132BB08883CD5BD04086E0C454DF4F8883CC5BF0
S1132BC0D04084019E0124543F4FAE0143545F4FD3
S1132BD0B5018CE391E00E949309F6018083C1540E
S1132BE0DF4FE882CF5BD040C254DF4FF882CE5B28
S1132BF0D040FA868E0102541F4F9E01265F3F4F3C
S1132C00AE0141545F4FB5018CE391E00E944E093F
S1132C10F60180838FE4CF53DF4F8883C15CD040BB
S1132C20C054DF4F1882C05CD040FA860E5F1F4F3D
S1132C309E01265F3F4FAE014F535F4FB5018CE3BA
S1132C4091E00E944E09F60180838EE4CD53DF4F5C
S1132C508883C35CD0408CE2CE53DF4F8883C25C50
S1132C60D040FA860E5F1F4F9E01265F3F4FAE0194
S1132C704D535F4FB5018CE391E00E944E09F6017C
S1132C808083CB53DF4FE882C55CD040CC53DF4F09
S1132C901882C45CD040FA860E5F1F4F9E01265FE7
S1132CA03F4FAE014B535F4FB5018CE391E00E945F
S1132CB04E09F601808386EBC953DF4F8883C75CD6
S1132CC0D04084EBCA53DF4F8883C65CD040FA8679
S1132CD00E5F1F4F9E01265F3F4FAE0149535F4F6A
S1132CE0B5018CE391E00E944E09F6018083C15244
S1132CF0DF4F8881CF5DD04081110C94E61E40E007
S1132D00C052DF4F7881C05ED040F12C50E021E00A
S1132D1030E0A72F8F2D10C0A517B9F0608170E0A7
S1132D20982F977002C0759567959A95E2F760FDA4
S1132D305F5F8F5F8033C1F0982F96959695969537
S1132D40F401E90FF11D841738F7982F9770B90132
S1132D5001C0660F9A95EAF7962F909560819623A5
S1132D6090838F5F803341F7F82E80EB888B86E069
S1132D70582E5F8684019E01215F3F4FAE01405F64
S1132D805F4FB5018CE391E00E944E09F601808308
S1132D9042E050E060E070E088E891E00E94FF08C3
S1132DA099249A949A8AEE24E394E98AEA868E0115
S1132DB00F5E1F4F9E01265F3F4FAE014E5E5F4F79
S1132DC0B5018CE391E00E944E09F60180831C8AD0
S1132DD01B8AEA860E5F1F4F9E01265F3F4FAE019E
S1132DE04C5E5F4FB5018CE391E00E944E09F60101
S1132DF080839E8A1D8AEA860E5F1F4F9E01265F8E
S1132E003F4FAE014A5E5F4FB5018CE391E00E94F3
S1132E104E09F601808399E0692E688E1F8AEA863E
S1132E200E5F1F4F9E01265F3F4FAE01485E5F4F0E
S1132E30B5018CE391E00E944E09F601808380E1A4
S1132E408A8F198EEA860E5F1F4F9E01265F3F4FC1
S1132E50AE01465E5F4FB5018CE391E00E944E09DE
S1132E60F601808381E18C8F1B8EEA860E5F1F4FF3
S1132E709E01265F3F4FAE01445E5F4FB5018CE378
S1132E8091E00E944E09F601808384E28E8FED8EDC
S1132E90EA860E5F1F4F9E01265F3F4FAE01425EE2
S1132EA05F4FB5018CE391E00E944E09F6018083E7
S1132EB025E2222E28A29F8EEA860E5F1F4F9E01D6
S1132EC0265F3F4FAE01405E5F4FB5018CE391E05A
S1132ED00E944E09F601808385E78AA319A2EA8637
S1132EE00E5F1F4F9E01265F3F4FAE014E5D5F4F49
S1132EF0B5018CE391E00E944E09F60180839CA207
S1132F00EBA2EA860E5F1F4F9E01265F3F4FAE0184
S1132F104C5D5F4FB5018CE391E00E944E09F601D0
S1132F2080838EE48EA38CE28DA3EA860E5F1F4F0E
S1132F309E01265F3F4FAE014A5D5F4FB5018CE3B2
S1132F4091E00E944E09F6018083F8E4F8A71FA2DD
S1132F50EA860E5F1F4F9E01265F3F4FAE01485D1C
S1132F605F4FB5018CE391E00E944E09F601808326
S1132F70FAA6F0E2F9A7EA860E5F1F4F9E01265FCC
S1132F803F4FAE01465D5F4FB5018CE391E00E9477
S1132F904E09F60180839CA61BA6EA860E5F1F4F8E
S1132FA09E01265F3F4FAE01445D5F4FB5018CE348
S1132FB091E00E944E09F6018083FEA66DA6EA8682
S1132FC00E5F1F4F9E01265F3F4FAE01425D5F4F74
S1132FD0B5018CE391E00E944E09F601808384E5FB
S1132FE088AB1FA6EA860E5F1F4F9E01265F3F4FE8
S1132FF0AE01405D5F4FB5018CE391E00E944E0944
S1133000F6018083F1E3FAAB34E0832E89AAEA86E1
S11330100E5F1F4F9E01265F3F4FAE014E5C5F4F18
S1133020B5018CE391E00E944E09F601808342E3EE
S1133030342E3CAAF3E0FBABEA860E5F1F4F9E01E1
S1133040265F3F4FAE014C5C5F4FB5018CE391E0CE
S11330500E944E09F601808350E4752E7EAA83E80F
S11330608DABEA860E5F1F4F9E01265F3F4FAE0178
S11330704A5C5F4FB5018CE391E00E944E09F60172
S1133080808366E4462E48AE2FAAEA860E5F1F4F61
S11330909E01265F3F4FAE01485C5F4FB5018CE354
S11330A091E00E944E09F601808380E68AAF19AE52
S11330B0EA860E5F1F4F9E01265F3F4FAE01465CBE
S11330C05F4FB5018CE391E00E944E09F6018083C5
S11330D087E28CAF1BAEEA860E5F1F4F9E01265F10
S11330E03F4FAE01445C5F4FB5018CE391E00E9419
S11330F04E09F601808380E58EAF5DAEEA860E5FF1
S11331001F4F9E01265F3F4FAE01425C5F4FB501EA
S11331108CE391E00E944E09F601808381E52196BB
S11331208FAF21971FAEEA860E5F1F4F9E01265F69
S11331303F4FAE01405C5F4FB5018CE391E00E94CC
S11331404E09F601808382E523968FAF239786E9A3
S113315022968FAF2297EA860E5F1F4F9E01265F4D
S11331603F4FAE014E5B5F4FB5018CE391E00E948F
S11331704E09F601808386E525968FAF2597F8E002
S11331802496FFAF2497EA860E5F1F4F9E01265FA9
S11331903F4FAE014C5B5F4FB5018CE391E00E9461
S11331A04E09F601808387E527968FAF27972696E9
S11331B0FFAE2697EA860E5F1F4F9E01265F3F4FA4
S11331C0AE014A5B5F4FB5018CE391E00E944E096A
S11331D0F601808381E629968FAF299728961FAE42
S11331E02897EA860E5F1F4F9E01265F3F4FAE0170
S11331F0485B5F4FB5018CE391E00E944E09F601F4
S1133200808382E62B968FAF2B972A961FAE2A9740
S1133210EA860E5F1F4F9E01265F3F4FAE01465B5D
S11332205F4FB5018CE391E00E944E09F601808363
S113323084E62D968FAF2D972C961FAE2C97EA8699
S11332400E5F1F4F9E01265F3F4FAE01445B5F4FF1
S1133250B5018CE391E00E944E09F601808385E676
S11332602F968FAF2F972E961FAE2E97EA860E5F5E
S11332701F4F9E01265F3F4FAE01425B5F4FB5017A
S11332808CE391E00E944E09F601808386E6619604
S11332908FAF619780EA60968FAF6097EA860E5F82
S11332A01F4F9E01265F3F4FAE01405B5F4FB5014C
S11332B08CE391E00E944E09F601808363969FAEF1
S11332C063976296EFAE6297EA860E5F1F4F9E0188
S11332D0265F3F4FAE014E5A5F4FB5018CE391E03C
S11332E00E944E09F601808382E265968FAF65974E
S11332F064963FAE6497EA860E5F1F4F9E01265F79
S11333003F4FAE014C5A5F4FB5018CE391E00E94F0
S11333104E09F6018083F7E46796FFAF679784E16F
S113332066968FAF6697EA860E5F1F4F9E01265FF3
S11333303F4FAE014A5A5F4FB5018CE391E00E94C2
S11333404E09F601808389E469968FAF6997689680
S11333509FAE6897EA860E5F1F4F9E01265F3F4F20
S1133360AE01485A5F4FB5018CE391E00E944E09CB
S1133370F60180838AE46B968FAF6B976A961FAED3
S11333806A97EA860E5F1F4F9E01265F3F4FAE018C
S1133390465A5F4FB5018CE391E00E944E09F60155
S11333A080836D969FAE6D976C961FAE6C97EA8680
S11333B00E5F1F4F9E01265F3F4FAE01445A5F4F81
S11333C0B5018CE391E00E944E09F60180838AE7FF
S11333D06F968FAF6F97FAE06E96FFAF6E97EA869F
S11333E00E5F1F4F9E01265F3F4FAE01425A5F4F53
S11333F0B5018CE391E00E944E09F60180838BE7CE
S1133400A1968FAFA197A0961FAEA097EA860E5FF4
S11334101F4F9E01265F3F4FAE01405A5F4FB501DB
S11334208CE391E00E944E09F601808388E7A3961D
S11334308FAFA39781E2A2968FAFA297EA860E5F21
S11334401F4F9E01265F3F4FAE014E595F4FB5019E
S11334508CE391E00E944E09F6018083A5969FAE0D
S1133460A597A496EFAEA497EA860E5F1F4F9E0120
S1133470265F3F4FAE014C595F4FB5018CE391E09D
S11334800E944E09F601808383E2A7968FAFA79727
S113349074E3372EA6963FAEA697EA860E5F1F4FBB
S11334A09E01265F3F4FAE014A595F4FB5018CE341
S11334B091E00E944E09F601808382E4A9968FAFC1
S11334C0A997A8961FAEA897EA860E5F1F4F9E0184
S11334D0265F3F4FAE0148595F4FB5018CE391E041
S11334E00E944E09F6018083E4E4FE2EAB96FFAE03
S11334F0AB97AA969FAEAA97EA860E5F1F4F9E01CE
S1133500265F3F4FAE0146595F4FB5018CE391E012
S11335100E944E09F6018083F5E42F2EAD962FAE5E
S1133520AD9786E2AC968FAFAC97EA860E5F1F4FDD
S11335309E01265F3F4FAE0144595F4FB5018CE3B6
S113354091E00E944E09F6018083AF964FAEAF978B
S1133550A5E04A2EAE964FAEAE97EA860E5F1F4F99
S11335609E01265F3F4FAE0142595F4FB5018CE388
S113357091E00E944E09F6018083E1967FAEE197C7
S1133580E0967FAEE097EA860E5F1F4F9E01265FAE
S11335903F4FAE0140595F4FB5018CE391E00E946B
S11335A04E09F60180838EE0E3968FAFE397E296AF
S11335B05FAEE297EA860E5F1F4F9E01265F3F4F84
S11335C0AE014E585F4FB5018CE391E00E944E0965
S11335D0F6018083F0E2E596FFAFE5978AE1E49691
S11335E08FAFE497EA860E5F1F4F9E01265F3F4F21
S11335F0AE014C585F4FB5018CE391E00E944E0937
S1133600F601808383E4E7968FAFE797E6967FAE73
S1133610E697EA860E5F1F4F9E01265F3F4FAE017D
S11336204A585F4FB5018CE391E00E944E09F601C0
S11336308083E9969FAEE997E8961FAEE897EA86FD
S11336400E5F1F4F9E01265F3F4FAE0148585F4FEC
S1133650B5018CE391E00E944E09F6018083EB965C
S11336603FAEEB97F3E0EA96FFAFEA97EA860E5F88
S11336701F4F9E01265F3F4FAE0146585F4FB50175
S11336808CE391E00E944E09F601808385E3ED9678
S11336908FAFED97EC96FFAEEC97EA860E5F1F4F67
S11336A09E01265F3F4FAE0144585F4FB5018CE346
S11336B091E00E944E09F6018083EF969FAEEF974A
S11336C0EE96EFAEEE97EA860E5F1F4F9E01265FE1
S11336D03F4FAE0142585F4FB5018CE391E00E9429
S11336E04E09F6018083F1E3C058DF4FF883C058D8
S11336F0D040C158DF4F8882CF57D040EA860E5F52
S11337001F4F9E01265F3F4FAE0140585F4FB501EA
S11337108CE391E00E944E09F60180838BE4CE573E
S1133720DF4F8883C258D040CF57DF4F6882C158DB
S1133730D040EA860E5F1F4F9E01265F3F4FAE01C9
S11337404E575F4FB5018CE391E00E944E09F6019C
S113375080838CE4CC57DF4F8883C458D040CD5746
S1133760DF4F4882C358D040EA860E5F1F4F9E0148
S1133770265F3F4FAE014C575F4FB5018CE391E09C
S11337800E944E09F60180838DE4CA57DF4F888377
S1133790C658D040CB57DF4F8882C558D040EA8600
S11337A00E5F1F4F9E01265F3F4FAE014A575F4F8A
S11337B0B5018CE391E00E944E09F6018083C8575D
S11337C0DF4F9882C858D040C957DF4F1882C75876
S11337D0D040EA860E5F1F4F9E01265F3F4FAE0129
S11337E048575F4FB5018CE391E00E944E09F60102
S11337F08083C657DF4FF882CA58D040C757DF4F7F
S11338001882C958D040EA860E5F1F4F9E01265F7A
S11338103F4FAE0146575F4FB5018CE391E00E94E4
S11338204E09F6018083C457DF4F2882CC58D0401C
S1133830F0E2C557DF4FF883CB58D040EA860E5FDD
S11338401F4F9E01265F3F4FAE0144575F4FB501A6
S11338508CE391E00E944E09F6018083F7E4C2579D
S1133860DF4FF883CE58D04088E0C357DF4F8883BA
S1133870CD58D040EA860E5F1F4F9E01265F3F4F12
S1133880AE0142575F4FB5018CE391E00E944E09AF
S1133890F6018083F8E4C057DF4FF883C059D04065
S11338A088E2C157DF4F8883CF58D040EA860E5F45
S11338B01F4F9E01265F3F4FAE0140575F4FB5013A
S11338C08CE391E00E944E09F601808387E6CE5690
S11338D0DF4F8883C259D040CF56DF4F1882C15979
S11338E0D040EA860E5F1F4F9E01265F3F4FAE0118
S11338F04E565F4FB5018CE391E00E944E09F601EC
S1133900808380E7CC56DF4F8883C459D040CD569E
S1133910DF4F8882C359D040EA860E5F1F4F9E0155
S1133920265F3F4FAE014C565F4FB5018CE391E0EB
S11339300E944E09F601808381E7CA56DF4F8883CF
S1133940C659D040CB56DF4FE882C559D040EA86ED
S11339500E5F1F4F9E01265F3F4FAE014A565F4FD9
S1133960B5018CE391E00E944E09F601808382E761
S1133970C856DF4F8883C859D0408EEFC956DF4FF1
S11339808883C759D040EA860E5F1F4F9E01265F89
S11339903F4FAE0148565F4FB5018CE391E00E9462
S11339A04E09F601808386E7C656DF4F8883CA59DD
S11339B0D040C756DF4F1882C959D040EA860E5FFF
S11339C01F4F9E01265F3F4FAE0146565F4FB50124
S11339D08CE391E00E944E09F601808387E7C45688
S11339E0DF4F8883CC59D040C556DF4F1882CB595E
S11339F0D040EA860E5F1F4F9E01265F3F4FAE0107
S1133A0044565F4FB5018CE391E00E944E09F601E4
S1133A108083C256DF4F9882CE59D040C356DF4FC1
S1133A20E882CD59D040EA860E5F1F4F9E01265F83
S1133A303F4FAE0142565F4FB5018CE391E00E94C7
S1133A404E09F60180838DE0C056DF4F8883C05A4B
S1133A50D040C156DF4FE882CF59D040EA860E5F8E
S1133A601F4F9E01265F3F4FAE0140565F4FB50189
S1133A708CE391E00E944E09F6018083CE55DF4F1E
S1133A809882C25AD040CF55DF4F1882C15AD040D5
S1133A90EA860E5F1F4F9E01265F3F4FAE014E55D3
S1133AA05F4FB5018CE391E00E944E09F6018083DB
S1133AB0B0E8FB2ECC55DF4FF882C45AD040CD5528
S1133AC0DF4FE882C35AD040EA860E5F1F4F9E0143
S1133AD0265F3F4FAE014C555F4FB5018CE391E03B
S1133AE00E944E09F6018083CA55DF4FE882C65A08
S1133AF0D04088EFCB55DF4F8883C55AD040EA8643
S1133B000E5F1F4F9E01265F3F4FAE014A555F4F28
S1133B10B5018CE391E00E944E09F6018083C855FB
S1133B20DF4F9882C85AD040C955DF4FE882C75A40
S1133B30D040EA860E5F1F4F9E01265F3F4FAE01C5
S1133B4048555F4FB5018CE391E00E944E09F601A0
S1133B5080838EE8C655DF4F8883CA5AD040C75544
S1133B60DF4FE882C95AD040EA860E5F1F4F9E019C
S1133B70265F3F4FAE0146555F4FB5018CE391E0A0
S1133B800E944E09F6018083C455DF4F1882CC5A37
S1133B90D040C555DF4FE882CB5AD040EA860E5F4D
S1133BA01F4F9E01265F3F4FAE0144555F4FB50145
S1133BB08CE391E00E944E09F6018083C255DF4FE9
S1133BC09882CE5AD040C355DF4F1882CD5AD04088
S1133BD0EA860E5F1F4F9E01265F3F4FAE0142559E
S1133BE05F4FB5018CE391E00E944E09F60180839A
S1133BF0C055DF4FF882C05BD040C155DF4F1882FB
S1133C00CF5AD040EA860E5F1F4F9E01265F3F4F7A
S1133C10AE0140555F4FB5018CE391E00E944E091F
S1133C20F601808342E050E060E070E088E891E0D3
S1133C300E94FF08FAE0CE54DF4FF883C25BD04005
S1133C40CF54DF4F8882C15BD040EA860E5F1F4F9E
S1133C509E01265F3F4FAE014E545F4FB5018CE38A
S1133C6091E00E944E09F601808384E8F82ECD5439
S1133C70DF4FF882C35BD040EA86065A11099E01E1
S1133C80265F3F4FAE014D545F4FB5018CE391E089
S1133C900E949309F60180838B85CB54DF4FF88211
S1133CA0C55BD0408F7ECC54DF4F8883C45BD0404B
S1133CB0EA8607551F4F9E01265F3F4FAE014B54C6
S1133CC05F4FB5018CE391E00E944E09F6018083B9
S1133CD08BE0C954DF4F8883C75BD040CA54DF4FA1
S1133CE0E882C65BD040EA860E5F1F4F9E01265FC6
S1133CF03F4FAE0149545F4FB5018CE391E00E9400
S1133D004E09F6018083C6010E94AB0CF601608760
S1133D1071878287938742E050E060E070E088E832
S1133D2091E00E94FF08C754DF4FE882C95BD0408E
S1133D3088EEC854DF4F8883C85BD040EA860E5FA4
S1133D401F4F9E01265F3F4FAE0147545F4FB501A1
S1133D508CE391E00E944E09F601808340855185F1
S1133D60628573854032FEE45F076105710588F55D
S1133D7042E050E060E070E088E891E00E94FF08D3
S1133D80FF24F394C554DF4FF882CB5BD040C65474
S1133D90DF4FF882CA5BD040FA868E0106541F4F6B
S1133DA09E01265F3F4FAE0145545F4FB5018CE342
S1133DB091E00E944E09F601808360E4C6010E94EE
S1133DC0791381110AC083E00C9481154CE00C94A2
S1133DD08016C6010E94A70ACBCF42E050E060E003
S1133DE070E088E891E00E94FF08FE8682E08D87FB
S1133DF0FA860D5A11099E01265F3F4FAE01425FBC
S1133E005F4FB5018CE391E00E944E09F601808377
S1133E1060E0C6010E947913811103C084E00C9410
S1133E208115FC8688EE8B87FA86025011099E0163
S1133E30265F3F4FAE01445F5F4FB5018CE391E0D5
S1133E400E944E09F601808380E00C9481154F9204
S1133E505F926F927F929F92AF92BF92CF92DF92C6
S1133E60EF92FF920F931F93CF93DF93CDB7DEB7FB
S1133E70C457D1090FB6F894DEBF0FBECDBF7C0185
S1133E80662E742E542E56945A94BB24B394B8A21E
S1133E90B9826C012FEFC21AD20A8E01095E1F4F3C
S1133EA09E012F5F3F4FAE01405E5F4FB6018CE332
S1133EB091E00E949309D7018C938F8984FB992701
S1133EC090F99F8B83FB992790F9998F82FB99270F
S1133ED090F9988F86FB992790F99A8F881F8827E5
S1133EE0881F8B8FAE014F5F5F4FB801C7010E94DF
S1133EF0E311611032C1BEE07B1609F4D8C1B715D5
S1133F0008F00CC2F0E17F1609F4E6C122E1721256
S1133F1027C187E5AB968FAFAB9780E5AA968FAFA5
S1133F20AA97BC8E5E01BCE1AB0EB11C8E01075991
S1133F301F4F9501AE0146595F4FB6018CE391E0E6
S1133F400E944E09F701808386E5A6968FAFA69757
S1133F5088E0A5968FAFA597662463946C8E8E0136
S1133F600C591F4F9501AE014B595F4FB6018CE3BD
S1133F7091E00E944E09D7018C9380E5A8968FAFFB
S1133F80A897A7965FAEA7976C8E0E5F1F4F9501FB
S1133F90AE0149595F4FB6018CE391E00E944E098E
S1133FA0F7018083A72DB0E020E03FE24AE350E030
S1133FB00E946E242B013C01F4EF4F0EF1E05F1ED2
S1133FC0611C711CC301B20128EE33E040E050E0F3
S1133FD00E944624E5962CAF3DAF4EAF5FAFE59708
S1133FE0C301B20120ED37E040E050E00E944624D6
S1133FF029013A012F85388949895A89A8EEB3E005
S11340000E946E24640D751D861D971DE5962CADCA
S11340103DAD4EAD5FADE5970E94462421153105B7
S113402009F094C180E090E021E5A9962FAFA9970B
S11340309F8F8E8F82E08C8F8E01025E1F4F9501C1
S1134040AE0148595F4FB6018CE391E00E944E09DE
S1134050D7018C932B853C854D855E85A8EEB3E016
S11340600E946E24640D751D861D971DE5962CAD6A
S11340703DAD4EAD5FADE5970E9446242130B1E0E1
S11340803B0708F045C1215086E4A4968FAFA4975E
S1134090A3962FAFA39781E08C8F8E010E591F4FEB
S11340A09501AE014D595F4FB6018CE391E00E943A
S11340B04E09F7018083F701408551856285738538
S11340C04032FEE45F076105710508F023C142E058
S11340D050E060E070E088E891E00E94FF08BB24B3
S11340E0B394BBA2B9A28E010E5D1F4F9E012F5D3A
S11340F03F4FAE014D5D5F4FB6018CE391E00E94EE
S11341009309D7018C93AAA0BCA282E08AA3B9A286
S11341109E012F5D3F4FAE014C5D5F4FB6018CE3B6
S113412091E00E944E09F701808360E0C7010E947C
S11341307913BEA2ADA2B9A20D5F1F4F9E012F5DE0
S11341403F4FAE014A5D5F4FB6018CE391E00E94A0
S11341504E09D7018C9381E004C0F1E06F16C1F0E1
S113416080E0CC58DF4F0FB6F894DEBF0FBECDBF52
S1134170DF91CF911F910F91FF90EF90DF90CF903F
S1134180BF90AF909F907F906F905F904F900895F5
S11341902AE0721609F4B7C2271508F0F7C09CE0AC
S11341A0791609F429C2AEE07A12DACF88E48BA733
S11341B08AA76C8E5E01FCE1AF0EB11C8E01065D18
S11341C01F4F9501AE01455D5F4FB6018CE391E051
S11341D00E944E09D7018C9387E48DA788E08CA7B1
S11341E06C8E0E5F1F4F9501AE01435D5F4FB601AC
S11341F08CE391E00E944E09F701808382E38FA74C
S113420083E08EA76C8E0E5F1F4F9501AE01415D5A
S11342105F4FB6018CE391E00E944E09D7018C9365
S113422060E3962E99AA87E088AB6C8E0E5F1F4FD1
S11342309501AE014F5C5F4FB6018CE391E00E94A3
S11342404E09F701808344244A944BAA6AAA6C8ECF
S11342500E5F1F4F9501AE014D5C5F4FB6018CE3BD
S113426091E00E944E09D7018C939DAA80E28CAB09
S11342706C8E0E5F1F4F9501AE014B5C5F4FB60114
S11342808CE391E00E944E09F70180834FAA1EAA95
S11342906C8E0E5F1F4F9501AE01495C5F4FB601F6
S11342A08CE391E00E944E09D7018C930DC187E500
S11342B0AF968FAFAF9780E3AE968FAFAE97BC8EBD
S11342C05E01BCE1AB0EB11C8E0103591F4F950179
S11342D0AE0142595F4F31CE87E5AD968FAFAD97B2
S11342E080E4AC968FAFAC97BC8E5E01FCE1AF0E60
S11342F0B11C8E0105591F4F9501AE0144595F4F02
S1134300B6018CE391E00E944E09D7018C931CCE38
S11343102FEFBACEC7010E94A70AD9CEECE07E12D5
S11343201FCF87E5E1968FAFE19788E1E0968FAFE5
S1134330E097BC8E5E018CE1A80EB11C8E01015980
S11343401F4F9501AE0140595F4FDACF215031091B
S1134350C901A0E0B0E0AC01BD01442720E030E099
S1134360452B462B472B79F0B695A79597958795BE
S11343702F5F3F4FAC01BD014427452B462B472BF4
S113438099F7322F2227822B932B4ECE88E0781276
S1134390E7CE88E466968FAF669780E165968FAF27
S11343A065976C8E5E01BCE1AB0EB11C8E010C5A9C
S11343B01F4F9501AE014B5A5F4FB6018CE391E05C
S11343C00E944E09F701808387E468968FAF68974F
S11343D067967FAE67976C8E0E5F1F4F9501AE0197
S11343E0495A5F4FB6018CE391E00E944E09D70110
S11343F08C9382E36A968FAF6A9782E069968FAF57
S113440069976C8E0E5F1F4F9501AE01475A5F4F3F
S1134410B6018CE391E00E944E09F7018083A0E38A
S11344204A2E6C964FAE6C978CE06B968FAF6B9761
S11344306C8E0E5F1F4F9501AE01455A5F4FB6015A
S11344408CE391E00E944E09D7018C9399249A94AD
S11344506E969FAE6E976D966FAE6D976C8E0E5F77
S11344601F4F9501AE01435A5F4FB6018CE391E0B3
S11344700E944E09F7018083A0964FAEA0976F96D5
S11344804FAE6F976C8E0E5F1F4F9501AE01415A70
S11344905F4FB6018CE391E00E944E09D7018C93E3
S11344A0A2969FAEA297A1961FAEA1976C8E0E5FA7
S11344B01F4F9501AE014F595F4FB6018CE391E058
S11344C00E944E09F701808380E789A758A681E0FE
S11344D08C8F8E01085D1F4F9501AE01475D5F4FC4
S11344E0B6018CE391E00E944E09F7018083A72D69
S11344F0B0E020E03FE24AE350E00E946E242B014A
S11345003C01F4EF4F0EF1E05F1E611C711C2B891E
S11345103C894D895E89A8EEB3E00E946E24E5963D
S11345206CAF7DAF8EAF9FAFE597C301B20120EDB5
S113453037E040E050E00E944624E5968CAD9DAD06
S1134540AEADBFADE597820F931FA41FB51FE596CF
S11345508CAF9DAFAEAFBFAFE597C301B20128EEFC
S113456033E040E050E00E944624E5966CAD7DAD1A
S11345708EAD9FADE5970E944624C9016A8D6623DE
S113458021F08F819885820F931F0097B9F480E002
S113459090E021E72FA39D8F8C8F82E08E8F850181
S11345A09E01225E3F4FAE01495D5F4FB6018CE331
S11345B091E00E944E09D7018C937DCD0197A0E034
S11345C0B0E0AC01BD01442720E030E0452B462B90
S11345D0472B79F0B695A795979587952F5F3F4F11
S11345E0AC01BD014427452B462B472B99F7322FAD
S11345F02227822B932BCDCF88E489AF88E388AF21
S11346006C8E5E01BCE1AB0EB11C8E01085C1F4FC9
S11346109501AE01475C5F4FB6018CE391E00E94C7
S11346204E09F701808387E48BAF78E0972E9AAE2A
S11346306C8E0E5F1F4F9501AE01455C5F4FB60156
S11346408CE391E00E944E09D7018C9382E38DAFF5
S113465083E08CAF6C8E0E5F1F4F9501AE01435CFF
S11346605F4FB6018CE391E00E944E09F70180830D
S1134670E0E34E2E4FAE9EAE6C8E0E5F1F4F950143
S1134680AE01415C5F4FB6018CE391E00E944E099C
S1134690D7018C9399249A9422969FAE22972196BF
S11346A06FAE21976C8E0E5F1F4F9501AE014F5B6D
S11346B05F4FB6018CE391E00E944E09F7018083BD
S11346C024964FAE249780E223968FAF23976C8E67
S11346D00E5F1F4F9501AE014D5B5F4FB6018CE33A
S11346E091E00E944E09D7018C9326969FAE26979F
S11346F025961FAE25976C8E0E5F1F4F9501AE0158
S11347004B5B5F4FDACE88E428968FAF289788E218
S113471027968FAF27976C8E5E01FCE1AF0EB11C1C
S11347208E010A5B1F4F9501AE01495B5F4FB601D5
S11347308CE391E00E944E09D7018C9387E42A967A
S11347408FAF2A9788E029968FAF29976C8E0E5FDA
S11347501F4F9501AE01475B5F4FB6018CE391E0BB
S11347600E944E09F701808382E32C968FAF2C9729
S113477083E02B968FAF2B976C8E0E5F1F4F9501A6
S1134780AE01455B5F4FB6018CE391E00E944E0998
S1134790D7018C93F0E34F2E2E964FAE2E9789E0DF
S11347A02D968FAF2D976C8E0E5F1F4F9501AE0126
S11347B0435B5F4FB6018CE391E00E944E09F70121
S11347C0808399249A9460969FAE60972F966FAEDB
S11347D02F976C8E0E5F1F4F9501AE01415B5F4FAB
S11347E0B6018CE391E00E944E09D7018C93629646
S11347F04FAE629780E261968FAF61976C8E0E5FC9
S11348001F4F9501AE014F5A5F4FB6018CE391E003
S11348100E944E09F701808364969FAE6497639665
S11348201FAE63976C8E0E5F1F4F9501AE014D5AFC
S11348305F4F35CDFC016083F894A89584B7877FDA
S113484084BFE0E6F0E08081886180831082789400
S11348500895F894A89584B7877F84BFE0E6F0E0D4
S1134860808188618083108278940895DC01F894B3
S1134870A89594B7977F94BFE0E6F0E090819861A3
S113488090838C918860808378940895A1E21A2E95
S1134890AA1BBB1BFD010DC0AA1FBB1FEE1FFF1FE0
S11348A0A217B307E407F50720F0A21BB30BE40B30
S11348B0F50B661F771F881F991F1A9469F7609577
S11348C07095809590959B01AC01BD01CF01089531
S11348D0EE0FFF1F0590F491E02D09940E948124AE
S11348E0A59F900DB49F900DA49F800D911D112440
S11348F00895B7FF0C946E240E946E24821B930BC0
S11349000895A29FB001B39FC001A39F700D811DA4
S11349101124911DB29F700D811D1124911D0895C4
S1134920F999FECF92BD81BDF89A992780B5089573
S1134930262FF999FECF92BD81BDF89A019700B454
S1134940021639F01FBA20BD0FB6F894FA9AF99AF4
S10B49500FBE0895F894FFCF97
S9030107F4
