:100000000C940D010C9435010C9435010C943501C0
:100010000C9435010C9435010C9435010C94350188
:100020000C9435010C9435010C94E1080C9453099F
:100030000C9435010C9435010C9435010C94350168
:100040000C9435010C9435010C9435010C94350158
:100050000C9435010C9435010C9435010C94900EE0
:100060000C9435010C94A90B0C94830B0C94350162
:100070000C9435010C9435010C9435010C94350128
:100080000C9435010C9435010C9435010C94350118
:100090000C94410F0C9435010C9435010C943501EE
:1000A0000C9435010C9435010C943501B117B1173E
:1000B000B817CE17D817ED170518F30BF60BE50B8D
:1000C000E90BEF0B170C170C170CFA0BFE0B020CBD
:1000D000080C0C0C170C120CB40DB90DBE0DC80D8C
:1000E000D20D1C0E1C0E1C0EDC0DE60DF00DFA0DD3
:1000F000070E1C0E0F0EA51058115811581158114B
:100100005811B010B610BB10C110E61003111E112B
:100110003B11080B00020202010009040000010269
:10012000020000052400100105240101010424023D
:10013000060524060001070581031000400904019B
:1001400000020A00000007050202400000070583C4
:10015000024000000403090412010002EF02014002
:100160004123378000010102030141726475696E09
:100170006F204C4C430041726475696E6F204D696D
:1001800063726F00070605040100080A0B0C0D09D5
:1001900000000000240027002A002D00300000008D
:1001A0000000250028002B002E0031000000000078
:1001B0002300260029002C002F000404040404035B
:1001C00004050202020204030202020206060606F7
:1001D000060604040202020404040802011040801E
:1001E000401020408040800802040180402010021E
:1001F00001108010204040200000000200090F0084
:1002000000030401000C00000000000000000000DA
:1002100000000000000000000C1A11241FBECFEFE8
:10022000DAE0DEBFCDBF24E0AAEEB1E001C01D924E
:10023000A730B207E1F711E0A0E0B1E0ECE7F5E3A9
:1002400002C005900D92AA3EB107D9F711E0CDE0AA
:10025000D1E004C02197FE010E94AE1ACC30D10734
:10026000C9F70E9446150C94BC1A0C940000BC01FE
:10027000009791F0FC0101900020E9F73197AF0160
:10028000481B590BE0916803F09169030280F381E8
:10029000E02D88E693E0099480E090E00895CF9304
:1002A000DF930E943701EC0189E491E00E9437015D
:1002B0008C0F9D1FDF91CF910895EF92FF920F93C6
:1002C0001F93CF93DF93CDB7DEB76B970FB6F8943C
:1002D000DEBF0FBECDBF7C01162F062F0695015045
:1002E000CE0147960E944B13BE016F5F7F4FCE0138
:1002F00047960E946913E114F104E9F51E3069F094
:1003000028F41C3009F0D0C068E10AC0103139F07F
:10031000123109F0C9C060E503C060E301C060E4C8
:1003200087E50E943C1268E086E50E943C12602F3F
:1003300080E50E943C126F85788989899A89412FCE
:100340000E94DA0ECB010E941F0FBC0181E50E94C2
:1003500049146B857C858D859E85412F0E94DA0E20
:10036000613021E0720710F4615001C06FEF86E444
:100370000E943C1278C0EA94EF2809F095C01A3028
:1003800069F1C8F4183009F08FC060E188E40E9478
:100390003C1268E087E40E943C1262E082E30E9423
:1003A0003C126CE080E30E943C1261E08FEF0E94FF
:1003B0003C1260E336C01C30F9F01E3009F074C006
:1003C00068E488E40E943C1268E087E40E943C12E2
:1003D00063E082E30E943C1267E01BC068E288E4AD
:1003E0000E943C1268E087E40E943C1263E082E3D2
:1003F0000E943C1269E00DC068E388E40E943C1250
:1004000068E087E40E943C1263E082E30E943C12B1
:1004100068E080E30E943C1261E08FEF0E943C1292
:1004200060E280E30E943C1260E08FEF0E943C1289
:10043000602F80E70E943C126B897C898D899E89A0
:10044000412F0E94DA0EAB012A8D222329F02F8141
:100450003885A901460F571FCA010E941F0FBC0112
:1004600081E70E9449146091CC037091CD03809183
:10047000CE039091CF0360322EE47207810591057F
:1004800010F00E947D1481E00E94F312182F62E0A8
:1004900081E00E943C1280E00E941413612F81E0F1
:1004A0000E943C1281E001C080E06B960FB6F89488
:1004B000DEBF0FBECDBFDF91CF911F910F91FF9097
:1004C000EF900895AF92BF92DF92EF92FF920F9359
:1004D0001F93CF93DF93CDB7DEB7A1970FB6F894F4
:1004E000DEBF0FBECDBF8091C50391E09093A70200
:1004F0008093C9021092A8021092CA020E94DF11D2
:10050000811146C389E80E94F312682F616089E86F
:100510000E943C1260E088E80E943C1261E080E8A2
:100520000E943C1261E08FEF0E943C1260E080E08C
:100530000E943C1281E90E94F3128093CB0361E098
:1005400080E00E943C1260E08FEF0E943C1260E06D
:1005500080E80E943C1280E60E94F312682F6261DC
:1005600080E60E943C1260E270E084E40E9449143C
:100570006FEF81E00E943C1261E080E80E943C1233
:1005800061E08FEF0E943C1260E080E00E943C122C
:1005900066E08FEF0E943C1283E80E94F312682FFE
:1005A000646083E80E943C1267E08FEF0E943C1277
:1005B00061E081E80E943C1261E080E80E943C1208
:1005C0006BE684E90E943C1260E083E80E943C12E2
:1005D00061E070E080E090E00E944A0E0E94840E8C
:1005E0007093CA036093C90383E80E94F3128111D8
:1005F0001AC08091C6039091C703892BA9F30E946A
:10060000840E2091C9033091CA03621B730B809141
:10061000C6039091C7038617970730F78CE491E0E3
:100620000E944F01B5C261E083E80E943C1282E95A
:100630000E94F312282F2F77E22EF82EFF1CFF24A2
:10064000FF1C60E081E80E943C1266E08FEF0E9490
:100650003C1283E80E94F312682F6B7F83E80E94AC
:100660003C1261E08FEF0E943C1261E080E00E944A
:100670003C1260E08FEF0E943C1260E080E80E9434
:100680003C128091C50391E09093A7028093C90228
:100690001092A8021092CA0260EB88EB93E00E94CD
:1006A000A60C0E94DF118093C40366E08091C5030D
:1006B0000E945D128E01095E1F4F580136E0D32E55
:1006C000D00EDA1441F088EB93E00E945A0CF50149
:1006D00081935F01F6CF61E08FEF0E943C1260E0F2
:1006E0008FE40E943C126CE28EE40E943C1260E0B7
:1006F0008FEF0E943C1264EB86EB0E943C12F110DB
:1007000002C060E001C06CE090E080E041E050E0B9
:10071000282F269526952695782F7770F801E20FD9
:10072000F11D861710F09E110AC09A0101C0220F18
:100730007A95EAF7209530812323208309C0208110
:1007400030E002C0359527957A95E2F720FD9F5F4E
:100750008F5F8033E9F68091C50391E09093A70203
:100760008093C9021092A8021092CA0260EB88EB33
:1007700093E00E94A60CD01621F0F80161918F0140
:10078000F6CF0E94DF118093C40361E070E080E047
:1007900090E00E944A0E61E08FEF0E943C1260E000
:1007A00080E00E943C1260E08FEF0E943C1260E00B
:1007B00089E00E943C1260E080E10E943C1260E00F
:1007C00081E10E943C1261E084E20E943C126FEFE2
:1007D00085E20E943C1260E085E70E943C1261E0E5
:1007E0008FEF0E943C126CE28EE40E943C1260E0AB
:1007F00088E40E943C1260E280E30E943C1260E0C8
:100800008FEF0E943C1269E080E30E943C1260E09E
:1008100084E50E943C1264E081E30E943C1263E0A4
:1008200082E30E943C1263E880E40E943C1265E28D
:1008300086E40E943C1260E080E60E943C1260E088
:1008400087E20E943C1266E080E50E943C1260E074
:1008500081E50E943C1266E982E50E943C1268E054
:1008600086E50E943C1260E387E50E943C1260E04E
:1008700081E60E943C1260E082E60E943C1260E049
:1008800084E60E943C1260E085E60E943C1260EA29
:1008900086E60E943C1261E08FEF0E943C1262E308
:1008A00082E20E943C1264E187E40E943C126FEFF6
:1008B00089E40E943C1260E08AE40E943C1260E0FD
:1008C0008FEF0E943C126AE08AE70E943C1260E0CF
:1008D0008BE70E943C1261E288E70E943C1261E0D3
:1008E0008FEF0E943C1264E383E20E943C1260E0BE
:1008F00082E40E943C126FEF84E40E943C1266E2A4
:1009000085E40E943C1265E086E40E943C1260E4AB
:1009100080E40E943C1266E08EE00E943C126AE194
:1009200080E20E943C1260E483E40E943C1260E09A
:100930008FEF0E943C1263E084E30E943C1264E467
:1009400085E30E943C1261E08FEF0E943C1264E05C
:1009500081E30E943C1269E08BE40E943C1265E056
:100960008CE40E943C1264E08DE40E943C1260E042
:100970008FEF0E943C1260E084E40E943C1260E22F
:1009800085E40E943C1268E087E40E943C1268E221
:1009900088E40E943C1260E087E60E943C1264E01A
:1009A00080E70E943C1261E081E70E943C126EEFFA
:1009B00082E70E943C1260E086E70E943C1260E001
:1009C00087E70E943C1261E08FEF0E943C1261E0D9
:1009D0008DE00E943C1260E08FEF0E943C1261E0CB
:1009E00080E80E943C1268EF81E00E943C1261E0C6
:1009F0008FEF0E943C1261E08EE80E943C1261E0A1
:100A000080E00E943C1260E08FEF0E943C1260E0A8
:100A100080E80E943C1261E070E080E090E00E947B
:100A20004A0E64E08AE00E943C1284E80E94F312BD
:100A3000682F6F7E84E80E943C1261E08BE00E9488
:100A40003C12CE014D960E944B13BE016F5F7F4F4B
:100A5000CE014D960E9469138D8D882349F08B85B8
:100A60009C85AD85BE858C57924FAF4FBF4F04C05C
:100A700086E39BE0A0E0B0E02F8D222369F04B8558
:100A80005C856D857E854E545D4F6F4F7F4F440F63
:100A9000551F661F771F0BC02E8D222361F04B85DB
:100AA0005C856D857E854C565D4F6F4F7F4F840F03
:100AB000951FA61FB71F28A1222361F04F855889D3
:100AC00069897A894C565D4F6F4F7F4F840F951F10
:100AD000A61FB71F29A1222361F04B895C896D896C
:100AE0007E894A5D5D4F6F4F7F4F840F951FA61F14
:100AF000B71F8093CC039093CD03A093CE03B09304
:100B0000CF0361E070E080E090E00E944A0E68EE62
:100B100081E00E943C126091CC037091CD038091E2
:100B2000CE039091CF036032FEE47F0781059105EB
:100B300010F00E947D1461E070E080E090E00E947F
:100B40004A0E61E081E00E943C1280E40E9414138E
:100B5000182F811103C082E791E012C061E070E0BC
:100B600080E090E00E944A0E62E081E00E943C1228
:100B700080E00E941413182F811105C08EEA91E0C5
:100B80000E944F0106C068EE81E00E943C1201C045
:100B900010E0812FA1960FB6F894DEBF0FBECDBF37
:100BA000DF91CF911F910F91FF90EF90DF90BF9059
:100BB000AF900895FC018091EB01811103C08FEF8C
:100BC0009FEF08959FB7F89482E08093E900209109
:100BD000F20030E01216130614F421E030E0211583
:100BE000310559F0289A84E68093EA018091F1005A
:100BF00080838091F200882319F09FBFC901089576
:100C00008BE68093E800F9CF4091EE015091EF011F
:100C10002091EC013091ED0142175307B4F490910B
:100C2000E8009570E1F39091E80092FD19C080937F
:100C3000F1008091EE019091EF0101968F73992759
:100C4000892B19F48EEF8093E8008091EE0190914A
:100C5000EF0101969093EF018093EE0181E00895FA
:100C600080E00895CF92DF92EF92FF920F931F934F
:100C7000CF93DF931F92CDB7DEB7182F062FE42E48
:100C8000862F880F8E5F99830E94040683E00E945E
:100C90000406F12EC12E9981D92E8C2D8F19801723
:100CA00098F4F601E7FE02C0849101C080810E94A1
:100CB0000406182F80E00E9404068123FFEFCF1A5C
:100CC000DF0A8111EACF01C081E00F90DF91CF915F
:100CD0001F910F91FF90EF90DF90CF900895DF92DA
:100CE000EF92FF920F931F93CF93DF93D82E8A0139
:100CF0007B01E40EF51EEB01CE15DF0571F0D7FE8A
:100D000003C0FE01849101C088810E9404062196DF
:100D10008111F2CF8FEF9FEF01C0C801DF91CF911A
:100D20001F910F91FF90EF90DF900895615030F088
:100D30002091F100FC0120830196F8CF289A84E6E7
:100D40008093EA010895CF92DF92EF92FF920F9382
:100D50001F93CF93DF936C017A018B01C0E0D0E049
:100D6000CE15DF0589F0D8016D918D01D601ED9189
:100D7000FC910190F081E02DC6010995892B11F4B9
:100D80007E0102C02196ECCFC701DF91CF911F9168
:100D90000F91FF90EF90DF90CF900895FC01538D5D
:100DA000448D252F30E0842F90E0821B930B541745
:100DB00010F0CF96089501970895FC01918D828DD2
:100DC000981761F0828DDF01A80FB11D5D968C919F
:100DD000928D9F5F9F73928F90E008958FEF9FEFAA
:100DE0000895FC01918D828D981731F0828DE80F66
:100DF000F11D858D90E008958FEF9FEF0895FC0120
:100E0000918D228D892F90E0805C9F4F821B9109EC
:100E10008F73992708958BEC92E00E94FF0621E0E2
:100E2000892B09F420E0822F0895FC01848DDF01D5
:100E3000A80FB11DA35ABF4F2C91848D90E001964D
:100E40008F739927848FA689B7892C93A089B1893C
:100E50008C9180648C93938D848D981306C0028846
:100E6000F389E02D80818F7D80830895EF92FF923A
:100E70000F931F93CF93DF93EC0181E0888F9B8DBD
:100E80008C8D981305C0E889F989808185FD24C07F
:100E9000F62E0B8D10E00F5F1F4F0F731127E02E02
:100EA0008C8DE8120CC00FB607FCFACFE889F989DF
:100EB000808185FFF5CFCE010E941507F1CF8B8D84
:100EC000FE01E80FF11DE35AFF4FF0820B8FEA8914
:100ED000FB898081806207C0EE89FF896083E88991
:100EE000F98980818064808381E090E0DF91CF91F7
:100EF0001F910F91FF90EF900895CF93DF93EC0136
:100F0000888D8823C9F0EA89FB89808185FD05C029
:100F1000A889B9898C9186FD0FC00FB607FCF5CF63
:100F2000808185FFF2CFA889B9898C9185FFEDCFAB
:100F3000CE010E941507E7CFDF91CF91089580E0A1
:100F400090E0892B29F00E940B0781110C9400007E
:100F50000895CF93DF931F92CDB7DEB76983DC018D
:100F6000ED91FC910280F381E02D41E050E0BE0163
:100F70006F5F7F4F09950F90DF91CF91089583E0C8
:100F80008093E9008091F200882319F08AE380932E
:100F9000E8000895FC018485958597FD0BC09FB7F7
:100FA000F89482E08093E9008091F2009FBF90E086
:100FB000019608959FB7F89482E08093E9008091AC
:100FC000F2009FBF90E008950F931F93CF93DF939C
:100FD0001F92CDB7DEB782E0898342E450E062E140
:100FE00071E080E80E946F060E943215DC011296C3
:100FF0000D911C9113970115110569F0D801ED9120
:10100000FC910280F381E02DBE016F5F7F4FC8012C
:10101000099597FF07C089810F90DF91CF911F91AC
:101020000F910895F80100851185E5CF8F929F9269
:10103000AF92BF92CF92DF92EF92FF920F931F93E6
:10104000CF93DF935C016B017A0180910B018823C0
:1010500009F45BC08091EB01882309F456C08091AC
:10106000F20180FF05C08091E00082608093E00083
:10107000E70110E00AEF83E0882E9AE3992E20978B
:10108000D9F10E94211581110AC0015009F43DC017
:1010900061E070E080E090E00E944A0EF0CF282FDF
:1010A00030E0C217D3070CF48C2F4FB7F89480921E
:1010B000E9009091E80095FF1DC0282F30E0C21B89
:1010C000D30BF601982F915020F081918093F1007D
:1010D000FACFC20ED31E112319F09092E80009C076
:1010E0008091E80085FD06C09092E80011E020970D
:1010F00009F010E04FBFC3CF1111C3CF5D9A84E652
:101100008093F0011E141F0444F081E090E0F5018B
:101110009383828380E090E001C0C701DF91CF918B
:101120001F910F91FF90EF90DF90CF90BF90AF9005
:101130009F908F9008950E94211590E00895CF937D
:10114000DF931F92CDB7DEB7FC018485958597FDAF
:1011500005C02FEF3FEF358724870BC0CE010196E6
:101160000E94DA05019719F4898190E002C08FEF9F
:101170009FEF0F90DF91CF9108950F931F93CF931F
:10118000DF931F92CDB7DEB78C01FC018485958576
:1011900097FF0EC0CE0101960E94DA05019719F45F
:1011A000298130E002C02FEF3FEFF8013587248717
:1011B000F801848595850F90DF91CF911F910F9154
:1011C00008951F920F920FB60F9211248F939F9341
:1011D0008091E1009091E100937F9093E10083FF83
:1011E0000FC01092E90091E09093EB001092EC0098
:1011F00092E39093ED001092EB0198E09093F00051
:1012000082FF20C093E09093E9009091F20099232F
:1012100019F09AE39093E8009091F001992339F046
:101220009091F00191509093F001992389F1909160
:10123000EA01992339F09091EA0191509093EA01E3
:10124000992341F184FF10C08091E2008E7E81607D
:101250008093E2008091E1008F7E8093E100809195
:10126000F2018E7E806111C080FF16C08091E20085
:101270008E7E80618093E2008091E1008E7E80937B
:10128000E1008091F2018E7E81608093F20104C0C2
:101290005D98CDCF2898D6CF9F918F910F900FBE9C
:1012A0000F901F9018951F920F920FB60F92112456
:1012B000CF92DF92EF92FF920F931F932F933F9362
:1012C0004F935F936F937F938F939F93AF93BF934E
:1012D000EF93FF93CF93DF93CDB7DEB76C97DEBF6D
:1012E000CDBF1092E9008091E80083FFEDC168E076
:1012F000CE0145960E94960682EF8093E8008D8984
:1013000087FF05C09091E80090FFFCCF03C09EEFDF
:101310009093E800982F907609F0C6C09E892F8997
:10132000188D91110CC0803829F48091F3018093BD
:10133000F10002C01092F1001092F10048C1422F5A
:1013400050E0512B913051F4811141C14130510590
:1013500009F03DC18091F3018D7F0BC0933061F4A2
:10136000811135C14130510509F031C18091F3013E
:1013700082608093F3012BC1953041F48091E800A5
:1013800080FFFCCF20682093E30021C1963009F054
:101390005FC0EB8CFC8C1092E9001092EF01109270
:1013A000EE01123091F51092ED011092EC010E94C5
:1013B000E40799E0BE016F5F7F4FDB01E92F1D92CB
:1013C000EA95E9F799831A8391E09E8390EA9887DA
:1013D0009AEF99872091EE013091EF01275F3F4FFF
:1013E0003C832B838D831092E9001092EF011092C1
:1013F000EE01F092ED01E092EC0149E050E080E076
:101400000E946F060E94E407E2C0F092ED01E092B4
:10141000EC010E943215DC011296ED90FC901397BE
:10142000E114F10409F4C0C0D701ED91FC910480EE
:10143000F581E02DBE016B5E7F4FC70109950097D6
:1014400019F00CF0C4C0C7C0F701E084F184E8CF04
:10145000973009F4C0C0983021F481E08093F10006
:10146000B6C0993009F0B3C0837009F0B4C0EDE0A4
:10147000F1E081E021E036E39081992361F08093EF
:10148000E9002093EB0091919093EC003093ED00F4
:101490008F5F873089F78EE78093EA001092EA0029
:1014A0008F898093EB0193C08B8D9C8D1092E90006
:1014B0001092EF011092EE019093ED018093EC01F8
:1014C000898D811156C08E899D89913A59F4813256
:1014D00009F081C047E050E064E071E080E00E94E4
:1014E0006F0675C0913209F076C0833289F4888D19
:1014F00090E0982F88272F89822BA0E0B0E080937E
:10150000000190930101A0930201B09303015FC019
:10151000803269F48091E80082FFFCCF67E084E0CC
:1015200091E00E9496068BEF8093E80006C082321D
:1015300009F04DC08F8980930B018091F1018823C0
:1015400019F0EEEFFAE002C0E0E0F8E0809104016B
:1015500090910501A0910601B0910701803B944054
:10156000A105B10509F07BC080910B0180FF93C0FC
:1015700076C00E943215DC0112960D911C911397D2
:101580000115110541F1D801ED91FC910190F08117
:10159000E02DBE016B5E7F4FC8010995811117C018
:1015A000F80100851185ECCF113009F44EC01330DD
:1015B00091F48F89882309F445C0823081F440E892
:1015C0006DE086E791E00E943206882321F08EEFDD
:1015D0008093E80079C081E28093EB0075C0813090
:1015E00029F440E86BE08AE691E0EDCF833099F78B
:1015F0000E943215DC011296ED90FC9013978E013B
:101600000F5F1F4F6801E114F10479F0D701ED91EC
:10161000FC910680F781E02DB801C7010995080FFC
:10162000111DF701E084F184EECFD8011C92F60180
:1016300001900020E9F73197BF016C197D0940E066
:10164000C601C1CF64E571E002C068E571E06115D3
:10165000710509F2FB01449150E080E840CF0FB6DC
:10166000F894A89580916000886180936000109242
:1016700060000FBEA895EE3F2AE0F20739F0809196
:10168000FE0A9091FF0A91838083A1CF1092FF0AF6
:101690001092FE0A9CCFEE3F8AE0F80731F080817D
:1016A00091819093FF0A8093FE0A87E797E79183E1
:1016B00080839BE088E10FB6F894A8958093600042
:1016C0000FBE9093600083CF6C960FB6F894DEBF88
:1016D0000FBECDBFDF91CF91FF91EF91BF91AF9141
:1016E0009F918F917F916F915F914F913F912F913A
:1016F0001F910F91FF90EF90DF90CF900F900FBE52
:101700000F901F9018951F920F920FB60F921124F1
:101710002F933F934F935F936F937F938F939F93F9
:10172000AF93BF93EF93FF938BEC92E00E9415076A
:10173000FF91EF91BF91AF919F918F917F916F91A9
:101740005F914F913F912F910F900FBE0F901F907F
:1017500018951F920F920FB60F9211242F938F930B
:101760009F93EF93FF93E091DB02F091DC02808185
:10177000E091E102F091E20282FD12C0908180913D
:10178000E4028F5F8F732091E502821751F0E091A0
:10179000E402F0E0E553FD4F958F8093E40201C031
:1017A0008081FF91EF919F918F912F910F900FBEAC
:1017B0000F901F90189590E0FC013197EF30F105E4
:1017C000B0F5E35AFF4F0C94AE1A809180008F77EA
:1017D00003C0809180008F7D809380000895809168
:1017E0008000877FF9CF84B58F7702C084B58F7D65
:1017F00084BD0895809190008F7707C080919000FC
:101800008F7D03C080919000877F80939000089522
:101810008091C0008F7703C08091C0008F7D80933E
:10182000C00008958091C200877F8093C200089510
:1018300085ED8093BC008091BC0084FDFCCF1092AC
:10184000A602089540913002262F30E0240F311D6A
:1018500021323105DCF42091A6022430C9F4FC01C8
:1018600080E090E0861758F4309130022191DC013D
:10187000A25FBD4FA30FB11D2C930196F3CF8091B2
:101880003002680F6093300280E0089581E008958F
:1018900082E008950895E0915F0280915E02E8176A
:1018A00030F4F0E0E05AFD4F808190E008958FEF32
:1018B0009FEF089590915F0280915E02981750F417
:1018C000E92FF0E0E05AFD4F208130E09F5F9093D8
:1018D0005F0202C02FEF3FEFC901089580915E02C1
:1018E00090E020915F02821B91090895CF92DF92D0
:1018F000EF92FF920F931F93CF93DF937C01262FDC
:10190000972F8A018091A702882391F0C62FD72FA5
:101910006E01C40ED51ECC15DD0571F06991D7019D
:10192000ED91FC910190F081E02DC7010995F3CF75
:10193000642F822F0E94220CC801DF91CF911F914A
:101940000F91FF90EF90DF90CF900895CF93DF93AA
:101950001F92CDB7DEB769832091A7022223D1F071
:101960002091CA02203240F021E030E0FC013383B4
:10197000228380E090E015C08091A802E82FF0E07B
:10198000E755FD4F998190838F5F8093A8028093E4
:10199000CA0205C061E0CE0101960E94220C81E0DE
:1019A00090E00F90DF91CF910895089580E090E04E
:1019B0000895CF93DF931F92CDB7DEB78230A0F0AA
:1019C000FB01408150E081819A01280F311D2F30A9
:1019D000310554F487E0898348505E4F6F5F7F4F35
:1019E000CE0101960E9472110F90DF91CF91089560
:1019F000CF93DF93282F30E0F901E850FE4F849118
:101A0000F901E752FE4FD491F901E654FE4FC4911B
:101A1000CC2391F081110E94DB0BEC2FF0E0EE0F54
:101A2000FF1FE455FE4FA591B491EC91ED2381E0A9
:101A300090E021F480E002C080E090E0DF91CF915F
:101A400008951F93CF93DF93282F30E0F901E850DA
:101A5000FE4F8491F901E752FE4FD491F901E6540B
:101A6000FE4FC491CC23C9F0162F81110E94DB0BCD
:101A7000EC2FF0E0EE0FFF1FE256FE4FA591B49160
:101A80008FB7F894111105C09C91ED2FE095E923D3
:101A900002C0EC91ED2BEC938FBFDF91CF911F91A2
:101AA0000895CF93DF9390E0FC01E752FE4F24911D
:101AB000FC01E654FE4F8491882361F190E0880F89
:101AC000991FFC01E057FE4FC591D491FC01E256ED
:101AD000FE4FA591B491611109C09FB7F894888118
:101AE000209582238883EC912E230BC0623061F411
:101AF0009FB7F8943881822F809583238883EC9157
:101B00002E2B2C939FBF06C08FB7F894E8812E2B05
:101B100028838FBFDF91CF9108951F93CF93DF93D9
:101B2000182FEB0161E00E94510D209711F460E045
:101B300004C0CF3FD10539F461E0812FDF91CF910F
:101B40001F910C94210DE12FF0E0E850FE4FE4913D
:101B50004E2F50E0FA013197EF30F10508F06CC0DC
:101B6000E459FF4F0C94AE1A84B5806884BDC7BD9C
:101B700068C084B5806284BDC8BD63C080918000A8
:101B8000806880938000D0938900C093880059C0FA
:101B900080918000806280938000D0938B00C093FE
:101BA0008A004FC080918000886080938000D0932D
:101BB0008D00C0938C0045C0809190008068809318
:101BC0009000D0939900C09398003BC08091900002
:101BD000806280939000D0939B00C0939A0031C0A4
:101BE00080919000886080939000D0939D00C09376
:101BF0009C0027C08091C00080688093C0008091C5
:101C0000C0008F7B8093C000C093CF001AC080912A
:101C1000C00080628093C000C093D00012C0809149
:101C2000C20088608093C2008091C2008B7F809345
:101C3000C200C093D20005C0C038D1050CF07CCFE3
:101C400076CFDF91CF911F9108953FB7F89480919F
:101C50005A0290915B02A0915C02B0915D0226B5A0
:101C6000A89B05C02F3F19F00196A11DB11D3FBFD4
:101C7000BA2FA92F982F8827820F911DA11DB11D62
:101C8000BC01CD0142E0660F771F881F991F4A955E
:101C9000D1F708958F929F92AF92BF92CF92DF9229
:101CA000EF92FF926B017C010E94250E4B015C01BB
:101CB000C114D104E104F104F1F00E94250EDC010D
:101CC000CB0188199909AA09BB09883E9340A1054F
:101CD000B10570F321E0C21AD108E108F10888EEDD
:101CE000880E83E0981EA11CB11CC114D104E1042C
:101CF000F10419F7DDCFFF90EF90DF90CF90BF9008
:101D0000AF909F908F9008952FB7F89460915602EE
:101D10007091570280915802909159022FBF0895F7
:101D20001F920F920FB60F9211242F933F938F9310
:101D30009F93AF93BF938091560290915702A091C9
:101D40005802B09159023091550223E0230F2D37EC
:101D500020F40196A11DB11D05C026E8230F0296AF
:101D6000A11DB11D209355028093560290935702F6
:101D7000A0935802B093590280915A0290915B024D
:101D8000A0915C02B0915D020196A11DB11D8093EE
:101D90005A0290935B02A0935C02B0935D02BF91E4
:101DA000AF919F918F913F912F910F900FBE0F9008
:101DB0001F9018954F925F926F927F928F929F9291
:101DC000AF92BF92CF92DF92EF92FF924B015C01F4
:101DD000A42FB0E020E03FE24AE350E00E94721AF4
:101DE0006C507E4F8F4F9F4F28EE33E040E050E025
:101DF0000E948C1A69017A0129013A01769467944C
:101E000057944794A8EEB3E0A50194010E94721A7A
:101E1000640D751D861D971DA70196010E948C1AE1
:101E2000CA01B901FF90EF90DF90CF90BF90AF90C3
:101E30009F908F907F906F905F904F9008950F9339
:101E40001F930097C9F0AC014150510960E070E068
:101E500080E090E08A019B010027012B022B032BDD
:101E600031F076956795579547950196F3CF982F62
:101E70008827842B952B02C080E090E01F910F9162
:101E800008951F920F920FB60F9211242F933F9334
:101E90004F935F936F937F938F939F93AF93BF9372
:101EA000EF93FF938091B900887F803609F49CC03E
:101EB00068F5883209F45BC090F4803109F454C0AD
:101EC00038F4882309F4F6C0883009F44DC0F6C010
:101ED000883109F44CC0803209F45DC0EFC0803411
:101EE00009F468C048F4803309F455C0883309F018
:101EF000E5C08093A402D8C0803509F44FC088356E
:101F000009F45DC0883409F0D9C0D6C0883909F415
:101F1000C7C0A8F4883709F467C038F4883609F4D4
:101F200063C0803709F460C0C9C0883809F4B8C0FC
:101F3000803909F45FC0803809F0C0C05BC0803BC5
:101F400009F486C038F4803A09F466C0883A09F486
:101F50007FC0B4C0803C09F4A7C0883C09F4A4C089
:101F6000883B09F48AC0AAC08091810210C0909178
:101F7000A3028091A202981770F5E091A30281E07C
:101F80008E0F8093A302F0E0EE57FD4F8081809387
:101F9000BB0085EC86C08093A4028EC0E091A302B2
:101FA00081E08E0F8093A3028091BB00F0E0EE579A
:101FB000FD4F80839091A3028091A2026EC0E091B8
:101FC000A30281E08E0F8093A3028091BB00F0E01A
:101FD000EE57FD4F80838091A50281116DC081E095
:101FE0008093800284EA61C083E08093A60210920D
:101FF0005402CFCF80915402803208F051C0E0915A
:10200000540281E08E0F809354028091BB00F0E077
:10201000EC5CFD4F8083BDCF85EC8093BC001092BB
:10202000A60280915402803230F4E0915402F0E034
:10203000EC5CFD4F10826091540270E0E09132023E
:10204000F091330284E392E009951092540236C075
:1020500084E08093A6021092310210923002E09147
:102060002E02F0912F02099580913002811105C056
:1020700081E08093300210920E02E091310281E003
:102080008E0F80933102F0E0E25FFD4F80818093FC
:10209000BB009091310280913002981708F479CFFB
:1020A00085E88093BC000AC085EC8093BC00109248
:1020B000A60204C01092A4020E94180CFF91EF9196
:1020C000BF91AF919F918F917F916F915F914F9150
:1020D0003F912F910F900FBE0F901F9018950F9367
:1020E0001F93CF93DF931F92CDB7DEB78C01698327
:1020F0000E945C1A6981681741F0C8010F90DF9156
:10210000CF911F910F910C94641A0F90DF91CF9192
:102110001F910F910895FF920F931F93CF93DF9319
:1021200000D0CDB7DEB7823008F4D4C08B01F82ED2
:10213000DB01EC914E2F50E04E30510508F0B8C055
:10214000FA01E558FF4F0C94AE1AFB018181982FDC
:1021500093788091F8018C77892B8093F801A8C03F
:10216000DB0111968C918093FE01A2C0FB0181815D
:102170008093FF019DC0DB0111968C91809300023A
:1021800097C090910102FB018181981761F01A823A
:1021900087E0898340E050E0BE016E5F7F4FCE0153
:1021A00001960E947211D80111968C91119780931B
:1021B000010211966C916093D0038091F80187FD24
:1021C00077C080E090E00E946F1072C0FB018181B7
:1021D000809302028091F80187FD05C0618181E052
:1021E00090E00E946F10F2E0FF16D1F0D801129635
:1021F0008C911297809303028091F80187FD10C0A3
:1022000012966C9109C0FB01818180930302809139
:10221000F80187FD05C0618182E090E00E946F10A7
:102220008091020290E0982F882720910302820F6C
:10223000911D9093F7018093F6013AC0DB0111964E
:102240008C911197809304028091F80187FD06C05C
:1022500011966C9183E090E00E946F10B2E0FB1643
:10226000D1F0F8018281809305028091F80187FD09
:1022700012C062810CC0DB0111968C911197809382
:1022800005028091F80187FD06C011966C9184E0EB
:1022900090E00E946F108091040290E0982F8827B0
:1022A00020910502820F911D9093F5018093F40116
:1022B0009091EA038091D00398130CC01A8287E0B2
:1022C000898340E050E0BE016E5F7F4FCE010196F2
:1022D0000E9472110F900F90DF91CF911F910F917B
:1022E000FF900895CF92DF92EF92FF920F931F938A
:1022F000CF93DF936C018B017A01FB01D081DE5F0C
:10230000FC01C0819091D003C90FCD0F8091C9000D
:102310008F7E8093C9008091C90088608093C90036
:102320006EEF8BEC92E00E9436076EEF8BEC92E042
:102330000E9436076091D0038BEC92E00E94360732
:102340006D2F8BEC92E00E943607F60160818BECDA
:1023500092E00E943607D0E0F8018081D81770F42F
:102360006701CD0ED11CF60160818BEC92E00E94DA
:102370003607F6018081C80FDF5FEECF6C2F70E06B
:10238000609570958BEC92E00E9436078BEC92E0A2
:102390000E947D078091C90080618093C90080916F
:1023A000C900877F8093C90052985A9ADF91CF91D4
:1023B0001F910F91FF90EF90DF90CF9008952091A3
:1023C000CA029091C902213208F04AC08091A60247
:1023D0008111FCCF32E03093A60231E03093A502A8
:1023E0003FEF3093A4021092A3022093A202A9EA25
:1023F000B2E042E852E0FA013E2F341B321718F4E3
:102400003D913193F9CF1092810220918102990F71
:10241000922B9093810290918002913061F41092FE
:102420008002909181029093BB009091BC0093FD3B
:10243000F8CF95EC01C095EE9093BC009091A60268
:102440009230E1F39091A4029F3F79F08091A40231
:10245000803241F08091A402803331F084E005C0E5
:1024600081E003C082E001C083E01092A8021092D4
:10247000CA021092A70208951F93CF93DF93162FDD
:10248000C4ECD3E0998121E02093A7029093C90284
:102490001092A8021092CA02682F88EB93E00E9463
:1024A000A60C612F88EB93E00E94A60C0E94DF111E
:1024B0008883DF91CF911F9108959091A602911189
:1024C000FCCF613208F060E291E09093A602909315
:1024D000A5022FEF2093A4021092A302260F2093AF
:1024E000A2029093810290918102880F892B8093A0
:1024F000810280918002813061F41092800280918B
:1025000081028093BB008091BC0083FDF8CF85ECF5
:1025100001C085EE8093BC008091A6028130E1F37A
:102520008091A302861710F46091A302A2E8B2E0A2
:1025300020E632E0F9018E2F821B861718F48D9168
:102540008193F9CF10925F0260935E02862F089507
:10255000CF93DF93C4ECD3E0998121E02093A702CD
:102560009093C9021092A8021092CA02682F88EBB9
:1025700093E00E94A60C0E94DF11888362E08981AB
:102580000E945D1288EB93E00E945A0CD82F80E0E5
:10259000C82F88EB93E00E945A0C8C2B9D2BDF9167
:1025A000CF91089561E080E80E943C1261E08FEFD6
:1025B0000E943C1260E080E00E943C126091CB03DC
:1025C00081E90E943C1261E080E00E943C1260E0E0
:1025D0008FEF0E943C1260E080E80E943C1262E0B3
:1025E00080E00C943C12CF93DF93C4ECD3E099814C
:1025F00021E02093A7029093C9021092A8021092A2
:10260000CA02682F88EB93E00E94A60C0E94DF119B
:10261000888361E089810E945D1288EB93E00E94CB
:102620005A0CDF91CF910895682F616080E00E947D
:102630003C1261E070E080E090E00E944A0E0E944F
:10264000840E7093CA036093C90383E10E94F3125E
:102650008770B9F48091C6039091C703892BA9F3C1
:102660000E94840E2091C9033091CA03621B730B30
:102670008091C6039091C7038617970730F780E0D3
:10268000089561E08BE00E943C1260E080E00E94CF
:102690003C1281E00895CF93DF93EC0181E00E942A
:1026A000F31284FB992790F9988383FB992790F97B
:1026B0009A8382FB992790F9998386FB992790F951
:1026C0009B83982F991F9927991F9C83DF91CF9106
:1026D00008954F925F926F927F928F929F92AF92E6
:1026E000BF92CF92DF92EF92FF920F931F93CF93FF
:1026F000DF938C01EB0180E50E94F3128F5F880F5E
:1027000090E09983888386E40E94F312E82EF12CEE
:102710008FEFE81AF80AFD82EC82A881B0E020E091
:102720003FE24AE350E00E94721A6C507E4F8F4F96
:102730009F4FE8EE4E2EE3E05E2E612C712CA3013C
:1027400092010E948C1A49015A01D7010E94B41AC1
:10275000B694A79497948794680D791D8A1D9B1D44
:10276000A30192010E948C1A2A873B874C875D87C0
:1027700081E50E94A8125C01BB2402C0AA0CBB1C0C
:102780009A95E2F7EFEFAE1ABE0ABF82AE82A88139
:10279000B0E020E03FE24AE350E00E94721A6C5041
:1027A0007E4F8F4F9F4FA30192010E948C1A6901A7
:1027B0007A01D5010E94721AF694E794D794C794CF
:1027C0006C0D7D1D8E1D9F1DA30192010E948C1A10
:1027D0002E873F87488B598B80E70E94F3128F5FCB
:1027E000880F90E09B838A8381E70E94A8129C0156
:1027F000332702C0220F331F9A95E2F72F5F3F4F16
:1028000039872887F8018381882331F08E819F8161
:10281000281B390B39872887AA81B0E020E03FE2E6
:102820004AE350E00E94721A6C507E4F8F4F9F4FC8
:1028300028EEC22E23E0D22EE12CF12CA701960126
:102840000E948C1A49015A01B694A79497948794D0
:10285000A885B9850E94721A680D791D8A1D9B1D75
:10286000A70196010E948C1A2A8B3B8B4C8B5D8BA7
:10287000DF91CF911F910F91FF90EF90DF90CF905C
:10288000BF90AF909F908F907F906F905F904F9090
:102890000895EF92FF921F93CF93DF931F92CDB7CE
:1028A000DEB7162F94ECE92E93E0F92EF701918113
:1028B00021E02093A7029093C9021092A8021092DF
:1028C000CA02682F88EB93E079830E94A60C798175
:1028D000672F88EB93E00E94A60C612F88EB93E0B2
:1028E0000E94A60C0E94DF11F70180830F90DF91F8
:1028F000CF911F91FF90EF9008958F929F92AF928A
:10290000BF92CF92DF92EF92FF920F931F93CF93DC
:10291000DF93CDB7DEB76B970FB6F894DEBF0FBE6F
:10292000CDBF6B017C01CE0147960E944B13BE01C7
:102930006F5F7F4FCE0147960E9469138F8988236E
:1029400049F04B855C856D857E854A5C544F6F4FA1
:102950007F4F04C048EE58E060E070E0898D882326
:1029600069F08B859C85AD85BE858E549D4FAF4F9C
:10297000BF4F880F991FAA1FBB1F0BC0888D8823CC
:1029800061F08B859C85AD85BE858C569D4FAF4F84
:10299000BF4F480F591F6A1F7B1F0A8D002361F02C
:1029A0008F859889A989BA898C569D4FAF4FBF4FA3
:1029B000480F591F6A1F7B1F1B8D112359F14A5D58
:1029C0005D4F6F4F7F4FC416D506E606F70620F120
:1029D00046015701841A950AA60AB70AC501B4012F
:1029E0004B810E94DA0E9B01002321F02F81388554
:1029F000260F371FC9010E941F0FBC0181E70E94EB
:102A00004914C092CC03D092CD03E092CE03F09251
:102A1000CF0303C011E001C010E0812F6B960FB609
:102A2000F894DEBF0FBECDBFDF91CF911F910F9104
:102A3000FF90EF90DF90CF90BF90AF909F908F90DE
:102A400008952FB7F89483E08093E9009091E8000F
:102A5000892F807295FF04C09091F20080E4891B59
:102A60002FBF08958091FF0381110DC082E08093F4
:102A7000FB0384E08093FC031092FE031092FD039D
:102A800081E08093FF038BEF93E00895CF93DF9372
:102A900000D01F92CDB7DEB7789484B5826084BD34
:102AA00084B5816084BD85B5826085BD85B5816052
:102AB00085BD80916E00816080936E0010928100D0
:102AC000809181008260809381008091810081608B
:102AD000809381008091800081608093800080914C
:102AE0009100826080939100809191008160809339
:102AF0009100809190008160809390008091C1004E
:102B000084608093C1008091C10082608093C10085
:102B10008091C10081608093C1008091C300816079
:102B20008093C3008091C00082608093C000809138
:102B3000C20081608093C20080917A00846080939B
:102B40007A0080917A00826080937A0080917A0086
:102B5000816080937A0080917A00806880937A0007
:102B60001092EB011092F3011092F2018091D700C4
:102B700081608093D70080EA8093D80089B5806116
:102B800089BD89B5826089BD09B400FEFDCF61E0D1
:102B900070E080E090E00E944A0E8091D8008F7C27
:102BA00080618093D8008091E000807F8093E00076
:102BB0008091E1008E7E8093E1008DE08093E200C1
:102BC000559A209A5D982898EEEFFFE785919491A9
:102BD0008B3F9C4D19F481E08093F10180E8809354
:102BE000F80180E090E00E945C1A8093010281E08D
:102BF00090E00E945C1A082F8093020282E090E02D
:102C00000E945C1AD82E8093030283E090E00E9419
:102C10005C1A182F8093040284E090E00E945C1AF2
:102C200080930502202F30E0322F22272D0D311DF9
:102C30003093F7012093F601212F30E0322F222725
:102C4000A901480F511D5093F5014093F40161E033
:102C50008DE00E94510D60E08DE00E94210D61E049
:102C60008BE00E94510D61E08BE00E94210D61E03C
:102C70008AE00E94510D61E08AE00E94210D61E02E
:102C800089E00E94510D61E089E00E94210D82E3FC
:102C90008093FE011092FF011092000262E085E134
:102CA0000E94510D62E084E10E94510D62E083E1D7
:102CB0000E94510D62E086E10E94510D62E087E1C1
:102CC0000E94510D1092FD0160E082E10E94510DC1
:102CD0008FEF8093FB018093FC0180910102815072
:102CE0008D3F40F081E08093010261E080E090E060
:102CF0000E946F10809101028093D0030E94840E85
:102D00006093EB037093EC038093ED039093EE03D9
:102D1000E091DB02F091DC0282E08083E091D70257
:102D2000F091D8021082E091D902F091DA0291E09C
:102D300090831092E302E091DF02F091E00286E0DE
:102D40008083E091DD02F091DE02808180618083EA
:102D5000E091DD02F091DE02808188608083E09165
:102D6000DD02F091DE02808180688083E091DD02E7
:102D7000F091DE0280818F7D808343E050E060E04F
:102D800070E04093CF025093D0026093D1027093D1
:102D9000D2028091C90080618093C9008091C900EE
:102DA000877F8093C90052985A9A1092F00310922C
:102DB000EF031092F2031092F1031092F8031092B5
:102DC000F7031092FA031092F90329ED3CE03093D7
:102DD000F4032093F3032BE830E13093F6032093C0
:102DE000F50310925F0210925E021092A8021092F8
:102DF000CA021092A6029093A5021092800261E08E
:102E000082E00E94210D61E083E00E94210D80910B
:102E1000B9008E7F8093B9008091B9008D7F809337
:102E2000B90088E48093B80085E48093BC0062E335
:102E300070E080E090E00E944A0E60E088E00E942E
:102E4000510D8FEF8093F9018093FA010E94620285
:102E50009091F801811104C09F7B9093F80126C0E6
:102E600090649093F80164E670E080E090E00E9446
:102E70004A0E84EF91E09093C7038093C6036CE001
:102E800070E084E40E94491462E180E090E00E94D6
:102E90005D016EE081E090E00E945D0164E670E01B
:102EA00080E090E00E944A0E0E94D2120E94840E9E
:102EB00060930602709307028093080290930902C0
:102EC00077E0D72EE6E0CE2EF5E09F2EA4E08A2E06
:102ED000B4EFAB2EBB24B3940E94250E8091F80171
:102EE0008F7D8093F80180910A0290910B02A0914E
:102EF0000C02B0910D02853F9140A105B10540F053
:102F000010920A0210920B0210920C0210920D0203
:102F100063E0762E8BEC92E00E94FF06892B09F489
:102F20001BC18BEC92E00E94DD068C0197FDF2CF75
:102F30008B830E94840E6093EB037093EC03809369
:102F4000ED039093EE033091D103832F90E02B811A
:102F50008730910508F0F3C0FC01EA5AFF4F0C944A
:102F6000AE1A2E3F09F0EBC03F5F3093D103D2CFB2
:102F70008091D003281711F02E3F19F47092D103DD
:102F800008C01092D1031092E7031092E60310924A
:102F9000E9030093E8030093EA03BCCF8091E803C0
:102FA000800F8093E8030093E6038092D103B2CFB1
:102FB0008091E803800F8093E8030093E9032130B8
:102FC00019F00550023018F4C092D103A3CF273076
:102FD00009F4B5C09092D1039DCF8091E803800F92
:102FE0008093E8038091E703E82FF0E0E053FC4F83
:102FF00002838F5F8093E70390E002962091E603BF
:1030000030E08217930704F785CF11278091E803FA
:10301000809590E00817190709F091C08091E903A5
:103020008330D1F128F4813059F0823051F187C0DA
:103030008530E1F008F43EC0863009F459C07FC005
:103040009091EA038091D00398130BC01A82D98221
:1030500040E050E0BE016E5F7F4FCE0101960E94BE
:103060007211E091EF03F091F00304C0E091F103DD
:10307000F091F203309709F462C060E070E080E004
:1030800017C09091EA038091D003981358C0E09143
:10309000F303F091F40304C0E091F503F091F6031B
:1030A000309709F44CC08091E60362ED73E08250E2
:1030B000099545C0E091F703F091F803309731F09E
:1030C0008091E60362ED73E0825009959091EA03E6
:1030D0008091D003981333C01A82D98240E050E027
:1030E000BE016E5F7F4FCE0101960E94721127C014
:1030F000E091F903F091FA03309721F060E070E07D
:1031000080E009959091EA038091D00398130CC058
:103110001A8287E0898340E050E0BE016E5F7F4FF6
:10312000CE0101960E94721198E088E10FB6F894E2
:10313000A895809360000FBE90936000FFCF10921F
:10314000D1031092E7031092E6031092E903109264
:10315000EA031092E803DECE8091020290E0982FFD
:10316000882720910302820F911D9093F70180938D
:10317000F6018091040290E0982F882720910502A3
:10318000820F911D9093F5018093F4018091F801D5
:10319000837090E001964DE7489F9001499F300D64
:1031A0001124C901330FAA0BBB0B40910A025091A5
:1031B0000B0260910C0270910D0284179507A6070F
:1031C000B707E0F08091FE010FEF10E0B801681B37
:1031D00071098BE00E948D0D8091FF01B801681B81
:1031E00071098AE00E948D0D80910002B801681B70
:1031F000710989E00E948D0D61E010C06FEF70E0F1
:103200008BE00E948D0D6FEF70E08AE00E948D0DC3
:103210006FEF70E089E00E948D0D60E08DE00E940C
:10322000210D8091F80186FF20C088E00E94F80CF3
:10323000892BD9F48EE10E94A8128C0161E08BE009
:103240000E943C121093F9010093FA012091F601BB
:103250003091F7019091F8010217130710F498606C
:1032600001C0977F9093F80104C08091F80186FF18
:10327000A7C0E4E8F1E0E49120917B00E3FBEE24B9
:10328000E0F8F12CC70135E0880F991F3A95E1F776
:10329000922F9F7D892B80937B00E770E064E09301
:1032A0007C0080917A00806480937A0080917A001B
:1032B00086FDFCCF809178002091790090E0922BE0
:1032C0009093FB018093FC014091F4015091F50132
:1032D0002091F8014817590710F4246001C02B7F92
:1032E0002093F8011092FD0185E10E94F80C892BD2
:1032F00029F48091FD0181608093FD0183E10E94AA
:10330000F80C892B29F48091FD0182608093FD01E6
:1033100084E10E94F80C892B29F48091FD018460DE
:103320008093FD0186E10E94F80C892B29F480919D
:10333000FD0188608093FD0187E10E94F80C892BD4
:1033400029F48091FD0180618093FD019091FD0140
:103350008091F801992311F0806101C08F7E8093E4
:10336000F8010E94840E009106021091070220913C
:103370000802309109026017710782079307E9F08C
:103380000E94840E609306027093070280930802E5
:103390009093090280910A0290910B02A0910C0275
:1033A000B0910D020196A11DB11D80930A02909368
:1033B0000B02A0930C02B0930D020E949F078CCDCC
:1033C0000E946202882309F454CF8091F80180643E
:1033D0008093F80164E670E080E090E00E944A0E7D
:1033E000B092C703A092C6036CE070E084E40E9430
:1033F000491462E180E090E00E945D016EE081E0AE
:1034000090E00E945D0164E670E080E090E00E9440
:103410004A0E0E94D2122DCFEBECF2E01382128200
:1034200088EE93E0A0E0B0E084839583A683B78321
:1034300027E131E0318320832DEC30E0358724878C
:103440002CEC30E03787268728EC30E0318B208B5E
:1034500029EC30E0338B228B2AEC30E0358B248B47
:103460002EEC30E0378B268B118E128E138E148E3D
:10347000E8E6F3E01382128284839583A683B78300
:1034800029E231E0318320832FEF3FEF3587248716
:10349000E8EBF3E01382128284839583A683B783DB
:1034A0008BE391E091838083E4ECF3E089E2818314
:1034B0001382128214820895F999FECF92BD81BDC4
:1034C000F89A992780B50895262FF999FECF1FBA4B
:1034D00092BD81BD20BD0FB6F894FA9AF99A0FBE3D
:1034E000019608950E947D1AA59F900DB49F900D9E
:1034F000A49F800D911D11240895A29FB001B39F38
:10350000C001A39F700D811D1124911DB29F700DEC
:10351000811D1124911D0895A1E21A2EAA1BBB1B27
:10352000FD010DC0AA1FBB1FEE1FFF1FA217B3078F
:10353000E407F50720F0A21BB30BE40BF50B661FA5
:10354000771F881F991F1A9469F760957095809569
:1035500090959B01AC01BD01CF010895EE0FFF1FB7
:103560000590F491E02D0994B7FF0C94721A0E9413
:10357000721A821B930B0895F894FFCFFFFFFFFF91
:1035800000E100000000000000C180810000000098
:103590000000003607A306CE067D07FF06DD06F114
:1035A0000600000000A90716089B08BF07CA079F6E
:1035B00008BD0800000000A60C760CD60C4A0C6E64
:1035C0000C5A0C4B0C0D0A00202042534F44203A59
:1035D00020564C35334C3058206661696C2072653A
:1035E0006164205350414420696E666F730020204F
:1035F00042534F44203A20564C35334C30582066C5
:1036000061696C20706572666F726D2073696E6798
:103610006C65207265662063616C696272617469B1
:103620006F6E2028307834302900202042534F44D8
:10363000203A20564C35334C3058206661696C2056
:10364000706572666F726D2073696E676C6520724B
:1036500065662063616C6962726174696F6E2028AF
:10366000307830302900FFFFFFFFFFFFFFFFFFFF33
:10367000FFFFFFFFFFFFFFFFFFFFFFFFFFFFFFFF5A
:10368000FFFFFFFFFFFFFFFFFFFFFFFFFFFFFFFF4A
:10369000FFFFFFFFFFFFFFFFFFFFFFFFFFFFFFFF3A
:1036A000FFFFFFFFFFFFFFFFFFFFFFFFFFFFFFFF2A
:1070000055C000006EC000006CC000006AC00000E7
:1070100068C0000066C0000064C0000062C00000DC
:1070200060C000005EC00000F2C400005AC0000052
:1070300058C0000056C0000054C0000052C00000FC
:1070400050C0000078C000004CC000004AC00000E2
:1070500048C0000046C0000044C0000042C000001C
:1070600040C000003EC000003CC000003AC000002C
:1070700038C0000036C0000034C0000032C000003C
:1070800030C000002EC000002CC000002AC000004C
:1070900028C0000026C0000024C0000022C000005C
:1070A00020C000001EC000001CC0000011241FBE34
:1070B000CFEFDAE0DEBFCDBF11E0A0E0B1E0E2E368
:1070C000FFE702C005900D92A83AB107D9F711E089
:1070D000A8EAB1E001C01D92AE3BB107E1F78FD342
:1070E00026C78ECFF89410926F00109281001092F4
:1070F00085001092840081E085BF15BE47985D9899
:1071000028980C94000008952091B2013091B301A9
:107110002F5F3F4F3093B3012093B201932F37FF7E
:1071200003C08EEF831B982F990F921710F4479886
:107130000895479A08951F920F920FB60F92112447
:107140002F938F939F93EF93FF931092850010924C
:1071500084008091A8019091A901009741F00197C6
:107160009093A9018093A801892B09F45D988091DF
:10717000AA019091AB01009741F001979093AB0168
:107180008093AA01892B09F42898E0E0F0E085912A
:1071900094918F5F9F4F49F08091AC019091AD0128
:1071A00001969093AD018093AC01FF91EF919F9177
:1071B0008F912F910F900FBE0F901F90189584E024
:1071C0008093E9000DC08091E8008B778093E80000
:1071D00003C08EB3882351F08091E80082FFF9CF7D
:1071E0008091E80085FFEFCF8091F1000895982FFE
:1071F00083E08093E9008091E80085FD0DC08091D7
:10720000E8008E778093E80003C08EB3882369F08E
:107210008091E80080FFF9CF9093F1005D9A84E6B9
:1072200090E09093A9018093A80108954F925F92F6
:107230006F927F928F929F92AF92BF92CF92DF9286
:10724000EF92FF920F931F93CF93DF9384E080938D
:10725000E9008091E80082FF57C2289A84E690E016
:107260009093AB018093AA01AADF182F853481F493
:107270008CE49DE19093AD018093AC0107B600FCD6
:10728000FDCFF999FECF81E180935700E89503C0C7
:10729000843519F494DF8DE00DC28C34E1F3803530
:1072A000D1F3843721F484E4A2DF80E003C2813685
:1072B00011F489E5FFC18134B1F481DF182F7FDF3C
:1072C00090E0880F991FAA2797FDA095BA2F312F1C
:1072D000330F20E0442737FD4095542F822B932B0A
:1072E000A42BB52BB8C1803711F483E5E3C18335F6
:1072F00049F4C0E0D1E089917ADF21E0C730D207BC
:10730000D1F7D9C1863521F481E371DF80E3D2C1A1
:10731000833731F487E86BDF85E969DF8EE1CAC125
:107320008536B9F4E0E0F0E093E085E09093570013
:10733000E89507B600FCFDCF80935700E89507B6A7
:1073400000FCFDCFE058FF4FA0E7E030FA0771F7EF
:10735000A2CF823739F4E1E0F0E089E08093570072
:107360008491A8C1863439F4E0E0F0E089E08093AC
:10737000570084919FC18E3439F4E3E0F0E089E056
:1073800080935700849196C1813539F4E2E0F0E0B2
:1073900089E08093570084918DC1823631F489E56C
:1073A00026DF80E024DF80E885C1823419F087364B
:1073B00009F0E5C01092AD011092AC0100DF082F7A
:1073C000FEDEF82EFCDE682E8554823008F071C196
:1073D000902F80E0CF2DD0E0C82BD92B10926F00DA
:1073E000173609F04BC081E180935700E895DD2402
:1073F000CC24C3943FC0E090AE01F090AF01009167
:10740000B0011091B101B6E46B16D9F4ED2DF0E0A6
:10741000EE29FF29E4918E2FEADEDD2081F082E063
:1074200090E0A0E0B0E0E80EF91E0A1F1B1FE092FA
:10743000AE01F092AF010093B0011093B101DC24D2
:1074400018C0D801C701B695A7959795879559D5C6
:10745000CEDE82E090E0A0E0B0E0E80EF91E0A1F68
:107460001B1FE092AE01F092AF010093B0011093A8
:10747000B1012197209709F0BECF7DC08090AE0169
:107480009090AF01A090B001B090B10196E4691660
:1074900009F05DC083E0F40180935700E89507B6DA
:1074A00000FCFDCF54C0F6E46F1661F5772031F192
:1074B000E090AE01F090AF010091B0011091B101E8
:1074C0007EDED82ECC24852D90E08C299D29F701D5
:1074D0000C0140925700E895112482E090E0A0E072
:1074E000B0E0E80EF91E0A1F1B1FE092AE01F092F9
:1074F000AF010093B0011093B10102C060DE582EBD
:10750000742423C0E090AE01F090AF010091B0016F
:107510001091B10116950795F794E79450DE682F06
:10752000C701F7D48091AE019091AF01A091B00155
:10753000B091B1010296A11DB11D8093AE0190934F
:10754000AF01A093B001B093B101219704C05524BD
:10755000772444244394209709F0A5CF96E4691634
:1075600041F485E0F40180935700E89507B600FCEC
:10757000FDCF8DE03CDE82E080936F009CC08334C1
:1075800071F40091AE011091AF0119DE90E021E09D
:10759000F8010C0120935700E89511247CCE833626
:1075A00019F5E090AE01F090AF010091B00110919B
:1075B000B10105DEF701E16090E021E00C012093CC
:1075C0005700E895112482E090E0A0E0B0E0E80EDA
:1075D000F91E0A1F1B1FE092AE01F092AF0100934B
:1075E000B0011093B10157CE8D3661F4E091AE0138
:1075F000F091AF0185E080935700E89507B600FC55
:10760000FDCF49CE823551F4E091AE01F091AF014A
:1076100005911491812FEBDD802F4CC0843421F52E
:10762000E090AE01F090AF010091B0011091B10176
:1076300016950795F794E794C2DD682FC70169D4C2
:107640008091AE019091AF01A091B001B091B101D4
:107650000296A11DB11D8093AE019093AF01A0933E
:10766000B001B093B10117CE843609F5E090AE01B8
:10767000F090AF010091B0011091B101D801C701A4
:10768000B695A795979587953CD4B1DD82E090E0BB
:10769000A0E0B0E0E80EF91E0A1F1B1FE092AE0149
:1076A000F092AF010093B0011093B10104C08B318F
:1076B00011F08FE39CDD83E08093E9009091E80076
:1076C0008091E8008E778093E80095FF04C010C099
:1076D0008EB38823C9F08091E80080FFF9CF8091B4
:1076E000E8008E778093E80003C08EB3882361F0B2
:1076F0008091E80080FFF9CF84E08093E9008091D9
:10770000E8008B778093E800DF91CF911F910F9174
:10771000FF90EF90DF90CF90BF90AF909F908F90B1
:107720007F906F905F904F9008959091B601892F50
:107730008F77813249F58091B7018032A1F0813293
:1077400019F5913A09F58091E800877F8093E80068
:107750008DE091E067E070E00BD28091E8008B77DC
:107760008093E8000895913279F48091E800877F52
:107770008093E8008DE091E067E070E05DD2809159
:10778000E8008E778093E800089582E061EC42E0A3
:10779000B5D083E061E842E1B1D084E060E842E145
:1077A000ADC084B7877F84BF88E10FB6F89480931B
:1077B0006000109260000FBE20E880E090E00FB6FD
:1077C000F89420936100809361000FBE81E085BF33
:1077D00092E095BF3F9A209A559AE1E6F0E0208327
:1077E000108247985D982898109289008AEF8093BC
:1077F000880090936F0083E080938100F0C04091F7
:10780000000850910108109201081092000894B7E6
:1078100014BE88E10FB6F894809360001092600067
:107820000FBE292F30E0F901E270F07091FD18C011
:1078300090FF05C0859194918F5F9F4F81F423FF46
:107840000FC08091090190910A014817590741F032
:10785000E0E0F0E0859194918F5F9F4F09F042DC6A
:10786000A0DF78941092AD011092AC010CC0DEDC68
:1078700036D38091AC019091AD0181549F4110F0BD
:107880001092140141DC80911401882381F78091CA
:10789000E00081608093E00025DC80E090E00895C6
:1078A000FA01923049F0933061F09130F9F485E1BA
:1078B00091E022E130E01EC087E291E02EE330E06B
:1078C00019C0882329F485E691E024E030E012C055
:1078D000813029F489E691E022E230E00BC0823069
:1078E00029F48DE891E028E130E004C080E090E0E8
:1078F00020E030E091838083C90108958093E900FE
:107900008091EB0081608093EB001092ED0060931A
:10791000EC004093ED008091EE00881F8827881FBF
:1079200008958091B60188238CF403C08EB3882318
:10793000B1F08091E80082FFF9CF8091E8008B7769
:107940008093E80008958EB3882349F08091E80081
:1079500080FFF9CF8091E8008E778093E80008954A
:10796000EF92FF920F931F9345D04CD008ED10E09B
:10797000F80180818F778083808180688083808117
:107980008F7D808319BC1EBA1092B40180EEE82E60
:10799000F12CF70180818B7F8083F80180818160E9
:1079A000808380E060E042E0A9DFE1EEF0E08081EA
:1079B0008E7F8083E2EEF0E0808181608083808131
:1079C00088608083F70180818E7F8083F8018081C9
:1079D000806180831F910F91FF90EF900895E7EDF4
:1079E000F0E08081816080838AE482BF81E08093BF
:1079F000B501B6CFE8EDF0E080818E7F80831092F4
:107A0000E20008951092DA001092E10008951F92AA
:107A10000F920FB60F9211242F933F934F935F93C2
:107A20006F937F938F939F93AF93BF93EF93FF9346
:107A30008091DA0080FF1BC08091D80080FF17C0C2
:107A40008091DA008E7F8093DA008091D90080FFE8
:107A50000BC080E189BD82E189BD09B400FEFDCF84
:107A600081E08EBB3BD203C019BC1EBA37D28091D5
:107A7000E10080FF17C08091E20080FF13C0809179
:107A8000E2008E7F8093E2008091E200806180932B
:107A9000E2008091D80080628093D80019BC85E014
:107AA0008EBB1CD28091E10084FF2CC08091E2004B
:107AB00084FF28C080E189BD82E189BD09B400FE50
:107AC000FDCF8091D8008F7D8093D8008091E10018
:107AD0008F7E8093E1008091E2008F7E8093E200B0
:107AE0008091E20081608093E2008091B40188235C
:107AF00031F48091E30087FD02C081E001C084E0A1
:107B00008EBBECD18091E10083FF21C08091E20027
:107B100083FF1DC08091E100877F8093E10082E0B8
:107B20008EBB1092B4018091E1008E7F8093E100C2
:107B30008091E2008E7F8093E2008091E20080617C
:107B40008093E20080E060E042E0D8DEC7D1FF91A0
:107B5000EF91BF91AF919F918F917F916F915F91C5
:107B60004F913F912F910F900FBE0F901F9018953E
:107B70009C014091BC015091BD014617570718F474
:107B8000F90190E044C06115710511F0AB01F8CF27
:107B90008091E8008E778093E80040E050E0F0CFDD
:107BA0008EB3882309F444C0853009F443C0809122
:107BB000E80083FF02C081E008958091E80082FD23
:107BC00031C08091E80080FF22C08091F300909145
:107BD000F200782F60E0292F30E0262B372B07C0EA
:107BE00081918093F100415050402F5F3F4F4115EC
:107BF000510519F02830310598F390E0283031050F
:107C000009F491E08091E8008E778093E8004115B7
:107C1000510531F6992321F605C08EB3882341F032
:107C2000853041F08091E80082FFF7CF80E0089531
:107C300082E0089583E008959C016115710529F49F
:107C40008091E8008B778093E800F90126C08EB31D
:107C5000882391F1853091F18091E80083FF02C083
:107C600081E008958091E80082FFF1CF06C0809105
:107C7000F10081936150704059F02091F3008091A0
:107C8000F200322F20E090E0822B932B892B79F7A2
:107C90008091E8008B778093E80061157105B9F653
:107CA00005C08EB3882341F0853041F08091E80013
:107CB00080FFF7CF80E0089582E0089583E0089583
:107CC0000F931F93DF93CF9300D0CDB7DEB7E6EBD2
:107CD000F1E08091F100819381E0EE3BF807C9F774
:107CE00024DD8091E80083FFE4C08091B60190918B
:107CF000B701953009F46DC0963040F4913081F1B0
:107D0000913070F0933009F0D4C02AC0983009F453
:107D1000A3C0993009F4B2C0963009F0CAC07CC043
:107D2000803809F4C6C0823809F0C3C08091BA0116
:107D300087708093E9008091EB001092E900209118
:107D4000E800277F2093E80090E025E0969587954E
:107D50002A95E1F781708093F1001092F10087C0BD
:107D6000882319F0823009F0A4C08F71823009F0A5
:107D7000A0C08091B801882331F52091BA01277005
:107D800009F497C02093E9008091EB0080FF1BC0AD
:107D9000933021F48091EB00806213C08091EB005E
:107DA00080618093EB0081E090E002C0880F991F12
:107DB0002A95E2F78093EA001092EA008091EB00A6
:107DC00088608093EB001092E9008091E800877F43
:107DD00051C0882309F06DC01091B8011F770FB70B
:107DE000F8948091E800877F8093E8009ADD809185
:107DF000E80080FFFCCF8091E3008078812B8093A6
:107E0000E30080688093E300112311F482E001C055
:107E100083E08EBB0FBF4DC08058823008F049C050
:107E20008091B8019091B9016091BA01AE014F5FA4
:107E30005F4F36DDBC01009709F43BC08091E8003C
:107E4000877F8093E80089819A8192DE8091E800A3
:107E50008B778093E8002DC0803859F58091E80039
:107E6000877F8093E8008091B4018093F100809136
:107E7000E8008E778093E80054DD1BC08823C9F4A6
:107E80009091B8019230A8F48091E800877F8093A8
:107E9000E8009093B40145DD8091B401882331F46A
:107EA0008091E30087FD02C081E001C084E08EBBC9
:107EB0006CDC8091E80083FF0AC08091EB00806257
:107EC0008093EB008091E800877F8093E8000F901B
:107ED0000F90CF91DF911F910F91089508951F93F7
:107EE0008EB3882361F01091E9001092E90080912F
:107EF000E80083FF01C0E4DE17701093E9001F91D2
:107F00000895F999FECF92BD81BDF89A992780B561
:107F10000895262FF999FECF1FBA92BD81BD20BDCD
:107F20000FB6F894FA9AF99A0FBE01960895F8944C
:107F3000FFCF4341544552494E4100777700080036
:107F400000000000000801120110010200000841B9
:107F500023370001000201000109023E0002010076
:107F60008032090400000102020100052400100112
:107F7000042402040524060001070582030800FF0B
:107F800009040100020A00000007050402100001B4
:107F90000705830210000104030904220341007253
:107FA000006400750069006E006F0020004D0069DC
:107FB00000630072006F0020002000200000001805
:107FC00003410072006400750069006E006F0020BC
:107FD000004C004C004300000000FFFFFFFFFFFFCC
:107FE000FFFFFFFFFFFFFFFFFFFFFFFFFFFFFFFFA1
:107FF000FFFFFFFFFFFFFFFFFFFFFFFFFFFFFFFF91
:00000001FF
