:100000000C940F010C9437010C9437010C943701B8
:100010000C9437010C9437010C9437010C94370180
:100020000C9437010C9437010C9417040C94890438
:100030000C9467100C9437010C9437010C94370121
:100040000C9437010C9437010C9437010C94370150
:100050000C9437010C9437010C9437010C94880EE2
:100060000C9437010C94D4060C94AE060C94370112
:100070000C9437010C9437010C9437010C94370120
:100080000C9437010C9437010C9437010C94370110
:100090000C94390F0C9437010C9437010C943701F0
:1000A0000C9437010C9437010C943701FD17FD17A0
:1000B00004181A18241839185118240D270D160D74
:1000C0001A0D200D480D480D480D2B0D2F0D330D29
:1000D000390D3D0D480D430DAC0DB10DB60DC00DE4
:1000E000CA0D140E140E140ED40DDE0DE80DF20D13
:1000F000FF0D140E070EA7105A115A115A115A115A
:100100005A11B210B810BD10C3105A115A11E8108C
:10011000051120113D1100000000250028002B00D2
:100120002E003100000000002300260029002C00D2
:100130002F00040404040403040502020202040361
:100140000202020206060606060604040202020471
:1001500004040802011040804010204080408008C4
:100160000204018040201002011080102040402035
:100170000000000200090F0000030401000C000051
:100180000000000000000000000000000000000867
:100190000B0002020201000904000001020200003B
:1001A0000524001001052401010104240206052490
:1001B0000600010705810310004009040100020A3E
:1001C000000000070502024000000705830240000E
:1001D000000403090412010002EF02014041233729
:1001E0008000010102030141726475696E6F204C49
:1001F0004C430041726475696E6F204D6963726F84
:1002000000070605040100080A0B0C0D0900000098
:1002100000240027002A002D00300000581A112465
:100220001FBECFEFDAE0DEBFCDBF24E0AAEEB1E023
:1002300001C01D92AA38B207E1F711E0A0E0B1E0D9
:10024000E0E3F6E302C005900D92AA3EB107D9F7AC
:1002500011E0CFE0D1E004C02197FE010E94081B0D
:10026000CE30D107C9F70E944A150C94161B0C9486
:1002700000004091EC015091ED012091EA01309194
:10028000EB0142175307B4F49091E8009570E1F345
:100290009091E80092FD19C08093F1008091EC01EB
:1002A0009091ED0101968F739927892B19F48EEFA8
:1002B0008093E8008091EC019091ED01019690937C
:1002C000ED018093EC0181E0089580E00895CF92E4
:1002D000DF92EF92FF920F931F93CF93DF931F92C2
:1002E000CDB7DEB7182F062FE42E862F880F8E5F2E
:1002F00099830E94390183E00E943901F12EC12EB9
:100300009981D92E8C2D8F19801798F4F601E7FE6C
:1003100002C0849101C080810E943901182F80E0C1
:100320000E9439018123FFEFCF1ADF0A8111EACF42
:1003300001C081E00F90DF91CF911F910F91FF904D
:10034000EF90DF90CF900895DF92EF92FF920F939E
:100350001F93CF93DF93D82E8A017B01E40EF51E05
:10036000EB01CE15DF0571F0D7FE03C0FE018491CD
:1003700001C088810E94390121968111F2CF8FEF4F
:100380009FEF01C0C801DF91CF911F910F91FF90A6
:10039000EF90DF900895615030F02091F100FC0162
:1003A00020830196F8CF289A84E68093EF01089580
:1003B000CF92DF92EF92FF920F931F93CF93DF9331
:1003C0006C017A018B01C0E0D0E0CE15DF0589F029
:1003D000D8016D918D01D601ED91FC910190F081D4
:1003E000E02DC6010995892B11F47E0102C02196EA
:1003F000ECCFC701DF91CF911F910F91FF90EF904C
:10040000DF90CF900895FC01538D448D252F30E06F
:10041000842F90E0821B930B541718F081589F4F44
:10042000089501970895FC01918D828D981761F0D0
:10043000828DDF01A80FB11D5D968C91928D9F5F1B
:100440009F77928F90E008958FEF9FEF0895FC01C2
:10045000918D828D981731F0828DE80FF11D858D79
:1004600090E008958FEF9FEF0895FC01918D228D0C
:10047000892F90E080589F4F821B91098F77992791
:1004800008958DEC92E00E94350221E0892B09F459
:1004900020E0822F0895FC01848DDF01A80FB11D9B
:1004A000A356BF4F2C91848D90E001968F779927AA
:1004B000848FA689B7892C93A089B1898C91806497
:1004C0008C93938D848D981306C00288F389E02D58
:1004D00080818F7D80830895EF92FF920F931F9309
:1004E000CF93DF93EC0181E0888F9B8D8C8D9813E7
:1004F00005C0E889F989808185FD24C0F62E0B8D21
:1005000010E00F5F1F4F0F771127E02E8C8DE81240
:100510000CC00FB607FCFACFE889F989808185FF06
:10052000F5CFCE010E944B02F1CF8B8DFE01E80F7B
:10053000F11DE356FF4FF0820B8FEA89FB89808122
:10054000806207C0EE89FF896083E889F98980812C
:100550008064808381E090E0DF91CF911F910F91C3
:10056000FF90EF900895CF93DF93EC01888D88235F
:10057000C9F0EA89FB89808185FD05C0A889B98910
:100580008C9186FD0FC00FB607FCF5CF808185FFEB
:10059000F2CFA889B9898C9185FFEDCFCE010E9459
:1005A0004B02E7CFDF91CF91089580E090E0892B57
:1005B00029F00E94410281110C9400000895CF930C
:1005C000DF931F92CDB7DEB76983DC01ED91FC911B
:1005D0000280F381E02D41E050E0BE016F5F7F4F6C
:1005E00009950F90DF91CF91089583E08093E90002
:1005F0008091F200882319F08AE38093E80008953F
:10060000FC018485958597FD0BC09FB7F89482E027
:100610008093E9008091F2009FBF90E001960895D9
:100620009FB7F89482E08093E9008091F2009FBF29
:1006300090E008950F931F93CF93DF931F92CDB750
:10064000DEB782E0898342E450E06FE871E080E841
:100650000E94A4010E943615DC0112960D911C9196
:1006600013970115110569F0D801ED91FC910280F5
:10067000F381E02DBE016F5F7F4FC801099597FFA1
:1006800007C089810F90DF91CF911F910F9108953D
:10069000F80100851185E5CF8F929F92AF92BF92AE
:1006A000CF92DF92EF92FF920F931F93CF93DF933E
:1006B0005C016B017A0180910B01882309F45BC016
:1006C0008091F001882309F456C08091F20180FFE7
:1006D00005C08091E00082608093E000E70110E0B7
:1006E0000AEF83E0882E9AE3992E2097D9F10E9491
:1006F000251581110AC0015009F43DC061E070E088
:1007000080E090E00E94420EF0CF282F30E0C21728
:10071000D3070CF48C2F4FB7F8948092E900909196
:10072000E80095FF1DC0282F30E0C21BD30BF60157
:10073000982F915020F081918093F100FACFC20E52
:10074000D31E112319F09092E80009C08091E800AF
:1007500085FD06C09092E80011E0209709F010E0B6
:100760004FBFC3CF1111C3CF5D9A84E68093EE01D2
:100770001E141F0444F081E090E0F501938382830E
:1007800080E090E001C0C701DF91CF911F910F91F0
:10079000FF90EF90DF90CF90BF90AF909F908F90A1
:1007A00008950E94251590E008950F931F93CF930D
:1007B000DF931F92CDB7DEB78C01FC018485958550
:1007C00097FF0EC0CE0101960E94020C019719F40A
:1007D000298130E002C02FEF3FEFF80135872487F1
:1007E000F801848595850F90DF91CF911F910F912E
:1007F0000895CF93DF931F92CDB7DEB7FC018485B8
:10080000958597FD05C02FEF3FEF358724870BC0F7
:10081000CE0101960E94020C019719F4898190E0A3
:1008200002C08FEF9FEF0F90DF91CF9108951F923D
:100830000F920FB60F9211248F939F938091E10036
:100840009091E100937F9093E10083FF0FC010929D
:10085000E90091E09093EB001092EC0092E390930A
:10086000ED001092F00198E09093F00082FF20C01C
:1008700093E09093E9009091F200992319F09AE3A4
:100880009093E8009091EE01992339F09091EE0158
:1008900091509093EE01992389F19091EF01992362
:1008A00039F09091EF0191509093EF01992341F12C
:1008B00084FF10C08091E2008E7E81608093E20010
:1008C0008091E1008F7E8093E1008091F2018E7E25
:1008D000806111C080FF16C08091E2008E7E806131
:1008E0008093E2008091E1008E7E8093E100809110
:1008F000F2018E7E81608093F20104C05D98CDCFBD
:100900002898D6CF9F918F910F900FBE0F901F9078
:1009100018951F920F920FB60F921124CF92DF926B
:10092000EF92FF920F931F932F933F934F935F93F9
:100930006F937F938F939F93AF93BF93EF93FF93A7
:10094000CF93DF93CDB7DEB76C97DEBFCDBF1092EC
:10095000E9008091E80083FFE2C168E0CE0145969E
:100960000E94CB0182EF8093E8008D8987FF05C04C
:100970009091E80090FFFCCF03C09EEF9093E800B9
:10098000982F907609F0C6C09E892F89188D9111F5
:100990000CC0803829F48091F3018093F10002C0EB
:1009A0001092F1001092F10056C1422F50E0512BED
:1009B000913051F481114FC14130510509F04BC1C3
:1009C0008091F3018D7F0BC0933061F4811143C19D
:1009D0004130510509F03FC18091F301826080935D
:1009E000F30139C1953041F48091E80080FFFCCFDC
:1009F00020682093E3002FC1963009F05FC0EB8C94
:100A0000FC8C1092E9001092ED011092EC01123072
:100A100091F51092EB011092EA010E941A0399E0FD
:100A2000BE016F5F7F4FDB01E92F1D92EA95E9F769
:100A300099831A8391E09E8390EA98879AEF998729
:100A40002091EC013091ED01275F3F4F3C832B83D8
:100A50008D831092E9001092ED011092EC01F0925A
:100A6000EB01E092EA0149E050E080E00E94A4013D
:100A70000E941A03F0C0F092EB01E092EA010E949A
:100A80003615DC011296ED90FC901397E114F104F9
:100A900009F4CEC0D701ED91FC910480F581E02DE1
:100AA000BE016B5E7F4FC7010995009719F00CF0EE
:100AB000D2C0D5C0F701E084F184E8CF973009F4C3
:100AC000CEC0983021F481E08093F100C4C0993009
:100AD00009F0C1C0837009F0C2C0EDE0F1E081E02F
:100AE00021E036E39081992361F08093E90020931F
:100AF000EB0091919093EC003093ED008F5F873085
:100B000089F78EE78093EA001092EA008F8980933C
:100B1000F001A1C08B8D9C8D1092E9001092ED0127
:100B20001092EC019093EB018093EA01898D811181
:100B300064C08E899D89913A59F4813209F08FC041
:100B400047E050E064E071E080E00E94A40183C0CF
:100B5000913209F084C0833289F4888D90E0982F17
:100B600088272F89822BA0E0B0E08093000190932A
:100B70000101A0930201B09303016DC0803269F4BA
:100B80008091E80082FFFCCF67E084E091E00E9462
:100B9000CB018BEF8093E80006C0823209F05BC086
:100BA0008F8980930B018091F101882319F0EEEF7A
:100BB000FAE002C0E0E0F8E08091040190910501C4
:100BC000A0910601B0910701803B9440A105B105B9
:100BD00009F089C080910B0180FD85C087E797E708
:100BE000918380839BE088E10FB6F894A895809369
:100BF00060000FBE90936000FFCF0E943615DC01AD
:100C000012960D911C9113970115110541F1D80110
:100C1000ED91FC910190F081E02DBE016B5E7F4F64
:100C2000C8010995811117C0F80100851185ECCF25
:100C3000113009F44EC0133091F48F89882309F4E0
:100C400045C0823081F440E86DE083EF91E00E947E
:100C50006701882321F08EEF8093E80060C081E275
:100C60008093EB005CC0813029F440E86BE087EEB4
:100C700091E0EDCF833099F70E943615DC01129692
:100C8000ED90FC9013978E010F5F1F4F6801E114E8
:100C9000F10479F0D701ED91FC910680F781E02D08
:100CA000B801C7010995080F111DF701E084F1840F
:100CB000EECFD8011C92F60101900020E9F73197A0
:100CC000BF016C197D0940E0C601C1CF61ED71E043
:100CD00002C065ED71E06115710509F2FB014491F7
:100CE00050E080E832CF0FB6F894A895809160006C
:100CF000886180936000109260000FBEA895EE3F5F
:100D00002AE0F20739F08091FE0A9091FF0A918360
:100D10008083A1CF1092FF0A1092FE0A9CCF6C969E
:100D20000FB6F894DEBF0FBECDBFDF91CF91FF911C
:100D3000EF91BF91AF919F918F917F916F915F9153
:100D40004F913F912F911F910F91FF90EF90DF9066
:100D5000CF900F900FBE0F901F9018951F920F927B
:100D60000FB60F9211242F933F934F935F936F937E
:100D70007F938F939F93AF93BF93EF93FF938DECEC
:100D800092E00E944B02FF91EF91BF91AF919F9132
:100D90008F917F916F915F914F913F912F910F9024
:100DA0000FBE0F901F9018951F920F920FB60F92C3
:100DB00011242F938F939F93EF93FF93E091DD0284
:100DC000F091DE028081E091E302F091E40282FD85
:100DD00012C090818091E6028F5F8F772091E702A9
:100DE000821751F0E091E602F0E0E353FD4F958F5A
:100DF0008093E60201C08081FF91EF919F918F91D6
:100E00002F910F900FBE0F901F901895CF93DF93E7
:100E1000282F30E0F901E059FE4F8491F901EF5A93
:100E2000FE4FD491F901EE5CFE4FC491CC2391F0BA
:100E300081110E940C0DEC2FF0E0EE0FFF1FEC5D16
:100E4000FE4FA591B491EC91ED2381E090E021F467
:100E500080E002C080E090E0DF91CF9108951F9381
:100E6000CF93DF93282F30E0F901E059FE4F8491B2
:100E7000F901EF5AFE4FD491F901EE5CFE4FC49197
:100E8000CC23C9F0162F81110E940C0DEC2FF0E03D
:100E9000EE0FFF1FEA5EFE4FA591B4918FB7F89455
:100EA000111105C09C91ED2FE095E92302C0EC9152
:100EB000ED2BEC938FBFDF91CF911F910895BC0173
:100EC000009791F0FC0101900020E9F73197AF0104
:100ED000481B590BE091EA03F091EB030280F38188
:100EE000E02D8AEE93E0099480E090E00895CF939E
:100EF000DF930E945F07EC0189E491E00E945F07A5
:100F00008C0F9D1FDF91CF910895EF92FF920F9369
:100F10001F93CF93DF93CDB7DEB76B970FB6F894DF
:100F2000DEBF0FBECDBF7C01162F062F06950150E8
:100F3000CE0147960E944F13BE016F5F7F4FCE01D7
:100F400047960E946D13E114F104E9F51E3069F033
:100F500028F41C3009F0D0C068E10AC0103139F023
:100F6000123109F0C9C060E503C060E301C060E46C
:100F700087E50E94401268E086E50E944012602FDB
:100F800080E50E9440126F85788989899A89412F6E
:100F90000E94D20ECB010E94170FBC0181E50E9476
:100FA0004D146B857C858D859E85412F0E94D20EC8
:100FB000613021E0720710F4615001C06FEF86E4E8
:100FC0000E94401278C0EA94EF2809F095C01A30C8
:100FD00069F1C8F4183009F08FC060E188E40E941C
:100FE000401268E087E40E94401262E082E30E94BF
:100FF00040126CE080E30E94401261E08FEF0E949B
:10100000401260E336C01C30F9F01E3009F074C0A5
:1010100068E488E40E94401268E087E40E9440127D
:1010200063E082E30E94401267E01BC068E288E44C
:101030000E94401268E087E40E94401263E082E36D
:101040000E94401269E00DC068E388E40E944012EB
:1010500068E087E40E94401263E082E30E9440124D
:1010600068E080E30E94401261E08FEF0E9440122E
:1010700060E280E30E94401260E08FEF0E94401225
:10108000602F80E70E9440126B897C898D899E8940
:10109000412F0E94D20EAB012A8D222329F02F81ED
:1010A0003885A901460F571FCA010E94170FBC01BE
:1010B00081E70E944D1460914E0470914F0480911D
:1010C00050049091510460322EE47207810591051D
:1010D00010F00E94811481E00E94F712182F62E044
:1010E00081E00E94401280E00E941813612F81E08D
:1010F0000E94401281E001C080E06B960FB6F89428
:10110000DEBF0FBECDBFDF91CF911F910F91FF903A
:10111000EF900895AF92BF92DF92EF92FF920F93FC
:101120001F93CF93DF93CDB7DEB7A1970FB6F89497
:10113000DEBF0FBECDBF8091470491E09093A9021E
:101140008093CB021092AA021092CC020E94E3116B
:10115000811146C389E80E94F712682F616089E80F
:101160000E94401260E088E80E94401261E080E83E
:101170000E94401261E08FEF0E94401260E080E028
:101180000E94401281E90E94F71280934D0461E0B1
:1011900080E00E94401260E08FEF0E94401260E009
:1011A00080E80E94401280E60E94F712682F626178
:1011B00080E60E94401260E270E084E40E944D14D8
:1011C0006FEF81E00E94401261E080E80E944012CF
:1011D00061E08FEF0E94401260E080E00E944012C8
:1011E00066E08FEF0E94401283E80E94F712682F9A
:1011F000646083E80E94401267E08FEF0E94401213
:1012000061E081E80E94401261E080E80E944012A3
:101210006BE684E90E94401260E083E80E9440127D
:1012200061E070E080E090E00E94420E0E947C0E3F
:1012300070934C0460934B0483E80E94F712811171
:101240001AC08091480490914904892BA9F30E9407
:101250007C0E20914B0430914C04621B730B8091E7
:101260004804909149048617970730F78CE491E081
:101270000E947707B5C261E083E80E94401282E9CC
:101280000E94F712282F2F77E22EF82EFF1CFF2442
:10129000FF1C60E081E80E94401266E08FEF0E9430
:1012A000401283E80E94F712682F6B7F83E80E9448
:1012B000401261E08FEF0E94401261E080E00E94E6
:1012C000401260E08FEF0E94401260E080E80E94D0
:1012D00040128091470491E09093A9028093CB0241
:1012E0001092AA021092CC0260EB8AE394E00E9472
:1012F000BA0C0E94E3118093460466E08091470493
:101300000E9461128E01095E1F4F580136E0D32EF4
:10131000D00EDA1441F08AE394E00E946E0CF501DD
:1013200081935F01F6CF61E08FEF0E94401260E091
:101330008FE40E9440126CE28EE40E94401260E052
:101340008FEF0E94401264EB86EB0E944012F11076
:1013500002C060E001C06CE090E080E041E050E05D
:10136000282F269526952695782F7770F801E20F7D
:10137000F11D861710F09E110AC09A0101C0220FBC
:101380007A95EAF7209530812323208309C02081B4
:1013900030E002C0359527957A95E2F720FD9F5FF2
:1013A0008F5F8033E9F68091470491E09093A90222
:1013B0008093CB021092AA021092CC0260EB8AE3D7
:1013C00094E00E94BA0CD01621F0F80161918F01CF
:1013D000F6CF0E94E3118093460461E070E080E064
:1013E00090E00E94420E61E08FEF0E94401260E0A8
:1013F00080E00E94401260E08FEF0E94401260E0A7
:1014000089E00E94401260E080E10E94401260E0AA
:1014100081E10E94401261E084E20E9440126FEF7D
:1014200085E20E94401260E085E70E94401261E080
:101430008FEF0E9440126CE28EE40E94401260E046
:1014400088E40E94401260E280E30E94401260E063
:101450008FEF0E94401269E080E30E94401260E03A
:1014600084E50E94401264E081E30E94401263E040
:1014700082E30E94401263E880E40E94401265E229
:1014800086E40E94401260E080E60E94401260E024
:1014900087E20E94401266E080E50E94401260E010
:1014A00081E50E94401266E982E50E94401268E0F0
:1014B00086E50E94401260E387E50E94401260E0EA
:1014C00081E60E94401260E082E60E94401260E0E5
:1014D00084E60E94401260E085E60E94401260EAC5
:1014E00086E60E94401261E08FEF0E94401262E3A4
:1014F00082E20E94401264E187E40E9440126FEF92
:1015000089E40E94401260E08AE40E94401260E098
:101510008FEF0E9440126AE08AE70E94401260E06A
:101520008BE70E94401261E288E70E94401261E06E
:101530008FEF0E94401264E383E20E94401260E059
:1015400082E40E9440126FEF84E40E94401266E23F
:1015500085E40E94401265E086E40E94401260E447
:1015600080E40E94401266E08EE00E9440126AE130
:1015700080E20E94401260E483E40E94401260E036
:101580008FEF0E94401263E084E30E94401264E403
:1015900085E30E94401261E08FEF0E94401264E0F8
:1015A00081E30E94401269E08BE40E94401265E0F2
:1015B0008CE40E94401264E08DE40E94401260E0DE
:1015C0008FEF0E94401260E084E40E94401260E2CB
:1015D00085E40E94401268E087E40E94401268E2BD
:1015E00088E40E94401260E087E60E94401264E0B6
:1015F00080E70E94401261E081E70E9440126EEF96
:1016000082E70E94401260E086E70E94401260E09C
:1016100087E70E94401261E08FEF0E94401261E074
:101620008DE00E94401260E08FEF0E94401261E066
:1016300080E80E94401268EF81E00E94401261E061
:101640008FEF0E94401261E08EE80E94401261E03C
:1016500080E00E94401260E08FEF0E94401260E044
:1016600080E80E94401261E070E080E090E00E941B
:10167000420E64E08AE00E94401284E80E94F71261
:10168000682F6F7E84E80E94401261E08BE00E9428
:101690004012CE014D960E944F13BE016F5F7F4FE7
:1016A000CE014D960E946D138D8D882349F08B8558
:1016B0009C85AD85BE858C57924FAF4FBF4F04C000
:1016C00086E39BE0A0E0B0E02F8D222369F04B85FC
:1016D0005C856D857E854E545D4F6F4F7F4F440F07
:1016E000551F661F771F0BC02E8D222361F04B857F
:1016F0005C856D857E854C565D4F6F4F7F4F840FA7
:10170000951FA61FB71F28A1222361F04F85588976
:1017100069897A894C565D4F6F4F7F4F840F951FB3
:10172000A61FB71F29A1222361F04B895C896D890F
:101730007E894A5D5D4F6F4F7F4F840F951FA61FB7
:10174000B71F80934E0490934F04A0935004B0931E
:10175000510461E070E080E090E00E94420E68EE8B
:1017600081E00E94401260914E0470914F0480917C
:101770005004909151046032FEE47F078105910589
:1017800010F00E94811461E070E080E090E00E941F
:10179000420E61E081E00E94401280E40E94181332
:1017A000182F811103C082E791E012C061E070E060
:1017B00080E090E00E94420E62E081E00E944012D0
:1017C00080E00E941813182F811105C08EEA91E065
:1017D0000E94770706C068EE81E00E94401201C0B7
:1017E00010E0812FA1960FB6F894DEBF0FBECDBFDB
:1017F000DF91CF911F910F91FF90EF90DF90BF90FD
:10180000AF900895FC018091F001811103C08FEF2A
:101810009FEF08959FB7F89482E08093E9002091AC
:10182000F20030E01216130614F421E030E0211526
:10183000310559F0289A84E68093EF018091F100F8
:1018400080838091F200882319F09FBFC901089519
:101850008BE68093E800F9CF85ED8093BC00809102
:10186000BC0084FDFCCF1092A80208954091320282
:10187000262F30E0240F311D21323105DCF4209178
:10188000A8022430C9F4FC0180E090E0861758F4E7
:10189000309132022191DC01A05FBD4FA30FB11D39
:1018A0002C930196F3CF80913202680F609332023D
:1018B00080E0089581E0089582E008950895E09120
:1018C000610280916002E81730F4F0E0EE59FD4FBC
:1018D000808190E008958FEF9FEF089590916102CD
:1018E00080916002981750F4E92FF0E0EE59FD4F17
:1018F000208130E09F5F9093610202C02FEF3FEFA5
:10190000C90108958091600290E020916102821BDC
:1019100091090895CF92DF92EF92FF920F931F9358
:10192000CF93DF937C01262F972F8A018091A90204
:10193000882391F0C62FD72F6E01C40ED51ECC156B
:10194000DD0571F06991D701ED91FC910190F08175
:10195000E02DC7010995F3CF642F822F0E94360C2A
:10196000C801DF91CF911F910F91FF90EF90DF9011
:10197000CF900895CF93DF931F92CDB7DEB76983E1
:101980002091A9022223D1F02091CC02203240F0F4
:1019900021E030E0FC013383228380E090E015C039
:1019A0008091AA02E82FF0E0E555FD4F99819083E0
:1019B0008F5F8093AA028093CC0205C061E0CE01C4
:1019C00001960E94360C81E090E00F90DF91CF915C
:1019D0000895089580E090E00895CF93DF931F92DB
:1019E000CDB7DEB78230A0F0FB01408150E08181AD
:1019F0009A01280F311D2131310554F487E0898384
:101A000048505E4F6F5F7F4FCE0101960E94761166
:101A10000F90DF91CF91089590E0FC013197EF3066
:101A2000F105B0F5E35AFF4F0C94081B809180003C
:101A30008F7703C0809180008F7D80938000089510
:101A400080918000877FF9CF84B58F7702C084B5FD
:101A50008F7D84BD0895809190008F7707C080911D
:101A600090008F7D03C080919000877F80939000CD
:101A700008958091C0008F7703C08091C0008F7D52
:101A80008093C00008958091C200877F8093C20038
:101A90000895CF93DF9390E0FC01EF5AFE4F24911D
:101AA000FC01EE5CFE4F8491882361F190E0880F89
:101AB000991FFC01E35FFD4FC591D491FC01EA5EE3
:101AC000FE4FA591B491611109C09FB7F894888128
:101AD000209582238883EC912E230BC0623061F421
:101AE0009FB7F8943881822F809583238883EC9167
:101AF0002E2B2C939FBF06C08FB7F894E8812E2B16
:101B000028838FBFDF91CF9108951F93CF93DF93E9
:101B1000182FEB0161E00E94490D209711F460E05D
:101B200004C0CF3FD10539F461E0812FDF91CF911F
:101B30001F910C942F07E12FF0E0E059FE4FE49144
:101B40004E2F50E0FA013197EF30F10508F06CC0EC
:101B5000E459FF4F0C94081B84B5806884BDC7BD51
:101B600068C084B5806284BDC8BD63C080918000B8
:101B7000806880938000D0938900C093880059C00A
:101B800080918000806280938000D0938B00C0930E
:101B90008A004FC080918000886080938000D0933D
:101BA0008D00C0938C0045C0809190008068809328
:101BB0009000D0939900C09398003BC08091900012
:101BC000806280939000D0939B00C0939A0031C0B4
:101BD00080919000886080939000D0939D00C09386
:101BE0009C0027C08091C00080688093C0008091D5
:101BF000C0008F7B8093C000C093CF001AC080913B
:101C0000C00080628093C000C093D00012C0809159
:101C1000C20088608093C2008091C2008B7F809355
:101C2000C200C093D20005C0C038D1050CF07CCFF3
:101C300076CFDF91CF911F9108953FB7F8948091AF
:101C40005C0290915D02A0915E02B0915F0226B5A8
:101C5000A89B05C02F3F19F00196A11DB11D3FBFE4
:101C6000BA2FA92F982F8827820F911DA11DB11D72
:101C7000BC01CD0142E0660F771F881F991F4A956E
:101C8000D1F708958F929F92AF92BF92CF92DF9239
:101C9000EF92FF926B017C010E941D0E4B015C01D3
:101CA000C114D104E104F104F1F00E941D0EDC0125
:101CB000CB0188199909AA09BB09883E9340A1055F
:101CC000B10570F321E0C21AD108E108F10888EEED
:101CD000880E83E0981EA11CB11CC114D104E1043C
:101CE000F10419F7DDCFFF90EF90DF90CF90BF9018
:101CF000AF909F908F9008952FB7F89460915802FD
:101D00007091590280915A0290915B022FBF089501
:101D10001F920F920FB60F9211242F933F938F9320
:101D20009F93AF93BF938091580290915902A091D5
:101D30005A02B0915B023091570223E0230F2D37F6
:101D400020F40196A11DB11D05C026E8230F0296BF
:101D5000A11DB11D20935702809358029093590200
:101D6000A0935A02B0935B0280915C0290915D0255
:101D7000A0915E02B0915F020196A11DB11D8093FA
:101D80005C0290935D02A0935E02B0935F02BF91EC
:101D9000AF919F918F913F912F910F900FBE0F9018
:101DA0001F9018954F925F926F927F928F929F92A1
:101DB000AF92BF92CF92DF92EF92FF924B015C0104
:101DC000A42FB0E020E03FE24AE350E00E94CC1AAA
:101DD0006C507E4F8F4F9F4F28EE33E040E050E035
:101DE0000E94E61A69017A0129013A017694679402
:101DF00057944794A8EEB3E0A50194010E94CC1A31
:101E0000640D751D861D971DA70196010E94E61A97
:101E1000CA01B901FF90EF90DF90CF90BF90AF90D3
:101E20009F908F907F906F905F904F9008950F9349
:101E30001F930097C9F0AC014150510960E070E078
:101E400080E090E08A019B010027012B022B032BED
:101E500031F076956795579547950196F3CF982F72
:101E60008827842B952B02C080E090E01F910F9172
:101E700008951F920F920FB60F9211242F933F9344
:101E80004F935F936F937F938F939F93AF93BF9382
:101E9000EF93FF938091B900887F803609F49CC04E
:101EA00068F5883209F45BC090F4803109F454C0BD
:101EB00038F4882309F4F6C0883009F44DC0F6C020
:101EC000883109F44CC0803209F45DC0EFC0803421
:101ED00009F468C048F4803309F455C0883309F028
:101EE000E5C08093A602D8C0803509F44FC088357C
:101EF00009F45DC0883409F0D9C0D6C0883909F426
:101F0000C7C0A8F4883709F467C038F4883609F4E4
:101F100063C0803709F460C0C9C0883809F4B8C00C
:101F2000803909F45FC0803809F0C0C05BC0803BD5
:101F300009F486C038F4803A09F466C0883A09F496
:101F40007FC0B4C0803C09F4A7C0883C09F4A4C099
:101F5000883B09F48AC0AAC08091830210C0909186
:101F6000A5028091A402981770F5E091A50281E086
:101F70008E0F8093A502F0E0EC57FD4F8081809397
:101F8000BB0085EC86C08093A6028EC0E091A502BE
:101F900081E08E0F8093A5028091BB00F0E0EC57AA
:101FA000FD4F80839091A5028091A4026EC0E091C4
:101FB000A50281E08E0F8093A5028091BB00F0E026
:101FC000EC57FD4F80838091A70281116DC081E0A5
:101FD0008093820284EA61C083E08093A802109219
:101FE0005602CFCF80915602803208F051C0E09166
:101FF000560281E08E0F809356028091BB00F0E084
:10200000EA5CFD4F8083BDCF85EC8093BC001092CD
:10201000A80280915602803230F4E0915602F0E03E
:10202000EA5CFD4F10826091560270E0E09134024C
:10203000F091350286E392E009951092560236C07F
:1020400084E08093A8021092330210923202E09151
:102050003002F0913102099580913202811105C060
:1020600081E08093320210921002E091330281E00D
:102070008E0F80933302F0E0E05FFD4F808180930C
:10208000BB009091330280913202981708F479CF07
:1020900085E88093BC000AC085EC8093BC00109258
:1020A000A80204C01092A6020E942C0CFF91EF918E
:1020B000BF91AF919F918F917F916F915F914F9160
:1020C0003F912F910F900FBE0F901F9018951F9268
:1020D0000F920FB60F9211240F900FBE0F901F900A
:1020E00018950F931F93CF93DF931F92CDB7DEB751
:1020F0008C0169830E94B61A6981681741F0C80192
:102100000F90DF91CF911F910F910C94BE1A0F90F9
:10211000DF91CF911F910F910895FF920F931F931D
:10212000CF93DF9300D0CDB7DEB7823008F4D4C0B0
:102130008B01F82EDB01EC914E2F50E04031510520
:1021400008F0B8C0FA01E558FF4F0C94081BFB01DA
:102150008181982F93788091F8018C77892B8093D7
:10216000F801A8C0DB0111968C918093FE01A2C0FA
:10217000FB0181818093FF019DC0DB0111968C9151
:102180008093000297C090910102FB018181981712
:1021900061F01A8287E0898340E050E0BE016E5F03
:1021A0007F4FCE0101960E947611D80111968C9135
:1021B00011978093010211966C9160935204809163
:1021C000F80187FD77C080E090E00E94711072C036
:1021D000FB018181809304028091F80187FD05C095
:1021E000618183E090E00E947110F2E0FF16D1F06F
:1021F000D80112968C911297809305028091F80174
:1022000087FD10C012966C9109C0FB0181818093FB
:1022100005028091F80187FD05C0618184E090E0AE
:102220000E9471108091040290E0982F88272091DD
:102230000502820F911D9093F7018093F6013AC039
:10224000DB0111968C911197809306028091F80121
:1022500087FD06C011966C9185E090E00E94711098
:10226000B2E0FB16D1F0F8018281809307028091E1
:10227000F80187FD12C062810CC0DB0111968C91C0
:102280001197809307028091F80187FD06C011968F
:102290006C9186E090E00E9471108091060290E0BF
:1022A000982F882720910702820F911D9093F501A6
:1022B0008093F40190916C048091520498130CC0A7
:1022C0001A8287E0898340E050E0BE016E5F7F4F55
:1022D000CE0101960E9476110F900F90DF91CF9161
:1022E0001F910F91FF9008950C94B61ACF92DF9230
:1022F000EF92FF920F931F93CF93DF936C018B01AB
:102300007A01FB01D081DE5FFC01C0819091520413
:10231000C90FCD0F8091C9008F7E8093C900809135
:10232000C90088608093C9006EEF8DEC92E00E9436
:102330006C026EEF8DEC92E00E946C026091520490
:102340008DEC92E00E946C026D2F8DEC92E00E9469
:102350006C02F60160818DEC92E00E946C02D0E08C
:10236000F8018081D81770F46701CD0ED11CF601F9
:1023700060818DEC92E00E946C02F6018081C80FB2
:10238000DF5FEECF6C2F70E0609570958DEC92E082
:102390000E946C028DEC92E00E94B3028091C90011
:1023A00080618093C9008091C900877F8093C900B4
:1023B00052985A9ADF91CF911F910F91FF90EF9011
:1023C000DF90CF9008952091CC029091CB022132E2
:1023D00008F04AC08091A8028111FCCF32E030930E
:1023E000A80231E03093A7023FEF3093A60210928B
:1023F000A5022093A402ABEAB2E044E852E0FA015D
:102400003E2F341B321718F43D913193F9CF1092BF
:10241000830220918302990F922B909383029091D3
:102420008202913061F41092820290918302909323
:10243000BB009091BC0093FDF8CF95EC01C095EEE8
:102440009093BC009091A8029230E1F39091A60283
:102450009F3F79F08091A602803241F08091A602E0
:10246000803331F084E005C081E003C082E001C028
:1024700083E01092AA021092CC021092A902089551
:102480001F93CF93DF93162FC6E4D4E0998121E008
:102490002093A9029093CB021092AA021092CC0230
:1024A000682F8AE394E00E94BA0C612F8AE394E0DB
:1024B0000E94BA0C0E94E3118883DF91CF911F9193
:1024C00008959091A8029111FCCF613208F060E26A
:1024D00091E09093A8029093A7022FEF2093A60279
:1024E0001092A502260F2093A4029093830290914C
:1024F0008302880F892B809383028091820281302E
:1025000061F410928202809183028093BB008091DB
:10251000BC0083FDF8CF85EC01C085EE8093BC0044
:102520008091A8028130E1F38091A502861710F412
:102530006091A502A4E8B2E022E632E0F9018E2F14
:10254000821B861718F48D918193F9CF1092610246
:1025500060936002862F0895CF93DF93C6E4D4E0A2
:10256000998121E02093A9029093CB021092AA02B4
:102570001092CC02682F8AE394E00E94BA0C0E9469
:10258000E311888362E089810E9461128AE394E00A
:102590000E946E0CD82F80E0C82F8AE394E00E943E
:1025A0006E0C8C2B9D2BDF91CF91089561E080E81C
:1025B0000E94401261E08FEF0E94401260E080E0D4
:1025C0000E94401260914D0481E90E94401261E036
:1025D00080E00E94401260E08FEF0E94401260E0B5
:1025E00080E80E94401262E080E00C944012CF9399
:1025F000DF93C6E4D4E0998121E02093A90290936F
:10260000CB021092AA021092CC02682F8AE394E0C7
:102610000E94BA0C0E94E311888361E089810E94C4
:1026200061128AE394E00E946E0CDF91CF910895CD
:10263000682F616080E00E94401261E070E080E0FD
:1026400090E00E94420E0E947C0E70934C046093B6
:102650004B0483E10E94F7128770B9F4809148041B
:1026600090914904892BA9F30E947C0E20914B0480
:1026700030914C04621B730B809148049091490483
:102680008617970730F780E0089561E08BE00E949D
:10269000401260E080E00E94401281E00895CF93F4
:1026A000DF93EC0181E00E94F71284FB992790F9F7
:1026B000988383FB992790F99A8382FB992790F955
:1026C000998386FB992790F99B83982F991F9927C7
:1026D000991F9C83DF91CF9108954F925F926F92E3
:1026E0007F928F929F92AF92BF92CF92DF92EF92A2
:1026F000FF920F931F93CF93DF938C01EB0180E543
:102700000E94F7128F5F880F90E09983888386E498
:102710000E94F712E82EF12C8FEFE81AF80AFD82DA
:10272000EC82A881B0E020E03FE24AE350E00E9462
:10273000CC1A6C507E4F8F4F9F4FE8EE4E2EE3E049
:102740005E2E612C712CA30192010E94E61A4901B0
:102750005A01D7010E940E1BB694A79497948794B0
:10276000680D791D8A1D9B1DA30192010E94E61A26
:102770002A873B874C875D8781E50E94AC125C010C
:10278000BB2402C0AA0CBB1C9A95E2F7EFEFAE1A6D
:10279000BE0ABF82AE82A881B0E020E03FE24AE3F9
:1027A00050E00E94CC1A6C507E4F8F4F9F4FA30178
:1027B00092010E94E61A69017A01D5010E94CC1AA1
:1027C000F694E794D794C7946C0D7D1D8E1D9F1DC4
:1027D000A30192010E94E61A2E873F87488B598BEE
:1027E00080E70E94F7128F5F880F90E09B838A83B7
:1027F00081E70E94AC129C01332702C0220F331FD5
:102800009A95E2F72F5F3F4F39872887F801838138
:10281000882331F08E819F81281B390B39872887C7
:10282000AA81B0E020E03FE24AE350E00E94CC1AE7
:102830006C507E4F8F4F9F4F28EEC22E23E0D22E3A
:10284000E12CF12CA70196010E94E61A49015A01D8
:10285000B694A79497948794A885B9850E94CC1ABA
:10286000680D791D8A1D9B1DA70196010E94E61A1D
:102870002A8B3B8B4C8B5D8BDF91CF911F910F91FE
:10288000FF90EF90DF90CF90BF90AF909F908F9090
:102890007F906F905F904F900895EF92FF921F93FB
:1028A000CF93DF931F92CDB7DEB7162F96E4E92EB4
:1028B00094E0F92EF701918121E02093A9029093F1
:1028C000CB021092AA021092CC02682F8AE394E005
:1028D00079830E94BA0C7981672F8AE394E00E9481
:1028E000BA0C612F8AE394E00E94BA0C0E94E311B3
:1028F000F70180830F90DF91CF911F91FF90EF90B0
:1029000008958F929F92AF92BF92CF92DF92EF92F3
:10291000FF920F931F93CF93DF93CDB7DEB76B97E3
:102920000FB6F894DEBF0FBECDBF6B017C01CE01A8
:1029300047960E944F13BE016F5F7F4FCE014796AF
:102940000E946D138F89882349F04B855C856D85C6
:102950007E854A5C544F6F4F7F4F04C048EE58E06D
:1029600060E070E0898D882369F08B859C85AD855A
:10297000BE858E549D4FAF4FBF4F880F991FAA1F22
:10298000BB1F0BC0888D882361F08B859C85AD852E
:10299000BE858C569D4FAF4FBF4F480F591F6A1FC2
:1029A0007B1F0A8D002361F08F859889A989BA89D8
:1029B0008C569D4FAF4FBF4F480F591F6A1F7B1F4B
:1029C0001B8D112359F14A5D5D4F6F4F7F4FC41628
:1029D000D506E606F70620F146015701841A950A46
:1029E000A60AB70AC501B4014B810E94D20E9B0111
:1029F000002321F02F813885260F371FC9010E943F
:102A0000170FBC0181E70E944D14C0924E04D09272
:102A10004F04E0925004F092510403C011E001C051
:102A200010E0812F6B960FB6F894DEBF0FBECDBFBE
:102A3000DF91CF911F910F91FF90EF90DF90CF909A
:102A4000BF90AF909F908F9008952FB7F89483E038
:102A50008093E9009091E800892F807295FF04C06F
:102A60009091F20080E4891B2FBF08958091820429
:102A700081110DC082E080937E0484E080937F0406
:102A8000109281041092800481E0809382048EE78A
:102A900094E00895CF93DF9300D01F92CDB7DEB7B7
:102AA000789484B5826084BD84B5816084BD85B529
:102AB000826085BD85B5816085BD80916E00816035
:102AC00080936E00109281008091810082608093DB
:102AD00081008091810081608093810080918000DD
:102AE000816080938000809191008260809391004A
:102AF000809191008160809391008091900081602D
:102B0000809390008091C10084608093C100809187
:102B1000C10082608093C1008091C1008160809378
:102B2000C1008091C30081608093C3008091C00088
:102B300082608093C0008091C20081608093C20057
:102B400080917A00846080937A0080917A0082601C
:102B500080937A0080917A00816080937A008091DE
:102B60007A00806880937A001092F0011092F3014D
:102B70001092F2018091D70081608093D70080EAA3
:102B80008093D80089B5806189BD89B5826089BD8F
:102B900009B400FEFDCF61E070E080E090E00E94AB
:102BA000420E8091D8008F7C80618093D800809104
:102BB000E000807F8093E0008091E1008E7E809332
:102BC000E1008DE08093E200559A209A5D98289864
:102BD000EEEFFFE7859194918B3F9C4D19F481E0D6
:102BE0008093F10161E081E090E00E94711061E06A
:102BF00082E090E00E94711080E88093F80180E00C
:102C000090E00E9474118093010283E090E00E94A2
:102C10007411082F8093040284E090E00E947411E4
:102C2000C82E8093050285E090E00E947411182F51
:102C30008093060286E090E00E947411D82E809363
:102C4000070281E090E00E9474118093020282E00A
:102C500090E00E94741180930302202F30E0322F05
:102C600022272C0D311D3093F7012093F601212FDF
:102C700030E0322F2227C9018D0D911D9093F5016F
:102C80008093F40161E08DE00E94490D60E08DE0E9
:102C90000E942F0761E08BE00E94490D68EC70E014
:102CA0008BE00E94850D61E08AE00E94490D68EC8E
:102CB00070E08AE00E94850D61E089E00E94490D84
:102CC00068EC70E089E00E94850D82E38093FE014C
:102CD0001092FF011092000262E085E10E94490D0E
:102CE00062E084E10E94490D62E083E10E94490DA7
:102CF00062E086E10E94490D62E087E10E94490D91
:102D00001092FD0160E082E10E94490D8FEF8093F7
:102D1000FB018093FC018091010281508D3F40F0C6
:102D200081E08093010261E080E090E00E947110F8
:102D300080910102809352040E947C0E60936D0486
:102D400070936E0480936F0490937004E091DD02A1
:102D5000F091DE0282E08083E091D902F091DA0204
:102D60001082E091DB02F091DC0291E090831092FE
:102D7000E502E091E102F091E20286E08083E091D9
:102D8000DF02F091E002808180618083E091DF02C8
:102D9000F091E002808188608083E091DF02F09111
:102DA000E002808180688083E091DF02F091E002A0
:102DB00080818F7D808343E050E060E070E040934D
:102DC000D1025093D2026093D3027093D4028091C7
:102DD000C90080618093C9008091C900877F80937A
:102DE000C90052985A9A109272041092710410926B
:102DF00074041092730410927A0410927904109261
:102E00007C0410927B042DEE3CE0309376042093FA
:102E100075042DE830E130937804209377042FEF88
:102E20003FEF3093F7032093F60310926102109264
:102E300060021092AA021092CC021092A802909303
:102E4000A7021092820261E082E00E942F0761E0F7
:102E500083E00E942F078091B9008E7F8093B90094
:102E60008091B9008D7F8093B90088E48093B80089
:102E700085E48093BC0062E370E080E090E00E9413
:102E8000420E60E088E00E94490D8FEF8093F901C7
:102E90008093FA010E948A089091F801811104C080
:102EA0009F7B9093F80126C090649093F80164E6AC
:102EB00070E080E090E00E94420E84EF91E09093F9
:102EC0004904809348046CE070E084E40E944D144F
:102ED00062E180E090E00E9485076EE081E090E092
:102EE0000E94850764E670E080E090E00E94420E58
:102EF0000E94D6120E947C0E609308027093090211
:102F000080930A0290930B0268EE73E080E090E0F9
:102F10000E94420E80917D0483FD02C098E001C0B2
:102F200098E28770892B98E10FB6F894A895909352
:102F300060000FBE80936000809160008064809389
:102F4000600077E0D72EE6E0CE2EF5E09F2EA4E0DD
:102F50008A2EB4EFAB2EBB24B394A8950E941D0E0D
:102F60009091D9008091F80190FF06C09091E30004
:102F700097FF02C0806201C08F7D8093F80180912D
:102F80000C0290910D02A0910E02B0910F02853FAC
:102F90009140A105B10540F010920C0210920D0273
:102FA00010920E0210920F0263E0762E8DEC92E0EA
:102FB0000E943502892B09F41BC18DEC92E00E941E
:102FC00013028C0197FDF2CF8B830E947C0E6093DD
:102FD0006D0470936E0480936F049093700430912D
:102FE0005304832F90E02B818730910508F0F3C0C4
:102FF000FC01EA5AFF4F0C94081B2E3F09F0EBC06E
:103000003F5F30935304D2CF80915204281711F0C0
:103010002E3F19F47092530408C01092530410927A
:1030200069041092680410926B0400936A04009380
:103030006C04BCCF80916A04800F80936A04009373
:10304000680480925304B2CF80916A04800F809309
:103050006A0400936B04213019F00550023018F413
:10306000C0925304A3CF273009F4B5C09092530403
:103070009DCF80916A04800F80936A0480916904D7
:10308000E82FF0E0EE5AFB4F02838F5F80936904D4
:1030900090E002962091680430E08217930704F7CD
:1030A00085CF112780916A04809590E00817190751
:1030B00009F091C080916B048330D1F128F4813004
:1030C00059F0823051F187C08530E1F008F43EC0FC
:1030D000863009F459C07FC090916C0480915204ED
:1030E00098130BC01A82D98240E050E0BE016E5F97
:1030F0007F4FCE0101960E947611E0917104F0910C
:10310000720404C0E0917304F0917404309709F4E0
:1031100062C060E070E080E017C090916C04809124
:103120005204981358C0E0917504F091760404C0DD
:10313000E0917704F0917804309709F44CC08091C5
:10314000680464E574E08250099545C0E091790413
:10315000F0917A04309731F08091680464E574E06E
:103160008250099590916C0480915204981333C059
:103170001A82D98240E050E0BE016E5F7F4FCE01DF
:1031800001960E94761127C0E0917B04F0917C04A7
:10319000309721F060E070E080E0099590916C0438
:1031A0008091520498130CC01A8287E0898340E012
:1031B00050E0BE016E5F7F4FCE0101960E947611F6
:1031C00098E088E10FB6F894A895809360000FBE50
:1031D00090936000FFCF10925304109269041092F4
:1031E000680410926B0410926C0410926A04DECE94
:1031F0008091040290E0982F882720910502820F89
:10320000911D9093F7018093F6018091060290E062
:10321000982F882720910702820F911D9093F50126
:103220008093F4018091F801837090E001964DE75E
:10323000489F9001499F300D1124C901330FAA0BFB
:10324000BB0B40910C0250910D0260910E027091E7
:103250000F0284179507A607B707E0F08091FE01DB
:103260000FEF10E0B801681B71098BE00E94850D1B
:103270008091FF01B801681B71098AE00E94850DE9
:1032800080910002B801681B710989E00E94850DD8
:1032900061E010C06FEF70E08BE00E94850D6FEF72
:1032A00070E08AE00E94850D6FEF70E089E00E9477
:1032B000850D60E08DE00E942F078091F80186FF68
:1032C00020C088E00E940607892BD9F48EE10E9475
:1032D000AC128C0161E08BE00E9440121093F90166
:1032E0000093FA012091F6013091F7019091F801D5
:1032F0000217130710F4986001C0977F9093F801AC
:1033000004C08091F80186FFA7C0E1E0F2E0E491FB
:1033100020917B00E3FBEE24E0F8F12CC70135E0BF
:10332000880F991F3A95E1F7922F9F7D892B809303
:103330007B00E770E064E0937C0080917A00806419
:1033400080937A0080917A0086FDFCCF809178008E
:103350002091790090E0922B9093FB018093FC01E7
:103360004091F4015091F5012091F8014817590757
:1033700010F4246001C02B7F2093F8011092FD010E
:1033800085E10E940607892B29F48091FD01816067
:103390008093FD0183E10E940607892B29F4809127
:1033A000FD0182608093FD0184E10E940607892B64
:1033B00029F48091FD0184608093FD0186E10E94E3
:1033C0000607892B29F48091FD0188608093FD0117
:1033D00087E10E940607892B29F48091FD01806115
:1033E0008093FD019091FD018091F801992311F0E6
:1033F000806101C08F7E8093F8010E947C0E009155
:1034000008021091090220910A0230910B02601704
:10341000710782079307E9F00E947C0E609308020F
:103420007093090280930A0290930B0280910C0220
:1034300090910D02A0910E02B0910F020196A11D74
:10344000B11D80930C0290930D02A0930E02B093D5
:103450000F020E94D50281CD0E948A08882309F4B8
:1034600054CF8091F80180648093F80164E670E0A5
:1034700080E090E00E94420EB0924904A09248047D
:103480006CE070E084E40E944D1462E180E090E022
:103490000E9485076EE081E090E00E94850764E667
:1034A00070E080E090E00E94420E0E94D6122DCF84
:1034B000EDECF2E01382128288EE93E0A0E0B0E03F
:1034C00084839583A683B78327E131E0318320830A
:1034D0002DEC30E0358724872CEC30E037872687C9
:1034E00028EC30E0318B208B29EC30E0338B228BC1
:1034F0002AEC30E0358B248B2EEC30E0378B268B9A
:10350000118E128E138E148EEAEEF3E01382128265
:1035100084839583A683B78329E231E031832083B6
:103520002FEF3FEF35872487EAE3F4E0138212821E
:1035300084839583A683B7838BE391E09183808313
:1035400082E080937D040FB6F894A8958091600086
:10355000886180936000109260000FBEE6E4F4E0A2
:1035600089E281831382128214820895F999FECF31
:1035700092BD81BDF89A992780B50895262FF999B3
:10358000FECF1FBA92BD81BD20BD0FB6F894FA9A46
:10359000F99A0FBE019608950E94D71AA59F900D23
:1035A000B49F900DA49F800D911D11240895A29F9A
:1035B000B001B39FC001A39F700D811D1124911D07
:1035C000B29F700D811D1124911D0895A1E21A2E44
:1035D000AA1BBB1BFD010DC0AA1FBB1FEE1FFF1FB7
:1035E000A217B307E407F50720F0A21BB30BE40B07
:1035F000F50B661F771F881F991F1A9469F760954E
:103600007095809590959B01AC01BD01CF01089507
:10361000EE0FFF1F0590F491E02D0994B7FF0C9475
:10362000CC1A0E94CC1A821B930B0895F894FFCFFA
:10363000FFFFFFFF00E100000000000000C18081EB
:10364000000000000000006C02D8010302B3023544
:10365000021302270200000000DF024C03D103F531
:10366000020003F903D50300000000BA0C8A0CEA3B
:103670000C5E0C820C6E0C5F0C0D0A002020425375
:103680004F44203A20564C35334C305820666169FF
:103690006C2072656164205350414420696E666FEE
:1036A0007300202042534F44203A20564C35334C6F
:1036B0003058206661696C20706572666F726D208B
:1036C00073696E676C65207265662063616C696200
:1036D000726174696F6E20283078343029002020A0
:1036E00042534F44203A20564C35334C30582066D4
:1036F00061696C20706572666F726D2073696E67A8
:103700006C65207265662063616C696272617469C0
:103710006F6E2028307830302900FFFFFFFFFFFF59
:10372000FFFFFFFFFFFFFFFFFFFFFFFFFFFFFFFFA9
:10373000FFFFFFFFFFFFFFFFFFFFFFFFFFFFFFFF99
:10374000FFFFFFFFFFFFFFFFFFFFFFFFFFFFFFFF89
:10375000FFFFFFFFFFFFFFFFFFFFFFFFFFFFFFFF79
:1070000055C000006EC000006CC000006AC00000E7
:1070100068C0000066C0000064C0000062C00000DC
:1070200060C000005EC00000F2C400005AC0000052
:1070300058C0000056C0000054C0000052C00000FC
:1070400050C0000078C000004CC000004AC00000E2
:1070500048C0000046C0000044C0000042C000001C
:1070600040C000003EC000003CC000003AC000002C
:1070700038C0000036C0000034C0000032C000003C
:1070800030C000002EC000002CC000002AC000004C
:1070900028C0000026C0000024C0000022C000005C
:1070A00020C000001EC000001CC0000011241FBE34
:1070B000CFEFDAE0DEBFCDBF11E0A0E0B1E0E2E368
:1070C000FFE702C005900D92A83AB107D9F711E089
:1070D000A8EAB1E001C01D92AE3BB107E1F78FD342
:1070E00026C78ECFF89410926F00109281001092F4
:1070F00085001092840081E085BF15BE47985D9899
:1071000028980C94000008952091B2013091B301A9
:107110002F5F3F4F3093B3012093B201932F37FF7E
:1071200003C08EEF831B982F990F921710F4479886
:107130000895479A08951F920F920FB60F92112447
:107140002F938F939F93EF93FF931092850010924C
:1071500084008091A8019091A901009741F00197C6
:107160009093A9018093A801892B09F45D988091DF
:10717000AA019091AB01009741F001979093AB0168
:107180008093AA01892B09F42898E0E0F0E085912A
:1071900094918F5F9F4F49F08091AC019091AD0128
:1071A00001969093AD018093AC01FF91EF919F9177
:1071B0008F912F910F900FBE0F901F90189584E024
:1071C0008093E9000DC08091E8008B778093E80000
:1071D00003C08EB3882351F08091E80082FFF9CF7D
:1071E0008091E80085FFEFCF8091F1000895982FFE
:1071F00083E08093E9008091E80085FD0DC08091D7
:10720000E8008E778093E80003C08EB3882369F08E
:107210008091E80080FFF9CF9093F1005D9A84E6B9
:1072200090E09093A9018093A80108954F925F92F6
:107230006F927F928F929F92AF92BF92CF92DF9286
:10724000EF92FF920F931F93CF93DF9384E080938D
:10725000E9008091E80082FF57C2289A84E690E016
:107260009093AB018093AA01AADF182F853481F493
:107270008CE49DE19093AD018093AC0107B600FCD6
:10728000FDCFF999FECF81E180935700E89503C0C7
:10729000843519F494DF8DE00DC28C34E1F3803530
:1072A000D1F3843721F484E4A2DF80E003C2813685
:1072B00011F489E5FFC18134B1F481DF182F7FDF3C
:1072C00090E0880F991FAA2797FDA095BA2F312F1C
:1072D000330F20E0442737FD4095542F822B932B0A
:1072E000A42BB52BB8C1803711F483E5E3C18335F6
:1072F00049F4C0E0D1E089917ADF21E0C730D207BC
:10730000D1F7D9C1863521F481E371DF80E3D2C1A1
:10731000833731F487E86BDF85E969DF8EE1CAC125
:107320008536B9F4E0E0F0E093E085E09093570013
:10733000E89507B600FCFDCF80935700E89507B6A7
:1073400000FCFDCFE058FF4FA0E7E030FA0771F7EF
:10735000A2CF823739F4E1E0F0E089E08093570072
:107360008491A8C1863439F4E0E0F0E089E08093AC
:10737000570084919FC18E3439F4E3E0F0E089E056
:1073800080935700849196C1813539F4E2E0F0E0B2
:1073900089E08093570084918DC1823631F489E56C
:1073A00026DF80E024DF80E885C1823419F087364B
:1073B00009F0E5C01092AD011092AC0100DF082F7A
:1073C000FEDEF82EFCDE682E8554823008F071C196
:1073D000902F80E0CF2DD0E0C82BD92B10926F00DA
:1073E000173609F04BC081E180935700E895DD2402
:1073F000CC24C3943FC0E090AE01F090AF01009167
:10740000B0011091B101B6E46B16D9F4ED2DF0E0A6
:10741000EE29FF29E4918E2FEADEDD2081F082E063
:1074200090E0A0E0B0E0E80EF91E0A1F1B1FE092FA
:10743000AE01F092AF010093B0011093B101DC24D2
:1074400018C0D801C701B695A7959795879559D5C6
:10745000CEDE82E090E0A0E0B0E0E80EF91E0A1F68
:107460001B1FE092AE01F092AF010093B0011093A8
:10747000B1012197209709F0BECF7DC08090AE0169
:107480009090AF01A090B001B090B10196E4691660
:1074900009F05DC083E0F40180935700E89507B6DA
:1074A00000FCFDCF54C0F6E46F1661F5772031F192
:1074B000E090AE01F090AF010091B0011091B101E8
:1074C0007EDED82ECC24852D90E08C299D29F701D5
:1074D0000C0140925700E895112482E090E0A0E072
:1074E000B0E0E80EF91E0A1F1B1FE092AE01F092F9
:1074F000AF010093B0011093B10102C060DE582EBD
:10750000742423C0E090AE01F090AF010091B0016F
:107510001091B10116950795F794E79450DE682F06
:10752000C701F7D48091AE019091AF01A091B00155
:10753000B091B1010296A11DB11D8093AE0190934F
:10754000AF01A093B001B093B101219704C05524BD
:10755000772444244394209709F0A5CF96E4691634
:1075600041F485E0F40180935700E89507B600FCEC
:10757000FDCF8DE03CDE82E080936F009CC08334C1
:1075800071F40091AE011091AF0119DE90E021E09D
:10759000F8010C0120935700E89511247CCE833626
:1075A00019F5E090AE01F090AF010091B00110919B
:1075B000B10105DEF701E16090E021E00C012093CC
:1075C0005700E895112482E090E0A0E0B0E0E80EDA
:1075D000F91E0A1F1B1FE092AE01F092AF0100934B
:1075E000B0011093B10157CE8D3661F4E091AE0138
:1075F000F091AF0185E080935700E89507B600FC55
:10760000FDCF49CE823551F4E091AE01F091AF014A
:1076100005911491812FEBDD802F4CC0843421F52E
:10762000E090AE01F090AF010091B0011091B10176
:1076300016950795F794E794C2DD682FC70169D4C2
:107640008091AE019091AF01A091B001B091B101D4
:107650000296A11DB11D8093AE019093AF01A0933E
:10766000B001B093B10117CE843609F5E090AE01B8
:10767000F090AF010091B0011091B101D801C701A4
:10768000B695A795979587953CD4B1DD82E090E0BB
:10769000A0E0B0E0E80EF91E0A1F1B1FE092AE0149
:1076A000F092AF010093B0011093B10104C08B318F
:1076B00011F08FE39CDD83E08093E9009091E80076
:1076C0008091E8008E778093E80095FF04C010C099
:1076D0008EB38823C9F08091E80080FFF9CF8091B4
:1076E000E8008E778093E80003C08EB3882361F0B2
:1076F0008091E80080FFF9CF84E08093E9008091D9
:10770000E8008B778093E800DF91CF911F910F9174
:10771000FF90EF90DF90CF90BF90AF909F908F90B1
:107720007F906F905F904F9008959091B601892F50
:107730008F77813249F58091B7018032A1F0813293
:1077400019F5913A09F58091E800877F8093E80068
:107750008DE091E067E070E00BD28091E8008B77DC
:107760008093E8000895913279F48091E800877F52
:107770008093E8008DE091E067E070E05DD2809159
:10778000E8008E778093E800089582E061EC42E0A3
:10779000B5D083E061E842E1B1D084E060E842E145
:1077A000ADC084B7877F84BF88E10FB6F89480931B
:1077B0006000109260000FBE20E880E090E00FB6FD
:1077C000F89420936100809361000FBE81E085BF33
:1077D00092E095BF3F9A209A559AE1E6F0E0208327
:1077E000108247985D982898109289008AEF8093BC
:1077F000880090936F0083E080938100F0C04091F7
:10780000000850910108109201081092000894B7E6
:1078100014BE88E10FB6F894809360001092600067
:107820000FBE292F30E0F901E270F07091FD18C011
:1078300090FF05C0859194918F5F9F4F81F423FF46
:107840000FC08091090190910A014817590741F032
:10785000E0E0F0E0859194918F5F9F4F09F042DC6A
:10786000A0DF78941092AD011092AC010CC0DEDC68
:1078700036D38091AC019091AD0181549F4110F0BD
:107880001092140141DC80911401882381F78091CA
:10789000E00081608093E00025DC80E090E00895C6
:1078A000FA01923049F0933061F09130F9F485E1BA
:1078B00091E022E130E01EC087E291E02EE330E06B
:1078C00019C0882329F485E691E024E030E012C055
:1078D000813029F489E691E022E230E00BC0823069
:1078E00029F48DE891E028E130E004C080E090E0E8
:1078F00020E030E091838083C90108958093E900FE
:107900008091EB0081608093EB001092ED0060931A
:10791000EC004093ED008091EE00881F8827881FBF
:1079200008958091B60188238CF403C08EB3882318
:10793000B1F08091E80082FFF9CF8091E8008B7769
:107940008093E80008958EB3882349F08091E80081
:1079500080FFF9CF8091E8008E778093E80008954A
:10796000EF92FF920F931F9345D04CD008ED10E09B
:10797000F80180818F778083808180688083808117
:107980008F7D808319BC1EBA1092B40180EEE82E60
:10799000F12CF70180818B7F8083F80180818160E9
:1079A000808380E060E042E0A9DFE1EEF0E08081EA
:1079B0008E7F8083E2EEF0E0808181608083808131
:1079C00088608083F70180818E7F8083F8018081C9
:1079D000806180831F910F91FF90EF900895E7EDF4
:1079E000F0E08081816080838AE482BF81E08093BF
:1079F000B501B6CFE8EDF0E080818E7F80831092F4
:107A0000E20008951092DA001092E10008951F92AA
:107A10000F920FB60F9211242F933F934F935F93C2
:107A20006F937F938F939F93AF93BF93EF93FF9346
:107A30008091DA0080FF1BC08091D80080FF17C0C2
:107A40008091DA008E7F8093DA008091D90080FFE8
:107A50000BC080E189BD82E189BD09B400FEFDCF84
:107A600081E08EBB3BD203C019BC1EBA37D28091D5
:107A7000E10080FF17C08091E20080FF13C0809179
:107A8000E2008E7F8093E2008091E200806180932B
:107A9000E2008091D80080628093D80019BC85E014
:107AA0008EBB1CD28091E10084FF2CC08091E2004B
:107AB00084FF28C080E189BD82E189BD09B400FE50
:107AC000FDCF8091D8008F7D8093D8008091E10018
:107AD0008F7E8093E1008091E2008F7E8093E200B0
:107AE0008091E20081608093E2008091B40188235C
:107AF00031F48091E30087FD02C081E001C084E0A1
:107B00008EBBECD18091E10083FF21C08091E20027
:107B100083FF1DC08091E100877F8093E10082E0B8
:107B20008EBB1092B4018091E1008E7F8093E100C2
:107B30008091E2008E7F8093E2008091E20080617C
:107B40008093E20080E060E042E0D8DEC7D1FF91A0
:107B5000EF91BF91AF919F918F917F916F915F91C5
:107B60004F913F912F910F900FBE0F901F9018953E
:107B70009C014091BC015091BD014617570718F474
:107B8000F90190E044C06115710511F0AB01F8CF27
:107B90008091E8008E778093E80040E050E0F0CFDD
:107BA0008EB3882309F444C0853009F443C0809122
:107BB000E80083FF02C081E008958091E80082FD23
:107BC00031C08091E80080FF22C08091F300909145
:107BD000F200782F60E0292F30E0262B372B07C0EA
:107BE00081918093F100415050402F5F3F4F4115EC
:107BF000510519F02830310598F390E0283031050F
:107C000009F491E08091E8008E778093E8004115B7
:107C1000510531F6992321F605C08EB3882341F032
:107C2000853041F08091E80082FFF7CF80E0089531
:107C300082E0089583E008959C016115710529F49F
:107C40008091E8008B778093E800F90126C08EB31D
:107C5000882391F1853091F18091E80083FF02C083
:107C600081E008958091E80082FFF1CF06C0809105
:107C7000F10081936150704059F02091F3008091A0
:107C8000F200322F20E090E0822B932B892B79F7A2
:107C90008091E8008B778093E80061157105B9F653
:107CA00005C08EB3882341F0853041F08091E80013
:107CB00080FFF7CF80E0089582E0089583E0089583
:107CC0000F931F93DF93CF9300D0CDB7DEB7E6EBD2
:107CD000F1E08091F100819381E0EE3BF807C9F774
:107CE00024DD8091E80083FFE4C08091B60190918B
:107CF000B701953009F46DC0963040F4913081F1B0
:107D0000913070F0933009F0D4C02AC0983009F453
:107D1000A3C0993009F4B2C0963009F0CAC07CC043
:107D2000803809F4C6C0823809F0C3C08091BA0116
:107D300087708093E9008091EB001092E900209118
:107D4000E800277F2093E80090E025E0969587954E
:107D50002A95E1F781708093F1001092F10087C0BD
:107D6000882319F0823009F0A4C08F71823009F0A5
:107D7000A0C08091B801882331F52091BA01277005
:107D800009F497C02093E9008091EB0080FF1BC0AD
:107D9000933021F48091EB00806213C08091EB005E
:107DA00080618093EB0081E090E002C0880F991F12
:107DB0002A95E2F78093EA001092EA008091EB00A6
:107DC00088608093EB001092E9008091E800877F43
:107DD00051C0882309F06DC01091B8011F770FB70B
:107DE000F8948091E800877F8093E8009ADD809185
:107DF000E80080FFFCCF8091E3008078812B8093A6
:107E0000E30080688093E300112311F482E001C055
:107E100083E08EBB0FBF4DC08058823008F049C050
:107E20008091B8019091B9016091BA01AE014F5FA4
:107E30005F4F36DDBC01009709F43BC08091E8003C
:107E4000877F8093E80089819A8192DE8091E800A3
:107E50008B778093E8002DC0803859F58091E80039
:107E6000877F8093E8008091B4018093F100809136
:107E7000E8008E778093E80054DD1BC08823C9F4A6
:107E80009091B8019230A8F48091E800877F8093A8
:107E9000E8009093B40145DD8091B401882331F46A
:107EA0008091E30087FD02C081E001C084E08EBBC9
:107EB0006CDC8091E80083FF0AC08091EB00806257
:107EC0008093EB008091E800877F8093E8000F901B
:107ED0000F90CF91DF911F910F91089508951F93F7
:107EE0008EB3882361F01091E9001092E90080912F
:107EF000E80083FF01C0E4DE17701093E9001F91D2
:107F00000895F999FECF92BD81BDF89A992780B561
:107F10000895262FF999FECF1FBA92BD81BD20BDCD
:107F20000FB6F894FA9AF99A0FBE01960895F8944C
:107F3000FFCF4341544552494E4100777700080036
:107F400000000000000801120110010200000841B9
:107F500023370001000201000109023E0002010076
:107F60008032090400000102020100052400100112
:107F7000042402040524060001070582030800FF0B
:107F800009040100020A00000007050402100001B4
:107F90000705830210000104030904220341007253
:107FA000006400750069006E006F0020004D0069DC
:107FB00000630072006F0020002000200000001805
:107FC00003410072006400750069006E006F0020BC
:107FD000004C004C004300000000FFFFFFFFFFFFCC
:107FE000FFFFFFFFFFFFFFFFFFFFFFFFFFFFFFFFA1
:107FF000FFFFFFFFFFFFFFFFFFFFFFFFFFFFFFFF91
:00000001FF
